:020000040800F2
:10000000700A00209D0100088109000813090008FA
:100010007D09000859040008F31C000800000000D6
:10002000000000000000000000000000A10C00081B
:10003000F106000800000000FD090008D10D0008CD
:10004000B7010008B7010008B7010008B7010008B0
:10005000B7010008B7010008B7010008B7010008A0
:10006000B7010008B7010008B7010008B701000890
:10007000B7010008B7010008B7010008B701000880
:10008000B7010008B7010008B7010008B701000870
:10009000B7010008B7010008B7010008B701000860
:1000A000B7010008B7010008B7010008B701000850
:1000B000B7010008B7010008B7010008B701000840
:1000C000B7010008B7010008B7010008B701000830
:1000D000B7010008B9110008D91700084518000831
:1000E0006D070008B7010008B7010008B701000854
:1000F000B7010008B7010008B7010008B701000800
:10010000B7010008B7010008B7010008B7010008EF
:10011000F5100008B7010008B7010008A90E000893
:10012000B7010008B7010008B7010008B7010008CF
:10013000B7010008B7010008B7010008B7010008BF
:10014000B7010008B7010008B7010008B7010008AF
:10015000B7010008B7010008B7010008A51800089A
:10016000B7010008B7010008B7010008B70100088F
:10017000B7010008B7010008B7010008B70100087F
:10018000B7010008B7010008DFF80CD000F018F83C
:100190000048004711210008700A002006488047E7
:1001A00006480047FEE7FEE7FEE7FEE7FEE7FEE75C
:1001B000FEE7FEE7FEE7FEE7410E000889010008C2
:1001C000064C074D06E0E06840F0010394E80700A4
:1001D00098471034AC42F6D3FFF7DAFFCC21000881
:1001E000EC21000821B1826842F00102826003E044
:1001F000826822F001028260704700000021084AF4
:100200001168084A1140D0E900231A4383681A4351
:10021000C3681A431143044AC2F80413704700002C
:1002200004230140E030FCFF0020014021B182683E
:1002300042F48072826003E0826822F480728260FD
:10024000704721B1826842F40072826003E08268E4
:1002500022F400728260704700B58DB00121022047
:1002600000F0CEFB0121080200F0EAFB01200B9018
:1002700003208DF8300000208DF833000BA92148B1
:1002800000F0DCFA0121080200F0EAFB00214FF443
:10029000807000F0E5FB002007904FF470600A903A
:1002A0004FF4804009908000089007A8FFF7A6FF50
:1002B000002001908DF8080001208DF80900002031
:1002C0000390059001208DF8180001A90E4800F058
:1002D0001DF801210C48FFF785FF072301220821A3
:1002E000094800F03DF800F0B9F8074800F094F82C
:1002F00001210548FFF7A5FF01210348FFF796FFFD
:100300000DB000BD000402400020014030B502469F
:10031000002000235068104C20400D790C6844EAFE
:1003200005242043506090680C4C2040D1E90354D0
:100330002C438D682C434D7944EA4504204390605A
:10034000D06A20F470000C7D641EE4B2234340EABE
:100350000350D06230BD0000FFFEFFFCFDF7FFC080
:10036000F0B504460D4600200021092D11DDE0689E
:10037000A5F10A0606EB4607072606FA07F18843A9
:10038000A5F10A0606EB460603FA06F10843E0600B
:100390000CE0206905EB4507072606FA07F18843BC
:1003A00005EB450603FA06F108432061072A0FDA38
:1003B000606B561E06EB86071F2606FA07F1884378
:1003C000561E06EB860605FA06F10843606322E036
:1003D0000D2A0FDA206BD61F06EB86071F2606FABA
:1003E00007F18843D61F06EB860605FA06F1084397
:1003F000206310E0E06AA2F10D0606EB86071F26D7
:1004000006FA07F18843A2F10D0606EB860605FA07
:1004100006F10843E062F0BD816841F080418160EF
:10042000704700001CB50121102000F0E9FA4FF4DC
:100430000060009001208DF8040000208DF8060077
:100440008DF8070002208DF805006946014800F08C
:10045000F5F91CBD0010024000BFFEE700B58FB0EB
:100460000121880500F0CCFA00BF154800F0E6F83D
:100470000028FAD100901348019013480290002000
:100480000390012004900020059006904FF4006036
:1004900007900890C010099040020A9000200B902D
:1004A00001200C9000200D900E906946044800F049
:1004B000F1F80121024800F009F80FB000BD00007A
:1004C000106402404C2001403200002021B102683B
:1004D00042F00102026003E0026822F001020260C1
:1004E00070470000016821F00101016000210160F6
:1004F00041608160C1600161212141614A498842B6
:1005000004D13D21484A103A91608CE046491831A7
:10051000884205D14FF47461434A103A916082E0F9
:1005200041493031884205D14FF474113E4A103AA6
:10053000916078E03C494831884205D14FF07461C0
:10054000394A103A91606EE037496031884204D1EF
:100550003649354A103AD16065E0334978318842EE
:1005600004D13349304A103AD1605CE02E499031D1
:10057000884204D12F492C4A103AD16053E02A49CD
:10058000A831884205D14FF03D51274A103AD16039
:1005900049E02949884204D13D21274A083A11609F
:1005A00041E025491831884205D14FF47461224A4F
:1005B000083A116037E020493031884205D14FF4C4
:1005C00074111D4A083A11602DE01B4948318842D8
:1005D00005D14FF07461184A083A116023E01649BA
:1005E0006031884204D11149134A121F11601AE088
:1005F00011497831884204D10D490F4A121F116008
:1006000011E00D499031884204D10A490A4A121F6B
:10061000116008E00849A831884204D14FF03D51EB
:10062000054A121F11607047106002403D00002013
:10063000400F002000003D201064024001460020D1
:100640000A6802F001020AB1012000E000207047B0
:100650000146486880B2704710B501F080034BB185
:1006600022B1436943F08003436103E0436923F00F
:100670008003436180290BD02AB1036801F01E0476
:100680002343036004E0036801F01E04A3430360F6
:1006900010BD000010B500220268134B1A40CC6850
:1006A0000B6823434C6923438C692343CC69234360
:1006B0000C6A23434C6A23438C6A23434C6B2343C9
:1006C0008C6B23431A430260426922F00702D1E98E
:1006D0000B3423431A4342610B6943604B688360C8
:1006E0008B68C36010BD00003F801CF04160704704
:1006F0007047000000B585B00121082000F080F9A6
:100700004FF40060039000208DF8100002208DF857
:10071000110003A9144800F091F80121880300F0AA
:100720008FF90A21042000F0BDFA4FF48060009098
:1007300000208DF8040008208DF8050001208DF8B8
:100740000600684600F030F828208DF808000020E8
:100750008DF809008DF80A0001208DF80B0002A821
:1007600000F010F905B000BD000C024010B54FF4C8
:10077000806000F00DF818B14FF4806000F002F8CE
:1007800010BD00000149086070470000143C0140A2
:1007900001460020034A12680A400AB1012000E025
:1007A00000207047143C0140002123498279002A2F
:1007B0003AD00A46126803689A430B461A600A1D2B
:1007C000126803689A430B1D1A60027911440A6883
:1007D00003681A430A60184A0832126803689A4389
:1007E000154B08331A601A1D126803689A43124B9E
:1007F0000C331A604279102A0ED11A1F126803684E
:100800001A430D4B08331A601A1D126803681A4305
:10081000094B0C331A600DE00749427911440A680C
:1008200003681A430A6005E0027911440A68036804
:100830009A430A6070470000003C0140F0B50A4648
:1008400000210023002400BF3DE0012505FA01F34B
:10085000156805EA03049C4234D105684F0003265D
:10086000BE40B543056015794E00B5400668354376
:1008700005601579012D02D01579022D16D18568F4
:100880004F000326BE40B543856055794E00B54004
:10089000866835438560456801268E40B5434560CE
:1008A000456896798E40B6B235434560C5684F00BD
:1008B0000326BE40B543C560D5794E00B540C66835
:1008C0003543C560491C1029BFD3F0BDF0B50023E6
:1008D00000244D07ED0E02FA05F3CE1000F12005BD
:1008E00055F826504E07F70E0F26BE40B543CF10E1
:1008F00000F1200646F82750CE1000F1200555F8EB
:10090000265045EA0304CE1000F1200545F82640A4
:10091000F0BD00BFFEE700001CB50121102000F073
:100920006FF83820009000208DF8040001208DF829
:10093000070002208DF8050069460248FFF77EFF98
:100940001CBD0000001002401CB50121084600F04B
:1009500057F80820009001208DF8040000208DF841
:1009600006008DF8070002208DF805006946024850
:10097000FFF764FF1CBD00000000024000BFFEE75F
:100980007047000070B5002100230F22C4781CB30B
:10099000174C246804F4E064C4F5E064C4F3072150
:1009A000C1F10404E3B20A4144789C40E1B2847886
:1009B000144021430C07210E0E4C05786155047834
:1009C00004F01F050124AC4005786D11AD0005F160
:1009D000E025C5F8004109E0047804F01F05012472
:1009E000AC40054D0678761145F8264070BD0000F4
:1009F0000CED00E000E400E080E100E07047000062
:100A000029B1064A12680243044B1A6004E0034A03
:100A100012688243014B1A60704700003038024070
:100A200029B1064A12680243044B1A6004E0034AE3
:100A300012688243014B1A60704700004038024040
:100A400029B1064A12680243044B1A6004E0034AC3
:100A500012688243014B1A6070470000443802401C
:100A600029B1064A12680243044B1A6004E0034AA3
:100A700012688243014B1A6070470000243802401C
:100A8000F0B5002100220024022500260223324F67
:100A90003F6807F00C0121B1042905D0082937D19E
:100AA00005E02E4F076036E02D4F076033E02A4FF8
:100AB0003F1F3F68C7F38056274F3F1F3F6807F02F
:100AC0003F036EB1264FB7FBF3F7DFF88CC0ACF1F4
:100AD000040CDCF800C0CCF3881C07FB0CF40CE021
:100AE0001E4FB7FBF3F7DFF870C0ACF1040CDCF875
:100AF00000C0CCF3881C07FB0CF4174F3F1F3F6866
:100B0000C7F301477F1C7D00B4FBF5F7076002E0E7
:100B1000124F076000BF00BF0F4F3F6807F0F001A2
:100B20000909104F7A5C0768D74047600A4F3F6851
:100B300007F4E051890A0B4F7A5C4768D740876019
:100B4000054F3F6807F46041490B064F7A5C4768E0
:100B5000D740C760F0BD0000083802400024F40010
:100B600000127A00140000201CB501211A20FFF7A2
:100B700047FF4FF47040009001208DF804000020E2
:100B80008DF806008DF8070002208DF805006946F3
:100B90001348FFF753FE4FF46040009001208DF89A
:100BA000040000208DF806008DF8070002208DF863
:100BB000050069460B48FFF741FE4FF4E0600090E6
:100BC00001208DF8040000208DF806008DF8070044
:100BD00002208DF8050069460348FFF72FFE1CBD73
:100BE00000040240000C02400010024070B50546AF
:100BF000002029490870002435B1012D11D0022DA3
:100C00001DD0032D45D128E0002407E0234801F042
:100C1000CBFA44F6206001F06FFA641C052CF5DB7A
:100C200037E0002408E01D48801D01F0BDFA44F6BD
:100C3000206001F061FA641C052CF4DB29E000243B
:100C400008E016480C3001F0AFFA44F6206001F0DD
:100C500053FA641C052CF4DB1BE0002417E00F485A
:100C600001F0A2FA44F6206001F046FA0B48801D1C
:100C700001F09AFA44F6206001F03EFA07480C3081
:100C800001F092FA44F6206001F036FA641C052C5B
:100C9000E5DB00BF70BD000028000020340000200C
:100CA0007047000030B500228B071C0F0F2303FA9A
:100CB00004F20B4B8C1053F824309343084C8D10E6
:100CC00044F8253023468C1053F824308C07240F29
:100CD00000FA04F42343024C8D1044F8253030BD53
:100CE000083801400CB5002001900090344800689D
:100CF00040F480303249086000BF3148006800F499
:100D0000003000900198401C0190009818B901989B
:100D1000B0F5A04FF1D12A48006800F4003010B1BE
:100D20000120009001E0002000900098012846D1A9
:100D300023484030006840F080502149403108602D
:100D40002048006840F440401E4908601C480830B4
:100D500000681B49083108600846006840F40040FC
:100D600008600846006840F4A05008601648091F53
:100D70000860081F006840F08070091F086000BF0D
:100D80000F48006800F000700028F9D040F20570AC
:100D90000E4908600A480830006820F0030008493E
:100DA000083108600846006840F00200086000BF93
:100DB00003480830006800F00C000828F8D10CBD8A
:100DC000003802400070004008544007003C0240D8
:100DD00010B500F015F910BD30B515480068154A7A
:100DE000B0FBF2F1481EB0F1807F01D301201BE07F
:100DF000481E4FF0E022506150170F22002807DAFA
:100E000013071D0E0C4B00F00F04241F1D5503E0AB
:100E100013071C0E094B1C5400BF00204FF0E022AA
:100E2000906107201061002008B100BFFEE730BDCF
:100E300000000020A086010018ED00E000E400E0C2
:100E400010B51548006840F4700013490860134855
:100E5000006840F001001149086000200F49083186
:100E600008600E4800680E4908400C4908600D48AB
:100E7000091D0860081F006820F48020091F086011
:100E8000002006490C310860FFF72CFF4FF000608E
:100E900001498039086010BD88ED00E0003802404B
:100EA000FFFFF6FE1030002410B50121054800F0C8
:100EB0004AF808B101F0A4F80121024800F034F822
:100EC00010BD0000001400407FB505460C4601210E
:100ED0002020FFF7A5FD0295A0B2ADF80400002088
:100EE000ADF80600ADF80C0001A90E4800F046F878
:100EF000012211460B4800F037F80121094800F0A3
:100F000016F837208DF8000001208DF8010003202D
:100F10008DF8020001208DF803006846FFF732FDCE
:100F20007FBD000000140040CA430282704721B117
:100F3000028842F00102028004E002884FF6FE734C
:100F40001A400280704730B502460020002300247A
:100F5000158A05EA0103958905EA010413B10CB16C
:100F6000012000E0002030BD1AB183890B4383814A
:100F700002E083898B43838170470000002202884E
:100F8000184B98420ED0184B98420BD0B0F1804FBE
:100F900008D0164B984205D0154B984202D0154BFD
:100FA000984204D14FF68F731A404B881A43124B64
:100FB000984207D0114B984204D04FF6FF431A4095
:100FC0000B891A4302804B68C3620B880385054B6B
:100FD000984202D0044B984201D18B7A03860123B8
:100FE000838270470000014000040140000400407B
:100FF00000080040000C00400010004000140040B9
:101000000448006820B103480068401E0149086098
:10101000704700002400002000B58FB01948FFF78A
:1010200061FA00211748FFF751FA00BF1548FFF792
:1010300005FB0028FAD16420049004200B900320C3
:101040000C9000200D9008904FF480600690801066
:1010500009900D48019000200E90079005904FF4E4
:1010600080300A90C0020090002003900748029050
:1010700069460448FFF70EFB01210248FFF726FAF4
:101080000FB000BD40600240044C004052050020FB
:1010900030B58FB004460D461448FFF723FA00BF61
:1010A0001248FFF7CBFA0028FAD1049504200B90E0
:1010B00003200C9000200D9008904FF48060069063
:1010C000002009900A48019000200E90079005909A
:1010D0004FF400300A908002009040200390029468
:1010E00069460248FFF7D6FA0FB030BD7060024083
:1010F000044C004010B540F22441134800F0E0FCDD
:1011000001280BD1104800F0EFFD1048FFF7A0FABE
:10111000C0F16400C4B200F023F814E040F226618C
:10112000094800F0CDFC01280DD140F226610648A7
:1011300000F0F5FB064805494039C8600021034826
:101140003030FFF7C3F910BD004C00404060024052
:101150003D00002010B50446204600F0CBFE10BD37
:1011600010B500210848FFF7B1F900BF0648FFF7A6
:1011700065FA0028FAD164210348FFF7B7FA012184
:101180000148FFF7A3F910BD4060024070B5044666
:101190000D4600BF0748FFF751FA0028FAD105486D
:1011A000001D056003480C30046001210148FFF771
:1011B0008DF970BDB864024010B540F22441FE487C
:1011C00000F07EFC012875D1FB4800F08DFDFB4846
:1011D000FFF73EFAC0F16400C4B200F02BFD062C0C
:1011E00060D1F7480078EE285BD1002008E0F44990
:1011F000095CF44A12681144F24A1160411CC8B2F9
:101200000528F4DBEE484079EE490968884245D16B
:10121000EB484078EA49897840EA012000EE100A5C
:10122000B8EEC00AE84880ED0F0AE548C078E44906
:10123000097940EA012000EE100AB8EEC00AE2483F
:1012400080ED100A90ED0F0ADFEDE00A20EE200A93
:101250009FEDDF1AC0EE010A9FEDDE0AB2EE041A1E
:1012600011EE200ADFEDDC0A30EE200A80ED010AE3
:1012700090ED100ADFEDD50A20EE200A9FEDD41A7A
:10128000C0EE010A9FEDD50AB1EE041A11EE200A54
:10129000DFEDD10A30EE200A80ED020A0020C949B4
:1012A000086070E20F2C7AD1C5480078AA28F8D1DE
:1012B000002009E068E2C249095CC24A1268114490
:1012C000C04A1160411CC8B20E28F4DBBC48807BC8
:1012D000BC49096888427AD1B9484078B8498978C8
:1012E00040EA012000EE100AB8EEC00ADFEDBC0AA9
:1012F00080EE201AB3EE000A21EE000AB94880ED14
:10130000000AAF48C078AE49097940EA012000EEF2
:10131000100AB8EEC00ADFEDB20A80EE201A9FED87
:10132000B20A21EE000AAF4880ED010AA4484079D4
:10133000A349897940EA012000EE100AB8EEC00AFC
:101340009FEDA71AC0EE010A9FEDA80A20EE800AC1
:10135000A44880ED020A9A48C0799949097A40EA7E
:10136000012000EE100AB8EEC00ADFED9D0A80EE03
:10137000201A9FED9E0A21EE000A9A4880ED030A8A
:101380008F48407A8E49897A40EA012000EE100A9F
:10139000B8EEC00ADFED920A80EE201A00E02BE0E2
:1013A0009FED920A21EE000A8E4880ED040A8448DF
:1013B000C07A8349097B40EA012000EE100AB8EEAA
:1013C000C00A814880ED0E0A90ED0E0A00E00FE0A1
:1013D000DFED7E0A20EE200A9FED7D1AC0EE010AA5
:1013E0009FED7E0AB1EE041A11EE200A80ED000A8C
:1013F000002074490860C6E10E2C7DD17048007849
:10140000BB28F8D1002008E06D49095C6D4A1268DC
:1014100011446C4A1160411CC8B20D28F4DB6848C5
:10142000407B68490968884267D1654840786449CB
:10143000897840EA012000EE100AB8EEC00ADFED1C
:10144000680A80EE201AB3EE000A21EE000A654811
:1014500080ED000A5A48C0785949097940EA0120CC
:1014600000EE100AB8EEC00ADFED5D0A80EE201A29
:101470009FED5D0A21EE000A5A4880ED010A5048AE
:1014800040794F49897940EA012000EE100AB8EE10
:10149000C00ADFED530A80EE201A9FED540A21EEB8
:1014A000000A504880ED020A4548C0794449097A4B
:1014B00040EA012000EE100AF8EEC00A9FED481A3B
:1014C00080EE810ADFED490A20EE200A454880EDD2
:1014D000030A3B48407A3A49897A40EA012000EE03
:1014E000100AB8EEC00A9FED3E1AC0EE010A9FED49
:1014F0003F0A20EE800A01E026E021E0394880ED35
:10150000040A2F48C07A2E49097B40EA012000EEE8
:10151000100AB8EEC00A2C4880ED0E0A90ED0E0AB3
:10152000DFED2A0A20EE200A9FED291AC0EE010AFB
:101530009FED2A0AB1EE041A11EE200A80ED000A8E
:101540000020204908601EE1082CFCD11C480078CE
:10155000CC287DD1002008E01949095C194A12689D
:101560001144184A1160411CC8B20728F4DB144822
:10157000C0791449096888427CD1114840781049E3
:10158000897840EA012000EE100AB8EEC00A0E4841
:1015900080ED0F0A0A48C0780949097940EA01201C
:1015A00000EE100AB8EEC00A074880ED100A0448A1
:1015B0004079034989791BE00010014088640240AA
:1015C0006C0000202C000020D000002000404E4580
:1015D000000080450080BB450000C84200803B45BC
:1015E00000FEFF46240100200000FA4400003443BE
:1015F00040EA012000EE100AB8EEC00A6D4880ED06
:10160000110A90ED0F0A5FED0F0A20EE200A1FED80
:10161000101AC0EE010A1FED0F0AB1EE041A11EE06
:10162000200A80ED010A90ED100A5FED180A20EE05
:10163000200A1FED191AC0EE010A1FED1A0AB2EEB8
:10164000041A11EE200A80ED020A90ED110A01E061
:1016500014E00FE05FED230A20EE200A1FED241AAC
:10166000C0EE010A1FED250AB2EE041A11EE200A9F
:1016700080ED030A00205049086084E04F4800785C
:10168000DD287DD1002008E04C49095C4A4A1268F7
:101690001144494A1160411CC8B20728F4DB47488D
:1016A000C07945490968884268D14448407843492F
:1016B000897840EA012000EE100AB8EEC00A3D48E1
:1016C00080ED120A3D48C0783C49097940EA012082
:1016D00000EE100AB8EEC00A364880ED130A37480B
:1016E00040793649897940EA012000EE100AB8EEC7
:1016F000C00A304880ED140A90ED120A5FED4D0AE1
:1017000020EE200A1FED4E1AC0EE010A1FED4D0A11
:10171000B1EE041A11EE200ADFED290A30EE200A9C
:1017200080ED040A90ED130A5FED580A20EE200ABE
:101730001FED591AC0EE010A1FED5A0AB2EE041A43
:1017400011EE200ADFED1E0A30EE200A80ED050AB8
:1017500090ED140A5FED630A20EE200A1FED641A73
:10176000C0EE010A1FED630AB1EE041A11EE200A61
:10177000DFED130A30EE200A80ED060A002000E0BB
:1017800001E00D49086014E040F226610D4800F0C8
:1017900097F901280DD140F226610A4800F0BFF800
:1017A0004FF03D500849086000210748AC30FEF773
:1017B0008DFE10BDD00000202C0000206C00002009
:1017C00000007042001001400C64024010B5044655
:1017D000204600F09FFA10BD10B540F22441134896
:1017E00000F06EF901280BD1104800F07DFA104886
:1017F000FEF72EFFC0F57A70C4B200F031FA14E0A3
:1018000040F22661094800F05BF901280DD140F251
:101810002661064800F083F8064805498839C86003
:10182000002103481830FEF751FE10BD004400406F
:101830008860024000003D2010B50446204600F0BC
:10184000EBFA10BD10B540F22441144800F038F90D
:1018500001280BD1114800F047FA1148FEF7F8FEB5
:10186000C0F16400C4B200F013FA15E040F2266142
:101870000A4800F025F901280ED140F226610748F8
:1018800000F04DF84FF0746005492839C860002118
:1018900003483030FEF71AFE10BD0000004800403B
:1018A0002860024010B540F22441144800F008F9C5
:1018B00001280CD1114800F017FA1148FEF7C8FEB4
:1018C000C0F164000F49087000F0F8F914E040F22C
:1018D00026610A4800F0F4F801280DD140F2266193
:1018E000064800F01CF8084805491C39086000212A
:1018F00003487830FEF7EAFD10BD000000140140F7
:10190000286402403000002000003D2001F40072F5
:10191000B2F5007F00D100BFCA430280704710B506
:101920000022002340F66A14A14200D100BF0A122F
:1019300001249440A3B2DC43048010BD21B182890C
:1019400042F40052828104E082894DF6FF731A400E
:10195000828170471AB1838A0B43838202E0838AB3
:101960008B4383827047000000B58FB01948FEF7A3
:10197000B9FD00211748FEF7A9FD00BF1548FEF785
:101980005DFE0028FAD16420049004200B9003200F
:101990000C9000200D9008904FF48060069080100D
:1019A00009900D48019000200E90079005904FF48B
:1019B00080300A90C00200900020039007480290F7
:1019C00069460448FEF766FE01210248FEF77EFDE7
:1019D0000FB000BD88640240041001406C0000207C
:1019E00000B58FB01A48FEF77DFD00211848FEF7BC
:1019F0006DFD00BF1648FEF721FE0028FAD14FF416
:101A00007A70049004200B9003200C9000200D901D
:101A100008904FF480600690801009900D48019066
:101A200000200E90079005904FF480300A90C0027D
:101A30000090002003900848029069460448FEF791
:101A400029FE01210248FEF741FD0FB000BD000054
:101A500088600240044400405501002030B58FB03A
:101A600004460D461448FEF73DFD00BF1248FEF740
:101A7000E5FD0028FAD1049504200B9003200C907A
:101A800000200D9008904FF480600690002009908F
:101A90000A48019000200E90079005904FF4003006
:101AA0000A90800200904020039002946946024808
:101AB000FEF7F0FD0FB030BDB864024004100140E5
:101AC00070B50246002400230025002040F66A1667
:101AD000B14200D100BFC1F3421501F01F0301263E
:101AE00006FA03F3012D02D19689334006E0022D58
:101AF00002D1168A334001E0968A33400C12012647
:101B000006FA04F41688344013B10CB1012000E049
:101B1000002070BDF0B503460024002600250020FB
:101B200040F66A17B94200D100BF1846C1F342140B
:101B300001F01F06012707FA06F5012C01D10C3030
:101B400004E0022C01D1103000E014301AB1076813
:101B50002F43076002E00768AF430760F0BD000055
:101B60002DE9FF4705460E460024A14600BFA046CA
:101B7000B08900B100BF2C8A24F44054F08804439B
:101B80002C82AC8941F20C608443B08831890843CF
:101B9000718908430443AC81AC8A24F44074B08951
:101BA0000443AC826846FEF76BFF2048854202D0B2
:101BB0001F48854202D1DDF80C9001E0DDF8089065
:101BC000A88900F4004040B109EBC90000EB0910FE
:101BD00031684900B0FBF1F707E009EBC90000EB01
:101BE000091031688900B0FBF1F76420B7FBF0F011
:101BF00004012009642101FB1078A88900F4004049
:101C000040B1322000EBC800B0FBF1F000F007005B
:101C1000044308E0322000EB08106421B0FBF1F02F
:101C200000F00F0004432C81BDE8FF870010014045
:101C30000014014010B500210848FEF747FC00BF22
:101C40000648FEF7FBFC0028FAD164210348FEF7A2
:101C50004DFD01210148FEF739FC10BD88640240AA
:101C600010B500210948FEF731FC00BF0748FEF718
:101C7000E5FC0028FAD14FF47A710448FEF736FDEE
:101C800001210248FEF722FC10BD000088600240DE
:101C900010B500210848FEF719FC00BF0648FEF702
:101CA000CDFC0028FAD164210348FEF71FFD012175
:101CB0000148FEF70BFC10BD2860024010B5002162
:101CC0000848FEF703FC00BF0648FEF7B7FC0028F3
:101CD000FAD164210348FEF709FD01210148FEF70E
:101CE000F5FB10BD2864024001468888C0F3080057
:101CF000704700BFFEE702E008C8121F08C1002AB3
:101D0000FAD170477047002001E001C1121F002A7C
:101D1000FBD1704710B588B0044601210846FEF794
:101D20006FFE01211020FEF78BFE01218805FEF7D2
:101D300067FE072209213548FEF7C8FD07220A2160
:101D40003248FEF7C3FD02208DF80C0003208DF809
:101D50000D0000208DF80E0001208DF80F004002CC
:101D6000029002A92948FEF769FD4FF480600290B5
:101D700002A92648FEF762FD04940020ADF8140085
:101D8000ADF81600ADF81800ADF81C000C20ADF849
:101D90001A0004A91E48FFF7E3FEFFF7E5FD0A213C
:101DA0000020FFF75BFE012240211948FFF7D2FD1A
:101DB000012280211648FFF7CDFD01221021154890
:101DC000FEF74AFC25208DF8040001208DF805005F
:101DD0008DF806008DF8070001A8FEF7D3FD01225B
:101DE00040F224410A48FFF795FE012240F22661A5
:101DF0000748FFF78FFE01210548FFF79FFD4021AF
:101E00000348FFF783FD08B010BD0000000002404A
:101E100000100140B864024010B588B004460121AA
:101E20000846FEF7EDFD01214804FEF7F9FD01210A
:101E30004805FEF7E5FD072203212B48FEF746FD86
:101E400002208DF80C0003208DF80D0000208DF885
:101E50000E0001208DF80F000820029002A92248F0
:101E6000FEF7ECFC04940020ADF81400ADF8160069
:101E7000ADF81800ADF81C000420ADF81A0004A954
:101E80001A48FFF76DFEFFF7ABFD0122402117480E
:101E9000FFF760FD012210211548FEF7DDFB26202B
:101EA0008DF8040001208DF8050002208DF8060051
:101EB00001208DF8070001A8FEF764FD012240F221
:101EC00024410A48FFF726FE012240F22661074816
:101ED000FFF720FE01210548FFF730FD40210348B0
:101EE000FFF714FD08B010BD0000024000440040A0
:101EF000A060024010B588B0044601210420FEF71E
:101F00007FFD0121C804FEF78BFD01214805FEF786
:101F100077FD08220A213748FEF7D8FC08220B215A
:101F20003448FEF7D3FC02208DF80C0003208DF816
:101F30000D0000208DF80E0001208DF80F008002AA
:101F4000029002A92B48FEF779FC4FF40060029042
:101F500002A92848FEF772FC04940020ADF8140092
:101F60004FF40050ADF81600C010ADF81800002076
:101F7000ADF81C000C20ADF81A0004A91E48FFF7AC
:101F8000EFFDFFF749F80A210020FFF781F8012251
:101F900040211948FFF7DEFC012280211648FFF797
:101FA000D9FC012210211548FEF756FB34208DF88C
:101FB000040001208DF805008DF806008DF807005B
:101FC00001A8FEF7DFFC012240F224410A48FFF796
:101FD000A1FD012240F226610748FFF79BFD012188
:101FE0000548FFF7ABFC40210348FFF78FFC08B022
:101FF00010BD000000080240004C0040706002402C
:1020000038480088401C3749088008464088401CF2
:10201000488008468088401C88800846C088401C4C
:10202000C88008460089401C088108464089401C39
:10203000488108468089401C88810846008802281B
:1020400001DB0020088027484088042805DB25485C
:102050004088001F2349488042E0224880880A289F
:1020600005DB204880880A381E49888038E01D48F2
:102070000089322805DB1B4800893238194908815C
:102080002EE018484089C82805DB16484089C83822
:102090001449488124E013488089B0F5FA6F1FDBAA
:1020A00010488089A0F5FA600E4988810E480078B2
:1020B000012808D10D48D0E90020521C40F1000051
:1020C0000A49C1E900200A480078012808D10948D6
:1020D000D0E900305A1C40F100000649C1E9002057
:1020E00070470000300600205800002050000020FB
:1020F000680000206000002001B5044900980860D5
:1021000000BF024800680028FBD108BD2400002061
:10211000FEF762FEFEF718FCFEF7FEFBFEF79CF8EA
:10212000FEF780F9FEF720FDFEF7E4FA4FF4E13008
:10213000FFF74CFB4FF4E130FFF77EFB4FF4E1304B
:10214000FFF708F8532140F2F310FEF7BDFE03201D
:10215000FEF74CFD9FED0D0A0D4880ED000A9FED46
:102160000D0A80ED020A9FED0C0A80ED040A9FED36
:102170000B0A0B4880ED000A9FED060A80ED020A6B
:102180009FED080A80ED040A00BFFEE700204B46E1
:102190005806002000007A450000C84400E0F645DB
:1021A000400600200080D44410B50446AA20E07008
:1021B0000548007820712079E17808446071062193
:1021C0002046FEF7E3FF10BD28000020EC210008A8
:1021D000000000206C000000F61C000858220008D7
:1021E0006C000020040A0000061D0008007A030AA3
:1021F00000000000000000000102030406070809B7
:10220000000000000102030401020304060708099C
:1022100000000000000000000000000000000000BE
:1022200000060F00000000040F00000000050F0072
:10223000000000000000000000000000000000009E
:10224000000000000000000000000000000000008E
:08225000000000000000000086
:040000050800018965
:00000001FF
