:020000040800F2
:10000000B80E00209D010008712D00081726000879
:100010006D2D0008D5120008554E000800000000A4
:10002000000000000000000000000000753600081D
:1000300085170008000000004D2E0008A5370008B5
:10004000B7010008B7010008B7010008B7010008B0
:10005000B7010008B7010008B7010008B7010008A0
:10006000B7010008B7010008B7010008B701000890
:10007000B7010008B7010008B7010008B701000880
:10008000B7010008B7010008B7010008B701000870
:10009000B7010008B7010008B7010008B701000860
:1000A000B7010008B7010008B7010008B701000850
:1000B000B7010008B7010008B7010008B701000840
:1000C000B7010008B7010008B7010008B701000830
:1000D000B7010008693C0008B53E00081D42000851
:1000E000C9230008B7010008B7010008B7010008DC
:1000F000B7010008B7010008B7010008B701000800
:10010000B7010008B7010008B7010008B7010008EF
:10011000C93A0008B7010008B70100087D38000897
:10012000B7010008B7010008B7010008B7010008CF
:10013000B7010008B7010008B7010008B7010008BF
:10014000B7010008B7010008B7010008B7010008AF
:10015000B7010008B7010008B701000869450008A9
:10016000B7010008B7010008B7010008B70100088F
:10017000B7010008B7010008B7010008B70100087F
:10018000B7010008B7010008DFF80CD000F0E0F973
:1001900000480047A5580008B80E002006488047D0
:1001A00006480047FEE7FEE7FEE7FEE7FEE7FEE75C
:1001B000FEE7FEE7FEE7FEE71538000889010008C4
:1001C000D2B201E000F8012B491EFBD27047002299
:1001D000F6E710B513460A4604461946FFF7F0FF46
:1001E000204610BD2DE9FE4F81EA030404F00044CF
:1001F00021F0004100944FF0000B23F0004350EA3F
:1002000001045ED052EA03045BD0C3F30A54C1F385
:100210000A552C44A4F2F3340194A0FB0254C1F318
:10022000130141F48011C3F3130343F4801301FB62
:10023000024400FB034E840A970A44EA815447EAC9
:100240008357A4FB076802958D0A05FB07854FEAD3
:10025000932C04FB0C542705029D4FEA065847EAED
:100260001637B5EB08056EEB070C870E920E47EAC2
:10027000811742EA8312A7FB0201B6EB0B0164EB84
:1002800000042B0D43EA0C335E1844EB1C50DA4695
:100290005146E7FB0201C5F313044FEA0B3343EA6F
:1002A00014534FEA0432019C43EA0603A4F10C0400
:1002B0000294009CCDE900B400F0FBF803B0BDE867
:1002C000F08F00200146F9E72DE9F04D81EA0304A3
:1002D00004F0004B21F0004514464FF0000A23F0D3
:1002E000004150EA050220D054EA01021DD0C5F3B6
:1002F0000A570246C5F31303C1F31300C1F30A56AC
:1003000040F4801543F48013A7EB0608101BD64673
:1003100008F2FD3873EB050002D308F1010801E093
:1003200092185B41B8F1000F03DA00200146BDE8E6
:10033000F08D00204FF48011064684460EE0171B16
:1003400073EB050705D3121B63EB050306434CEA69
:10035000010C49084FEA300092185B4150EA01074E
:10036000EDD152EA030012D082EA040083EA0501CB
:10037000084305D0101BAB4106D20122002306E042
:1003800000224FF0004302E06FF0010253101AEB1D
:1003900006004CEB085110EB0A0041EB0B01BDE8E5
:1003A000F04D00F077B80EB5C10F80EAE070084458
:1003B000CA07002140F233438DE80E000A460B467F
:1003C00000F077F803B000BD00F0004230F00040CC
:1003D0000AD0C10D01F56071C0F3160042EA015167
:1003E000C20840071143704700200146704701F0E2
:1003F000004330B421F0004150EA010206D00A0D5A
:10040000A2F56072C1F31301002A02DC30BC0020A7
:100410007047440F44EAC104C100E01830BC00EB4F
:10042000C250AFF300800029A8BF7047401C4900AC
:1004300008BF20F00100704710B4B0FA80FC00FA49
:100440000CF050EA010404BF10BC704749B1CCF174
:10045000200421FA04F411FA0CF118BF0121214300
:100460000843A3EB0C01CB1D4FEA00614FEA1020BB
:1004700042BF002010BC704700EBC350104400295D
:10048000A4BF10BC7047401C490008BF20F0010009
:1004900010BC704710B5141E73F1000408DA401C3C
:1004A00041F1000192185B411A4301D120F0010093
:1004B00010BD2DE9F04D92469B4611B1B1FA81F283
:1004C00002E0B0FA80F22032904600F053F8044681
:1004D0000F4640EA0A0041EA0B0153465A460843D8
:1004E00013D0114653EA010019D0C8F1400250461A
:1004F00000F04FF805460E4650465946424600F079
:1005000039F8084305D0012004E020463946BDE80B
:10051000F08D0020054346EAE0762C4337430A98E5
:100520006305E40AA0EB08000022FD0A44EA4754F0
:100530000A3002D500200146E9E70105101969419A
:10054000DDE9084500196941BDE8F04DA2E700006A
:10055000064C074D06E0E06840F0010394E8070010
:1005600098471034AC42F6D3FFF712FE005B000848
:10057000205B0008202A04DB203A00FA02F1002068
:1005800070479140C2F1200320FA03F319439040D1
:100590007047202A04DB203A21FA02F0002170473C
:1005A00021FA02F3D040C2F12002914008431946DB
:1005B000704770B58C1810F8015B15F0070301D176
:1005C00010F8013B2A1106D110F8012B03E010F8B6
:1005D000016B01F8016B5B1EF9D12B0705D40023D9
:1005E000521E0DD401F8013BFAE710F8013BCB1A7B
:1005F000921C03E013F8015B01F8015B521EF9D570
:10060000A142D8D3002070BD21B1826842F001021E
:10061000826003E0826822F001028260704700007D
:100620000021084A1168084A1140D0E900231A4302
:1006300083681A43C3681A431143044AC2F8041377
:100640007047000004230140E030FCFF002001401F
:1006500021B1826842F48072826003E0826822F4F1
:1006600080728260704721B1826842F400728260B9
:1006700003E0826822F400728260704700B58DB09A
:100680000121022002F008FC0121042002F004FCF8
:100690000121080202F020FC01200B9003208DF8BC
:1006A000300000208DF833000BA92A4801F03CFFF0
:1006B00010200B9003208DF8300000208DF83300BF
:1006C0000BA9254801F030FF0121080202F014FCBB
:1006D00000214FF4807002F00FFC002007904FF4CF
:1006E00070600A904FF4804009908000089007A83D
:1006F000FFF796FF0020019001208DF808008DF88B
:10070000090000200390059002208DF8180001A92F
:10071000124800F025F801211048FFF775FF072364
:10072000012208210D4800F045F8072302220E217E
:100730000A4800F03FF800F033FE084800F096F851
:1007400001210648FFF78FFF01210448FFF780FFD2
:100750000DB000BD0004024000080240002001402E
:1007600030B50246002000235068104C20400D791F
:100770000C6844EA05242043506090680C4C2040EB
:10078000D1E903542C438D682C434D7944EA450448
:1007900020439060D06A20F470000C7D641EE4B2A7
:1007A000234340EA0350D06230BD0000FFFEFFFC4F
:1007B000FDF7FFC0F0B504460D4600200021092DCD
:1007C00011DDE068A5F10A0606EB4607072606FAE2
:1007D00007F18843A5F10A0606EB460603FA06F17F
:1007E0000843E0600CE0206905EB4507072606FAA0
:1007F00007F1884305EB450603FA06F1084320613B
:10080000072A0FDA606B561E06EB86071F2606FACC
:1008100007F18843561E06EB860605FA06F10843E3
:10082000606322E00D2A0FDA206BD61F06EB8607E5
:100830001F2606FA07F18843D61F06EB860605FA3F
:1008400006F10843206310E0E06AA2F10D0606EB12
:1008500086071F2606FA07F18843A2F10D0606EB6C
:10086000860605FA06F10843E062F0BD816841F0B2
:1008700080418160704700001CB50121082002F012
:100880000BFB4FF48060009001208DF804000020E5
:100890008DF806008DF8070002208DF805006946E6
:1008A000014801F041FE1CBD000C024010B501F0F2
:1008B0008BFF01F071FFFFF7E1FEFFF7DDFF02F0B4
:1008C0000FFD01F095FD4FF4E13003F0D5FA4FF440
:1008D000E13003F017FC4FF4E13002F091FB4FF4EC
:1008E000E13003F021F9532140F2F31002F0D6FF7A
:1008F00010BD000010B5BF48007880B902F0BAFA08
:10090000BD480068801C002808D1BA480078401C07
:10091000B84908704FF0FF30B749086031E1B54879
:10092000007801280ED102F08FFEB448007801282B
:10093000F4D1B0480078401CAE4908700020AF499F
:1009400008701EE1AB48007802282ED1AC48006840
:10095000C0F57A50A0F5FA6042F688410844A849EB
:100960000860084690ED021AB8EEC11AF0EE410A8E
:1009700090ED001AB8EEC11AB0EE410A01F0E8FE9F
:10098000A04800780128C9D19F4800780128C5D126
:1009900098480078401C97490870002099490870D1
:1009A0009949087099490870EBE09248007803284B
:1009B00018D19348D0ED040AF8EEE00AB0EE600AD0
:1009C00001F0E8FC924800780128A7D18948007816
:1009D000401C8849087000208D49087001208D490D
:1009E0000860CEE083480078042811D101F00BFEA6
:1009F00088480068022891D17E480078401C7D49D3
:100A00000870002083490860012080490870B8E020
:100A10007848007805280ED102F000FE774800786B
:100A200001288ED173480078401C7249087000205C
:100A300072490870A5E06F480078062818D1DFEDEC
:100A4000760A9FED760A01F083FE6E480078012851
:100A5000AAD16D4800780128A6D166480078401CCC
:100A6000644908700020674908706749087088E089
:100A700060480078072811D101F090F964480078A7
:100A800001287ED15B480078401C5A49087000203C
:100A90005F49087001206249086072E0554800789B
:100AA00007280ED101F0B3FD5D480068022868D127
:100AB00050480078401C4F49087000205849086091
:100AC0005FE04C48007808280ED102F091FD4B48B9
:100AD0000078012855D147480078401C45490870E6
:100AE0000020464908704CE042480078092818D197
:100AF000DFED4C0A9FED4C0A01F02AFE41480078D8
:100B000001283ED14048007801283AD13948007880
:100B1000401C3849087000203A4908703A4908706A
:100B20002FE0344800780A2810D19FED400A01F0E8
:100B300017FC37480078012823D12E480078401C44
:100B40002C4908700020324908701AE029480078C2
:100B50000B2816D102F07CF935480068801C80B95A
:100B60003448007D00F0870040F0400031490875AE
:100B70004FF0FF302E49086000202F4908702F49A0
:100B800008702048007802280FD01F4800780228FB
:100B90000BD01F480078022807D018480078022898
:100BA00003D027480078042822DD02F051F92048BC
:100BB0000068801CE0B90F480078224908701D4881
:100BC000007D00F0F0001B4908754FF0FF30184918
:100BD00008600020074908700A4908700A4908702F
:100BE0000B490870054908701349087013490870CB
:100BF00010BD000048030020600000206B020020B0
:100C00006C03002068020020690200207C020020A2
:100C10006A020020800200200080894500C08F45C4
:100C20008802002000007A4500E0F6450080D444A8
:100C3000640000208C0A00202400002025000020F1
:100C4000B10200209002002010B5FA480078002878
:100C500033D1F948007878B902F00CF9F748006808
:100C6000801C20BBF3480078401CF24908704FF00C
:100C7000FF30F24908601AE0EF480078012816D1E9
:100C8000EC490978491CC8B200F084FBEC480078B4
:100C900001280CD10020EB494875E6480078401C3B
:100CA000E44908700020E4490870E5490870E54807
:100CB000007DF120E3490875B3E2DE4800780128A1
:100CC0002DD1DD48007870B902F0BEFCDE48007816
:100CD0000128F1D1D7480078401CD649087000207F
:100CE000D94908709DE2D44800780128E4D1D1495F
:100CF0000978491CC8B200F04DFBD14800780128A2
:100D0000DAD10020CF494875CA480078401CC9494B
:100D100008700020C8490870C949087081E2C548B8
:100D20000078022850D1C448007870BBC7480068DA
:100D3000C0F57A50A0F5FA6042F688410844C349EC
:100D40000860084690ED021AB8EEC11AF0EE410AAA
:100D500090ED001AB8EEC11AB0EE410A01F0F8FCAD
:100D6000BB4800780128A7D1BA4800780128A3D150
:100D7000B0480078401CAF4908700020B6490870A0
:100D8000B3490870B34908704BE2FFE7AA480078FE
:100D9000012891D1A7490978491CC8B200F0FAFA94
:100DA000A7480078012887D10020A6494875A148A6
:100DB0000078401C9F49087000209F490870A64990
:100DC00008709F4908702CE29A48007803283BD1AC
:100DD00099480078C0B99D48D0ED040AF8EEE00AC1
:100DE000B0EE600A01F0D6FA9C480078012895D14F
:100DF00090480078401C8F4908700120984908608D
:100E00000020964908700CE28B480078012885D1B3
:100E100088490978491CC8B200F0BCFA88480078B3
:100E20000128B1D100208749487582480078401CCC
:100E300080490870002080490870012088490860B6
:100E400000207F490870ECE17A480078042834D10A
:100E50007948007888B901F0D6FB814800680228FB
:100E600092D174480078401C7249087001207A4978
:100E7000087000207A490860D3E16F4800780128A3
:100E8000A1D16C490978491CC8B200F083FA6C48BA
:100E90000078012897D100206A4948756548007894
:100EA000401C6449087000206349087001206A49A9
:100EB0000870002062490870B3E15E480078052898
:100EC0002DD15D48007870B902F0A8FB5E4800782B
:100ED000012898D157480078401C564908700020D6
:100EE000594908709DE15448007801288BD1514937
:100EF0000978491CC8B200F04DFA51480078012821
:100F0000A1D100204F4948754A480078401C494902
:100F100008700020484908704949087081E1454837
:100F20000078062837D144480078C0B9DFED4D0A73
:100F30009FED4D0A01F00CFC4548007801289BD13B
:100F400044480078012897D13A480078401C394934
:100F5000087000203E4908703E49087061E136483B
:100F60000078012888D133490978491CC8B200F0BB
:100F700011FA3348007801289ED100203149487584
:100F80002C480078401C2B49087000202A49087022
:100F90002B49087045E127480078072833D12648B7
:100FA000007888B900F0FAFE2C480078012899D121
:100FB00020480078401C1F49087001202B49086018
:100FC0000020264908702CE11B480078012889D1AF
:100FD00018490978491CC8B200F0DCF918480078B3
:100FE00001289BD100201749487512480078401C01
:100FF0001049087001201D49086000200E49087042
:101000000F4908700DE10B48007807284CD10A48B9
:10101000007870B901F0FBFA1448006802289DD1ED
:1010200004480078401C0349087000200F490860FC
:10103000F7E01DE0490300204A0300206000002083
:101040004B0300208C0A00206B0200206C03002060
:1010500068020020690200207C0200206A02002051
:10106000800200200080894500C08F458802002052
:101070008848007801288DD187490978491CC8B271
:1010800000F088F98548007801289CD10020844927
:10109000487581480078401C7F49087000207D49D0
:1010A00008707E490870BCE07B48007808282DD184
:1010B0007848007870B902F09BFA7A4800780128E5
:1010C000A0D175480078401C73490870002075490C
:1010D0000870A6E06F480078012893D16E4909781E
:1010E000491CC8B200F056F96C48007801280CD1B0
:1010F00000206B49487568480078401C66490870B4
:10110000002064490870654908708AE062480078E8
:10111000092837D15F480078C0B9DFED630A9FED39
:10112000630A01F015FB62480078012879D1614813
:101130000078012875D158480078401C564908703D
:1011400000205B4908705B4908706AE051480078EC
:10115000012866D150490978491CC8B200F01AF933
:101160004E48007801285CD100204D4948754A4816
:101170000078401C484908700020464908704749DB
:1011800008704EE0444800780A282FD14148007882
:1011900080B99FED490A01F0E3F84848007801283A
:1011A0003FD13D480078401C3B490870002043492E
:1011B000087036E037480078012832D1364909787E
:1011C000491CC8B200F0E6F834480078012828D15C
:1011D00000203349487530480078401C2E4908707B
:1011E00000202C4908702D4908701AE02A48007820
:1011F0000B2816D101F02CFE31480068801C80B904
:101200002748007D00F0870040F040002449087521
:101210004FF0FF302A49086000202A4908702A4907
:1012200008702348007802280FD02248007802284E
:101230000BD022480078022807D01A4800780228EC
:1012400003D022480078042822DD01F001FE1C486A
:101250000068801CE0B9104800781D4908701048EB
:10126000007D00F07F000E4908754FF0FF301449F3
:1012700008600020084908700D4908700D49087081
:101280000E490870074908700E4908700E49087029
:1012900010BD00004A030020490300204B0300203A
:1012A0008C0A00206B02002000007A4500E0F64521
:1012B00068020020690200200080D4446A020020F5
:1012C000640000202400002025000020B10200203E
:1012D0009002002000BFFEE770B502460C46FF25D5
:1012E000FF2309E012F8010B80EA03010648405C85
:1012F00080EA05030548455C201EA4F10106F4B20E
:10130000F0D145EA032070BD68000020680100208C
:1013100010B51448007D00F0870040F038001149F6
:10132000087511480068002809DB0F48006832285A
:1013300005DC4FF400410D4801F061F911E00A4865
:101340000068322809DB084800683C2805DC4FF4B7
:101350000041064801F055F903E06FF00100024931
:10136000086010BD8C0A00208002002000040240AA
:1013700010B507480068401C10B9002004490860F7
:1013800003480068002801DBFFF7C2FF10BD000022
:101390008002002001494875704700008C0A002037
:1013A00000B58FB00121880501F076FD174800F0E7
:1013B0003FF800BF154800F0E7F80028FAD1009088
:1013C00013480190134802900020039002200490DB
:1013D000002005904FF48060069040000790089030
:1013E000C010099040020A9000200B9001200C9040
:1013F00000200D900E906946044800F0F1F801219C
:10140000024800F009F80FB000BD0000106402406F
:101410004C2001404A00002021B1026842F0010244
:10142000026003E0026822F00102026070470000DF
:10143000016821F0010101600021016041608160CB
:10144000C1600161212141614A49884204D13D21A5
:10145000484A103A91608CE046491831884205D1DB
:101460004FF47461434A103A916082E0414930314F
:10147000884205D14FF474113E4A103A916078E0E9
:101480003C494831884205D14FF07461394A103ADD
:1014900091606EE037496031884204D13649354A5F
:1014A000103AD16065E033497831884204D133493C
:1014B000304A103AD1605CE02E499031884204D124
:1014C0002F492C4A103AD16053E02A49A83188426A
:1014D00005D14FF03D51274A103AD16049E02949E2
:1014E000884204D13D21274A083A116041E025494C
:1014F0001831884205D14FF47461224A083A1160CC
:1015000037E020493031884205D14FF474111D4A2B
:10151000083A11602DE01B494831884205D14FF04F
:101520007461184A083A116023E016496031884214
:1015300004D11149134A121F11601AE01149783180
:10154000884204D10D490F4A121F116011E00D4964
:101550009031884204D10A490A4A121F116008E0FA
:101560000849A831884204D14FF03D51054A121F65
:1015700011607047106002403D000020400F0020C5
:1015800000003D2010640240014600200A6802F07D
:1015900001020AB1012000E00020704701464868BE
:1015A00080B2704710B501F080034BB122B143699E
:1015B00043F08003436103E0436923F08003436108
:1015C00080290BD02AB1036801F01E042343036075
:1015D00004E0036801F01E04A343036010BD000093
:1015E00010B500220268134B1A40CC680B682343E5
:1015F0004C6923438C692343CC6923430C6A2343FE
:101600004C6A23438C6A23434C6B23438C6B2343E8
:101610001A430260426922F00702D1E90B342343E6
:101620001A4342610B6943604B6883608B68C360F7
:1016300010BD00003F801CF04160704770B52DED7B
:10164000068B05460C469FED4B0AB0EE408A9FED97
:10165000490AF0EE408A9FED470AB0EE409A9FEDAE
:10166000450AF0EE409A9FED430AB0EE40AA002DE5
:1016700045D1012C3ED1404890ED040AD0ED0C0A32
:1016800030EE600AF0EE408A90ED050AD0ED0D0ACA
:1016900030EE600AB0EE409A90ED060AD0ED0E0AE8
:1016A00030EE600AF0EE409AF5EEC08AF1EE10FAE4
:1016B0000FD1B5EEC09AF1EE10FA0AD1F5EEC09A4C
:1016C000F1EE10FA05D100202C49087001F096FEC9
:1016D00002E0012029490870274890ED040A80EDB6
:1016E0000C0A90ED050A80ED0D0A90ED060A80EDDA
:1016F0000E0A3BE0ACBB002001F0B4FE36E0012D49
:1017000034D1012C2ED11C4890ED000AD0ED080AEE
:1017100030EE600AB0EE408A90ED070AD0ED0F0A75
:1017200030EE600AB0EE40AAB5EEC08AF1EE10FAD3
:101730000BD1B5EEC0AAF1EE10FA06D10020104987
:101740000870012001F05AFE02E001200C490870E7
:10175000094890ED000A80ED080A90ED070A80ED37
:101760000F0A03E014B9012001F07CFEBDEC068BEA
:1017700070BD000000000000140A00206C02002070
:101780006D0200207047000010B52DED028BB0EE09
:10179000408A00241A4890ED000AB8EEC00A38EEDC
:1017A000400ABDEEC00A10EE104A006815490860F4
:1017B000B4F5967F11DD1248006800280DDD12484F
:1017C000007D00F0870040F030000F4908754FF4AD
:1017D00000510E4800F013FF0EE0B4F5967F0BDACF
:1017E00007480068002807DD4FF40051074800F063
:1017F00008FF012006490870BDEC028B10BD0000F7
:10180000740A0020400300208C0A002000040240DB
:101810006A02002070B52DED028BB0EE408A0025E3
:101820000024AC4890ED000AB8EEC00A38EE400A39
:10183000BDEEC00A10EE105A0068A74908609FED7F
:10184000A70AB4EEC08AF1EE10FA24D2B5F5967F5D
:1018500011DDA048006800280DDDA148007D00F0E2
:10186000870040F030009E4908754FF400519D48B4
:1018700000F0C5FE2AE1B5F5967FFBDA95480068D1
:101880000028F7DD4FF40051964800F0BAFE012021
:10189000954908701AE19FED910AB4EEC08AF1EE05
:1018A00010FAE7DDB5F57A7F3BDD8A48006800284D
:1018B00037DD8E48007880BB4FF40051894800F036
:1018C0009EFE8B4890ED000AB5EEC00AF1EE10FACC
:1018D00024DD88480078401C864908700846007856
:1018E00064281EDD012081490870002081490870AC
:1018F0007F4890ED000A80ED080AD0ED000A754897
:1019000090ED000AB8EEC00A38EE400A30EEC00A88
:10191000BDEEC00A784880ED000A02E0002075495B
:101920000870724800780128A4D1714890ED000A2F
:10193000B5EEC00AF1EE10FA1CD2704800786428A7
:101940000ADA6E480078401C6C490870684890EDCF
:10195000080A80ED000A18E04FF40051614800F0D9
:1019600050FE0020654908706049087002205E49F9
:1019700008700AE05E4890ED000AB5EEC00AF1EE8C
:1019800010FA02DD00205D4908705948D0ED000AC8
:10199000594890ED000AB8EEC00A30EEC00ABDEE1C
:1019A000C00A10EE104A524890ED000A80ED080A75
:1019B000002C01DA604200E02046B0F57A7F7DDA43
:1019C000C82C06DD00EE104AB8EEC00A03F044FA57
:1019D0000EE04FF40051434800F013FE002043494D
:1019E0000870474908704749086001203E4908705F
:1019F000384890ED030AB5EEC00AF1EE10FA04D2B1
:101A000090ED030AB1EE400A02E0324890ED030A7D
:101A1000F2EE040AB4EEE00AF1EE10FA16DC2D48FC
:101A200090ED040AB5EEC00AF1EE10FA04D290ED82
:101A3000040AB1EE400A02E0264890ED040AF2EEF4
:101A4000040AB4EEE00AF1EE10FA0EDD4FF4005194
:101A5000244800F0D6FD0020244908702849087069
:101A60002849086001202049087027480068201A8A
:101A700003D525480068001B02E023480068201AAF
:101A800032281EDA1B480078401C1A4908700846A4
:101A90000078642818DD4FF40051124800F0B1FDC1
:101AA000002014490870114908701549087015493B
:101AB00008601049087001200B4900E006E008703A
:101AC00002E000200B4908700F480460BDEC028B57
:101AD00070BD0000740A00200003002000409C46F6
:101AE0008C0A0020000402406A0200201803002033
:101AF000140A00201003002014030020110300200A
:101B000075020020780200200803002070B52DED3A
:101B1000028BB0EE408A00250024934890ED000A25
:101B2000B8EEC00A38EE400ABDEEC00A10EE105AF8
:101B300000688E4908609FED8E0AB4EEC08AF1EE0F
:101B400010FA24D2B5F5FA7F11DD87480068002825
:101B50000DDD8848007D00F0870040F030008549A9
:101B600008754FF40051844800F049FDF9E0B5F5DF
:101B7000FA7FFBDA7C4800680028F7DD4FF400515B
:101B80007D4800F03EFD01207C490870E9E09FEDB2
:101B9000780AB4EEC08AF1EE10FAE7DDB5F5FA7F07
:101BA0003BDD71480068002837DD7548007880BB50
:101BB0004FF40051704800F022FD724890ED000A89
:101BC000B5EEC00AF1EE10FA24DD6F480078401C33
:101BD0006D4908700846007864281EDD01206849B8
:101BE0000870002068490870664890ED000A80ED92
:101BF000080AD0ED000A5C4890ED000AB8EEC00A71
:101C000038EE400A30EEC00ABDEEC00A5F4880EDF3
:101C1000000A02E000205C49087059480078012859
:101C2000A4D1584890ED000AB5EEC00AF1EE10FAC2
:101C30001CD25748007864280ADA55480078401CBE
:101C4000534908704F4890ED080A80ED000A18E0EB
:101C50004FF40051484800F0D4FC00204C49087073
:101C6000474908700220454908700AE0454890ED50
:101C7000000AB5EEC00AF1EE10FA02DD0020444978
:101C800008704048D0ED000A404890ED000AB8EED8
:101C9000C00A30EEC00ABDEEC00A10EE104A394844
:101CA00090ED000A80ED080A002C01DA604200E0A5
:101CB0002046B0F5FA7F54DAC82C06DD00EE104A53
:101CC000B8EEC00A03F0C8F80EE04FF400512A48FD
:101CD00000F097FC00202A4908702E4908702E4910
:101CE00008600120254908701F4890ED030AB5EEF1
:101CF000C00AF1EE10FA04D290ED030AB1EE400AE8
:101D000002E0194890ED030AF2EE040AB4EEE00A8C
:101D1000F1EE10FA16DC144890ED040AB5EEC00A94
:101D2000F1EE10FA04D290ED040AB1EE400A02E09E
:101D30000D4890ED040AF2EE040AB4EEE00AF1EE6A
:101D400010FA0EDD4FF400510B4800F05AFC002051
:101D50000B4908700F4908700F49086001200749B6
:101D60000870BDEC028B70BD740A002020030020B7
:101D70000000FA448C0A0020000402406A0200209D
:101D800038030020140A0020300300203403002010
:101D900031030020750200207802002010B50748AA
:101DA0000078012808D10648007820B99FED050A7F
:101DB00000F00AF800E000BF10BD00006D02002036
:101DC0006A02002000409C4510B52DED028BF0EE1C
:101DD000408A9FEDA50AB0EE408AA4480078E8BB8F
:101DE000A348007D00F0870040F03000A04908754E
:101DF000A04890ED070AB5EEC00AF1EE10FA14DD26
:101E000090ED070ADFED9C0AB4EEE00AF1EE10FA5D
:101E10000BD290ED000AB5EEC00AF1EE10FA04D232
:101E20004FF40051954800F0EAFB924890ED070A04
:101E3000B5EEC00AF1EE10FA1DD290ED000AB5EE33
:101E4000C00AF1EE10FA16DD8D480078401C8C496E
:101E500008700846007864280CDD00E00FE00120DF
:101E600082490870002086490870824890ED000A77
:101E700080ED080AF5E0002081490870F1E07B4818
:101E800000780128F6D17B4890ED000AB5EEC00A33
:101E9000F1EE10FA19D27B48007864280ADA794802
:101EA0000078401C77490870724890ED080A80ED70
:101EB000000A0AE04FF40051704800F0A2FB002035
:101EC000704908700220704908706A4890ED000A55
:101ED00030EE680AB0EE408A90ED000A80ED080A04
:101EE000B5EEC08AF1EE10FA02D2B1EE480A01E076
:101EF000B0EE480ADFED650AB4EEE00AF1EE10FA42
:101F00000ADDB5EEC08AF1EE10FAB3DB4FF40051F2
:101F10005A4800F074FBA4E0B5EEC08AF1EE10FA66
:101F200002D2B1EE480A01E0B0EE480ADFED570AEE
:101F3000B4EEE00AF1EE10FA7DD29FED550AB4EE50
:101F4000C08AF1EE10FA04DDB0EE480A02F084FF18
:101F50000CE04FF40051494800F053FB00204D497C
:101F600008704D4908600120474908704B4890EDC2
:101F7000030AB5EEC00AF1EE10FA04D290ED030A9E
:101F8000B1EE400A02E0454890ED030AF2EE040A81
:101F9000B4EEE00AF1EE10FA16DC404890ED040AC7
:101FA000B5EEC00AF1EE10FA04D290ED040AB1EEDB
:101FB000400A02E0394890ED040AF2EE040AB4EE59
:101FC000E00AF1EE10FA0CDD4FF400512B4800F05E
:101FD00018FB00202F4908702F49086001202A496A
:101FE00008702F4890ED000A38EE400AB5EEC00A9E
:101FF000F1EE10FA06D290ED000A38EE400AB1EE8A
:10200000400A04E0264890ED000A38EE400ADFED71
:10201000250AB4EEE00AF1EE10FA1CD21848007856
:10202000401C1749087008460078642816DD4FF4F4
:102030000051124800E014E000F0E3FA00201049DB
:10204000087014490870144908600D49087001208F
:102050000D49087002E0002009490870104880ED21
:10206000008ABDEC028B10BD000000007C02002045
:102070008C0A0020140A00200010A446000402402C
:10208000E4020020E50200206A02002000007A44F9
:10209000000048437502002078020020740A0020E6
:1020A000E00200200000484210B52DED028BF0EE5A
:1020B000408A9FED9B0AB0EE408A9A4890ED000A54
:1020C000B5EEC00AF1EE10FA1DD290ED080A80EDCF
:1020D000000A954800780A280ADA93480078401CDC
:1020E000914908708F4890ED080A80ED000A0AE0D7
:1020F0004FF480518D4800F084FA00208A4908701E
:1021000002208B490870874890ED000A30EE680A7B
:10211000B0EE408A90ED000A80ED080A8548007D07
:1021200000F0870040F0300082490875B5EEC08AA3
:10213000F1EE10FA02D2B1EE480A01E0B0EE480A20
:10214000DFED7D0AB4EEE00AF1EE10FA12DD75481B
:1021500090ED000AB5EEC00AF1EE10FA0ADDB5EE18
:10216000C08AF1EE10FA04DB4FF400516F4800F022
:1021700046FAD2E0B5EEC08AF1EE10FA02D2B1EE24
:10218000480A01E0B0EE480ADFED6B0AB4EEE00A5F
:10219000F1EE10FAEDD2634890ED000AB5EEC00AF8
:1021A000F1EE10FAE5DD9FED650AF4EEC08AF1EE7E
:1021B00010FA19D29FED620AB4EEC08AF1EE10FA5D
:1021C00004DDB0EE480A02F047FE2DE04FF4005166
:1021D000564800F016FA00205A4908705A4908601B
:1021E00001205A4908701FE09FED540AF4EEC08A9E
:1021F000F1EE10FA18DDB5EEC08AF1EE10FA02D257
:10220000B1EE480A01E0B0EE480ADFED4D0AB4EE47
:10221000E00AF1EE10FA07D24FF40051434800F003
:10222000F0F9012049490870494890ED030AB5EEDC
:10223000C00AF1EE10FA04D290ED030AB1EE400AA2
:1022400002E0434890ED030AF2EE040AB4EEE00A1D
:10225000F1EE10FA16DC3E4890ED040AB5EEC00A25
:10226000F1EE10FA04D290ED040AB1EE400A02E059
:10227000374890ED040AF2EE040AB4EEE00AF1EEFB
:1022800010FA0CDD4FF40051284800F0BAF9002094
:102290002C4908702C49086001202C4908702D48F1
:1022A00090ED000A38EE400AB5EEC00AF1EE10FAE1
:1022B00006D290ED000A38EE400AB1EE400A04E082
:1022C000244890ED000A38EE400ADFED230AB4EE10
:1022D000E00AF1EE10FA1AD220480078401C1F499B
:1022E000087008460078642814DD4FF400510F4848
:1022F00000F087F900201949087012490870124946
:1023000008601649087001201049087002E000209A
:10231000124908700F4880ED008ABDEC028B10BD99
:1023200000000000140A0020ED020020000402401A
:102330006B0200208C0A00200000FA430000C84411
:102340000000484375020020780200206A02002045
:10235000740A0020E802002000004842EC0200203D
:1023600010B52DED028BB0EE408A084800780128A8
:1023700008D10748007820B9B0EE480AFFF794FE6C
:1023800000E000BFBDEC028B10BD00006D0200201C
:102390006A02002010B52DED028BB0EE408A08488D
:1023A0000078012808D10748007820B9B0EE480A23
:1023B000FFF70AFD00E000BFBDEC028B10BD00007E
:1023C0006D0200206A02002010B54FF4006000F09A
:1023D00055F818B14FF4006000F04AF84FF48050FF
:1023E00000F04CF818B14FF4805000F041F810BDE7
:1023F00000B585B00121082000F04EFD4FF4C0501B
:10240000039000208DF8100002208DF8110003A920
:10241000164800F089F80121880300F05DFD0B21CA
:10242000032001F029F90C21032001F025F94FF4D4
:10243000C050009000208DF8040008208DF80500A1
:1024400001208DF80600684600F024F828208DF859
:10245000080000208DF809008DF80A0001208DF891
:102460000B0002A800F086FC05B000BD000C024085
:102470000149086070470000143C014001460020FB
:10248000034A12680A400AB1012000E000207047A8
:10249000143C0140002123498279002A3AD00A469F
:1024A000126803689A430B461A600A1D1268036893
:1024B0009A430B1D1A60027911440A6803681A4393
:1024C0000A60184A0832126803689A43154B0833A9
:1024D0001A601A1D126803689A43124B0C331A6073
:1024E0004279102A0ED11A1F126803681A430D4B45
:1024F00008331A601A1D126803681A43094B0C331B
:102500001A600DE00749427911440A6803681A43CA
:102510000A6005E0027911440A6803689A430A6078
:1025200070470000003C0140F0B50A46002100233E
:10253000002400BF3DE0012505FA01F3156805EA16
:1025400003049C4234D105684F000326BE40B543C6
:10255000056015794E00B54006683543056015796C
:10256000012D02D01579022D16D185684F00032662
:10257000BE40B543856055794E00B5408668354309
:102580008560456801268E40B5434560456896796B
:102590008E40B6B235434560C5684F000326BE4045
:1025A000B543C560D5794E00B540C6683543C560B2
:1025B000491C1029BFD3F0BDF0B5002300244D07FE
:1025C000ED0E02FA05F3CE1000F1200555F8265065
:1025D0004E07F70E0F26BE40B543CF1000F1200680
:1025E00046F82750CE1000F1200555F8265045EA50
:1025F0000304CE1000F1200545F82640F0BD4183CC
:1026000070470183704710B5FEF7B2FE10BD10B5DC
:1026100000F0E2FE10BD00BFFEE7000010B52DED9A
:10262000028BF0EE408AB0EE608A4448007840B9F0
:102630000020434908704349086001203F49087061
:1026400078E03E480078012838D13F4800680A28E1
:102650002BDAF5EEC08AF1EE10FA05DD4FF40061D9
:102660003A48FFF7CCFF65E0F5EEC08AF1EE10FACC
:1026700005D24FF480613548FFF7C1FF5AE0B5EE4F
:10268000C08AF1EE10FA05DD4FF480712F48FFF794
:10269000B6FF4FE0B5EEC08AF1EE10FA4AD24FF421
:1026A00000712A48FFF7ABFF44E024480078401C43
:1026B000224908700020244908603BE01F48007848
:1026C000022837D1204800680A282BDAF5EEC08AA4
:1026D000F1EE10FA05DD4FF400611C48FFF791FFA1
:1026E00028E0F5EEC08AF1EE10FA05D24FF48061D1
:1026F0001648FFF786FF1DE0B5EEC08AF1EE10FA2E
:1027000005DD4FF480711148FFF77BFF12E0B5EE55
:10271000C08AF1EE10FA0DD24FF400710B48FFF7AA
:1027200070FF07E005480078401E0449087000204B
:1027300005490860BDEC028B10BD00007502002049
:102740006E0200207002002078020020001002407B
:1027500010B52DED028BF0EE408AB0EE608A0B488A
:10276000007801280ED10A48007820B9B0EE680A36
:1027700002F0BEFB06E00748007818B9B0EE480A40
:1027800002F0DCFCBDEC028B10BD00006C020020EE
:1027900068020020690200201CB50121102000F011
:1027A0007BFB3820009000208DF8040001208DF87C
:1027B000070002208DF8050069460248FFF7B4FEC5
:1027C0001CBD0000001002401CB50121084600F0AD
:1027D00063FB0820009001208DF8040000208DF894
:1027E00006008DF8070002208DF8050069460248B2
:1027F000FFF79AFE1CBD00000000024010B5FEF776
:10280000B7FD0B480068801C88B90A48007D00F0BD
:10281000870040F048000749087500200649087005
:102820000649087006490870401E0649086010BD38
:10283000800200208C0A0020450300202400002094
:10284000250000208802002010B52DED028BB0EE8F
:10285000408A20480078012838D11F480068801C31
:10286000002833D11D48007820B9B0EE480AFEF7A1
:102870008BFF2BE019480078012811D1002018495E
:1028800008701849087018490870144908701748EA
:10289000007D00F0870040F048001449087515E0FD
:1028A0000E480078022811D10120114908700F4804
:1028B000007D00F07F000D49087500200849087070
:1028C000084908700849087004490870BDEC028B7B
:1028D00010BD00006D020020600000206A02002090
:1028E0004503002024000020250000208C0A002041
:1028F0004603002010B52DED028BB0EE408A204833
:102900000078012838D11F480068801C002833D186
:102910001D48007820B9B0EE480AFFF7F7F82BE021
:1029200019480078012811D1002018490870184969
:10293000087018490870144908701748007D00F0A5
:10294000870040F048001449087515E00E480078EB
:10295000022811D10120114908700F48007D00F0B4
:102960007F000D4908750020084908700849087063
:102970000849087004490870BDEC028B10BD0000C6
:102980006D020020600000206A0200204503002044
:1029900024000020250000208C0A0020460300208F
:1029A00010B52DED028BB0EE408A1B48007801284F
:1029B0002FD11A480068801C58BB1948007820B9EC
:1029C000B0EE480AFEF726FF23E0154800780128FC
:1029D00009D1002013490870134908701349087081
:1029E0000F49087015E00E480078022811D1012027
:1029F0000F4908700F48007D00F07F000D490875F1
:102A000000200849087008490870084908700449FE
:102A10000870BDEC028B10BD6D020020600000202C
:102A20006A02002045030020240000202500002029
:102A3000460300208C0A002010B500F0CDFC0B48A6
:102A40000068801C88B90A48007D00F0870040F0CB
:102A500048000749087500200649087006490870B3
:102A600006490870401E0649086010BD8802002013
:102A70008C0A0020450300202400002025000020AF
:102A80008002002010B500F0E3F90B480068801CBC
:102A900088B90A48007D00F0870040F070000749BF
:102AA0000875002006490870064908700649087034
:102AB000401E0649086010BD640000208C0A0020FA
:102AC0002400002025000020450300206000002095
:102AD00010B500F0CFF90B480068801C88B90A488F
:102AE000007D00F0870040F068000749087500206D
:102AF000064908700649087006490870401E0649D4
:102B0000086010BD600000208C0A00202400002016
:102B100025000020450300206400002010B52DEDA5
:102B2000028BB0EE408A20480078012838D11F4837
:102B30000068801C002833D11D48007820B9B0EE11
:102B4000480A00F03BFB2BE019480078012811D11E
:102B5000002018490870184908701849087014496D
:102B600008701748007D00F0870040F048001449C5
:102B7000087515E00E480078022811D1012011498E
:102B800008700F48007D00F07F000D490875002097
:102B90000849087008490870084908700449087015
:102BA000BDEC028B10BD00006D0200206000002013
:102BB0006B02002045030020240000202500002097
:102BC0008C0A00204603002010B52DED028BB0EEDC
:102BD000408A28480078012848D127480068801C8E
:102BE000002843D12548007820B9B0EE480A02F009
:102BF0007FF93BE021480078012815D100202049C9
:102C00000870204908701D4908701F4908701F4945
:102C100008701F4908701F48007D00F0870040F0D1
:102C200048001C49087521E01448007802281DD18D
:102C300000F00EF90120184908701648007D00F0D8
:102C40007F001449087515480068801C70B94FF062
:102C5000FF300949086011490860002008490870E0
:102C6000084908700849087004490870BDEC028BD7
:102C700010BD00006C0200206000002068020020EF
:102C800045030020240000202500002075020020BC
:102C90006E0200208C0A0020460300206400002001
:102CA00010B52DED028BB0EE408A00F0E3F8264817
:102CB0000078012844D125480068801C00283FD1B5
:102CC0002348007820B9B0EE480A02F037FA37E01E
:102CD0001F480078012811D100201E4908701E49A4
:102CE00008701E4908701A4908701D48007D00F0E0
:102CF000870040F048001A49087521E01448007820
:102D000002281DD100F0A4F80120164908701448CB
:102D1000007D00F07F001249087513480068801C90
:102D200070B94FF0FF30094908600F490860002072
:102D30000849087008490870084908700449087073
:102D4000BDEC028B10BD00006C0200206000002072
:102D500069020020450300202400002025000020F7
:102D60008C0A0020460300206400002000BFFEE71C
:102D70007047000070B5002100230F22C4781CB3F7
:102D8000174C246804F4E064C4F5E064C4F307213C
:102D9000C1F10404E3B20A4144789C40E1B2847872
:102DA000144021430C07210E0E4C05786155047820
:102DB00004F01F050124AC4005786D11AD0005F14C
:102DC000E025C5F8004109E0047804F01F0501245E
:102DD000AC40054D0678761145F8264070BD0000E0
:102DE0000CED00E000E400E080E100E010B51448E4
:102DF000007D00F0870040F040001149087511483F
:102E00000068002809DB0F480068322805DC4FF411
:102E100080410D48FFF7F3FB11E00A4800683228B3
:102E200009DB084800683C2805DC4FF4804106486F
:102E3000FFF7E7FB03E06FF001000249086010BDF7
:102E40008C0A002088020020000402407047000025
:102E500010B507480068401C10B9002004490860FC
:102E600003480068002801DB00F0EEF910BD000007
:102E70006400002010B507480068401C10B900200D
:102E80000449086003480068002801DB00F002FAEA
:102E900010BD00006000002029B1064A12680243FC
:102EA000044B1A6004E0034A12688243014B1A6023
:102EB000704700003038024029B1064A12680243C8
:102EC000044B1A6004E0034A12688243014B1A6003
:102ED000704700004038024029B1064A1268024398
:102EE000044B1A6004E0034A12688243014B1A60E3
:102EF000704700004438024029B1064A1268024374
:102F0000044B1A6004E0034A12688243014B1A60C2
:102F10007047000024380240F0B500210022002450
:102F2000022500260223324F3F6807F00C0121B131
:102F3000042905D0082937D105E02E4F076036E077
:102F40002D4F076033E02A4F3F1F3F68C7F380567D
:102F5000274F3F1F3F6807F03F036EB1264FB7FB77
:102F6000F3F7DFF88CC0ACF1040CDCF800C0CCF354
:102F7000881C07FB0CF40CE01E4FB7FBF3F7DFF8DF
:102F800070C0ACF1040CDCF800C0CCF3881C07FB6B
:102F90000CF4174F3F1F3F68C7F301477F1C7D00AC
:102FA000B4FBF5F7076002E0124F076000BF00BFF7
:102FB0000F4F3F6807F0F0010909104F7A5C07686E
:102FC000D74047600A4F3F6807F4E051890A0B4F2A
:102FD0007A5C4768D7408760054F3F6807F46041D7
:102FE000490B064F7A5C4768D740C760F0BD0000C8
:102FF000083802400024F40000127A001400002077
:103000001CB50446204601F093FA01210846FFF75B
:1030100043FF0620009001208DF8040000208DF869
:10302000060003208DF8050001208DF80700694691
:103030000448FFF779FA0020034908600349C1F802
:1030400088021CBD00000240840240420000404251
:1030500070B59AB000240025002600201990642144
:103060006846FDF7B4F8AA2050490870084602786F
:103070002146641C4E484254641C4C480279214647
:10308000641C4B484254494842792146641C4848D4
:103090004254464882792146641C4548425443487C
:1030A000027A2146641C424842544048427A2146F2
:1030B000641C3F4842543D48827A2046611CCCB291
:1030C0003B490A543948027B2046611CCCB238493E
:1030D0000A543648427B2046611CCCB234490A541B
:1030E0003248827B2046611CCCB231490A542F48B9
:1030F000027C2046611CCCB22D490A542B48427CEC
:103100002046611CCCB22A490A542848827C2046B9
:10311000611CCCB226490A542448C27C2046611C5A
:10312000CCB223490A542148427D2046611CCCB2CE
:103130001F490A541D48027D2046611CCCB21C491F
:103140000A54022508E01A48425D3046711CCEB28E
:103150000DF80020681CC5B2A542F4DB3146684674
:10316000FEF7BAF819909DF864202046611CCCB295
:103170000F490A549DF865202046611CCCB20C49C9
:103180000A54EE222046611CCCB209490A54084672
:1031900044700120074908600749C1F888022146A8
:1031A000034800F0F1FF1AB070BD00008C0A002047
:1031B000AF090020840240420000404210B52DEDCE
:1031C000028BB0EE408A00241A4890ED000AB8EE57
:1031D000C00A30EE480ABDEEC00A10EE104A006880
:1031E00015490860B4F57A7F11DD1248006800289F
:1031F0000DDD1248007D00F0870040F028000F49E7
:1032000008754FF480510E48FFF7F9F90EE0B4F558
:103210007A7F0BDA07480068002807DD4FF48051F9
:103220000748FFF7EEF9012006490870BDEC028B54
:1032300010BD0000740A0020F40200208C0A002057
:10324000000402406B02002010B5104800680028FE
:1032500009DB0E4800680F2805DC4FF400710C48AC
:10326000FFF7CDF911E0094800680F2809DB07488E
:1032700000681E2805DC4FF400710548FFF7C1F90E
:1032800003E06FF001000149086010BD64000020F8
:10329000000C024010B510480068002809DB0E48F9
:1032A00000680F2805DC4FF480710C48FFF7A7F980
:1032B00011E0094800680F2809DB074800681E284C
:1032C00005DC4FF480710548FFF79BF903E06FF0D0
:1032D00001000149086010BD60000020000C0240A0
:1032E0001CB501211A20FFF7D7FD4FF47040009064
:1032F00001208DF8040000208DF8060001208DF8D3
:10330000070002208DF8050069463048FFF70CF9E8
:103310004FF4E060009001208DF8040000208DF84B
:10332000060001208DF8070002208DF8050069468F
:103330002748FFF7F9F84FF47060009001208DF8EE
:10334000040000208DF8060001208DF807000220FF
:103350008DF8050069461F48FFF7E6F84FF48071C5
:103360001C48FFF74EF94FF400711A48FFF749F96E
:103370004FF480611748FFF744F94FF40061154896
:10338000FFF73FF94FF480511048FFF73AF94FF437
:1033900000510E48FFF735F94FF400410B48FFF795
:1033A00030F94FF480410948FFF72BF94FF4807151
:1033B0000748FFF726F94FF400710548FFF721F998
:1033C0004FF480610248FFF71CF91CBD0004024065
:1033D000000C02400010024010B507480068401C75
:1033E00010B900200449086003480068002801DB88
:1033F000FFF7FCFC10BD00008802002010B5044659
:1034000014B1012C06D102E000F008F803E000F04E
:1034100017F800E000BF00BF10BD000010B5002489
:1034200008E00121054802F04DFB44F6206002F05F
:103430002DFA641C052CF4DB10BD00004E000020AA
:1034400010B5002408E00121054802F04AFB44F6CB
:10345000206002F01BFA641C052CF4DB10BD000098
:103460005400002010B5044614B1012C06D102E02E
:1034700000F008F803E000F017F800E000BF00BF1C
:1034800010BD000010B5002408E00021054802F03E
:1034900019FB44F6206002F0F9F9641C052CF4DBFA
:1034A00010BD00004E00002010B5002408E00021EF
:1034B000054802F016FB44F6206002F0E7F9641CB0
:1034C000052CF4DB10BD00005400002010B52DEDDC
:1034D000028BB0EE408AB5EEC08AF1EE10FA3EDD06
:1034E0003F48007840B94FF400613E48FFF789F843
:1034F00001203B49087070E039480078012812D15A
:10350000394800680A2805DC4FF480613548FFF728
:1035100076F862E032480078401C3149087000209B
:103520003149086059E02E480078022855D12E48CC
:103530000068022805DC4FF480612A48FFF761F833
:103540004BE027480078401E254908700020264996
:10355000086026480078401C244908703DE0204857
:10356000007840B94FF480611E48FFF74AF8012007
:103570001B49087031E01A480078012812D11A4816
:1035800000680A2805DC4FF400611648FFF737F899
:1035900023E013480078401C1149087000201249AC
:1035A00008601AE00E480078022816D10E4800681C
:1035B000022805DC4FF400610A48FFF722F80CE00E
:1035C00007480078401E0649087000200649086038
:1035D00006480078401C05490870BDEC028B10BD00
:1035E0006E020020001002407002002074020020D1
:1035F00010B507480078012808D10648007820B99E
:103600009FED050A01F086F900E000BF10BD000043
:103610006D0200206B02002000803B4510B507487A
:103620000078012808D10648007820B99FED050AE6
:1036300001F042FA00E000BF10BD00006D02002062
:103640006B02002000803B4510B507480078012838
:1036500008D10648007820B99FED050A01F028FB43
:1036600000E000BF10BD00006D0200206B020020D2
:1036700000803B457047000030B500228B071C0FCF
:103680000F2303FA04F20B4B8C1053F824309343AE
:10369000084C8D1044F8253023468C1053F8243004
:1036A0008C07240F00FA04F42343024C8D1044F8D5
:1036B000253030BD083801400CB500200190009045
:1036C0003448006840F480303249086000BF314817
:1036D000006800F4003000900198401C01900098B0
:1036E00018B90198B0F5A04FF1D12A48006800F44C
:1036F000003010B10120009001E0002000900098FF
:10370000012846D123484030006840F080502149CC
:10371000403108602048006840F440401E4908607D
:103720001C48083000681B490831086008460068DA
:1037300040F4004008600846006840F4A05008606B
:103740001648091F0860081F006840F08070091FB4
:10375000086000BF0F48006800F000700028F9D032
:1037600040F205700E4908600A480830006820F0F1
:1037700003000849083108600846006840F002006C
:10378000086000BF03480830006800F00C000828FB
:10379000F8D10CBD003802400070004008544007CA
:1037A000003C024010B500F015F910BD30B51548C9
:1037B0000068154AB0FBF2F1481EB0F1807F01D3DA
:1037C00001201BE0481E4FF0E022506150170F22ED
:1037D000002807DA13071D0E0C4B00F00F04241FFE
:1037E0001D5503E013071C0E094B1C5400BF00209D
:1037F0004FF0E022906107201061002008B100BF67
:10380000FEE730BD00000020A086010018ED00E0BA
:1038100000E400E010B51548006840F4700013495A
:1038200008601348006840F001001149086000205A
:103830000F49083108600E4800680E4908400C49DD
:1038400008600D48091D0860081F006820F48020EA
:10385000091F0860002006490C310860FFF72CFFA3
:103860004FF0006001498039086010BD88ED00E02C
:1038700000380240FFFFF6FE1030002410B5012191
:10388000054800F04AF808B101F066FF012102483E
:1038900000F034F810BD0000001400407FB505466C
:1038A0000C4601212020FFF707FB0295A0B2ADF8DE
:1038B00004000020ADF80600ADF80C0001A90E4888
:1038C00000F046F8012211460B4800F037F80021BD
:1038D000094800F016F837208DF8000001208DF817
:1038E000010003208DF8020001208DF803006846D6
:1038F000FFF740FA7FBD000000140040CA43028277
:10390000704721B1028842F00102028004E002887F
:103910004FF6FE731A400280704730B50246002011
:1039200000230024158A05EA0103958905EA0104AC
:1039300013B10CB1012000E0002030BD1AB1838921
:103940000B43838102E083898B43838170470000AE
:1039500000220288184B98420ED0184B98420BD088
:10396000B0F1804F08D0164B984205D0154B9842C5
:1039700002D0154B984204D14FF68F731A404B88F2
:103980001A43124B984207D0114B984204D04FF67D
:10399000FF431A400B891A4302804B68C3620B88AD
:1039A0000385054B984202D0044B984201D18B7A93
:1039B0000386012383827047000001400004014018
:1039C0000004004000080040000C004000100040CF
:1039D000001400400448006820B103480068401EFD
:1039E00001490860704700003800002000B58FB022
:1039F0001948FDF71DFD00211748FDF70DFD00BF1B
:103A00001548FDF7C1FD0028FAD164200490042078
:103A10000B9003200C9000200D9008904FF48060D4
:103A20000690801009900D48019000200E9007909C
:103A300005904FF480300A90C0020090002003905F
:103A40000748029069460448FDF7CAFD0121024873
:103A5000FDF7E2FC0FB000BD40600240044C0040A6
:103A6000D208002030B58FB004460D461448FDF74B
:103A7000DFFC00BF1248FDF787FD0028FAD104954E
:103A800004200B9003200C9000200D9008904FF420
:103A900080600690002009900A48019000200E9056
:103AA000079005904FF400300A908002009040206B
:103AB0000390029469460248FDF792FD0FB030BDB5
:103AC00070600240044C004010B540F2244113489D
:103AD00000F01CFE01280BD1104800F015FF104823
:103AE000FDF75CFDC0F16400C4B200F023F814E0FF
:103AF00040F22661094800F009FE01280DD140F28C
:103B00002661064800F06DFD064805494039C86049
:103B1000002103483030FDF77FFC10BD004C004011
:103B2000406002403D00002010B50446204601F0F0
:103B30008FFD10BD10B500210848FDF76DFC00BFDA
:103B40000648FDF721FD0028FAD164210348FDF75E
:103B500073FD01210148FDF75FFC10BD406002408C
:103B600000B58FB01948FDF763FC00211748FDF739
:103B700053FC00BF1548FDF707FD0028FAD164206B
:103B8000049004200B9003200C9000200D900890CE
:103B90004FF480600690801009900D48019000203D
:103BA0000E90079005904FF480300A90C00200906C
:103BB000002003900748029069460448FDF710FD75
:103BC00001210248FDF728FC0FB000BD88640240C7
:103BD000041001408C03002070B504460D4600BF60
:103BE0000748FDF7D1FC0028FAD10548001D056003
:103BF00003480C30046001210148FDF70DFC70BD45
:103C0000B864024030B58FB004460D461448FDF745
:103C10000FFC00BF1248FDF7B7FC0028FAD104954D
:103C200004200B9003200C9000200D9008904FF47E
:103C300080600690002009900A48019000200E90B4
:103C4000079005904FF400300A90800200904020C9
:103C50000390029469460248FDF7C2FC0FB030BDE4
:103C6000B86402400410014070B52DED048B40F2A1
:103C70002441714800F04AFD01287DD16E4800F0D2
:103C800043FE64206D4908606D48FDF787FC6D496F
:103C900008606B48FDF782FCC0F16400C4B200F01C
:103CA000EFFD082C69D168480078DD28FAD10020A2
:103CB00008E06549095C654A12781144634A11704D
:103CC000411CC8B20728F4DB5F48C0795F49097816
:103CD00088427CD15E48406980F008005C494861B8
:103CE000594840785849897840EA012000EE100A86
:103CF000B8EEC00A574880ED140A5348C0785249BC
:103D0000097940EA012000EE100AB8EEC00A5148D5
:103D100080ED150A4C4840794B49897940EA0120E9
:103D200000EE100AB8EEC00A4A4880ED160A90ED7F
:103D3000140ADFED490A20EE200A9FED481AC0EE72
:103D4000010A9FED470AB1EE041A11EE200ADFEDD9
:103D5000450A30EE200A80ED040A90ED150ADFEDE9
:103D60003E0A20EE200A9FED3D1AC0EE010A9FEDAB
:103D70003E0AB2EE041A01E045E043E011EE200AEB
:103D8000DFED380A30EE200A10EE105A2846FCF714
:103D90001BFB41EC190B9FED350B53EC102BFCF783
:103DA00021FA41EC180BFCF722FB2A49486108462E
:103DB00090ED160ADFED280A20EE200A9FED271A63
:103DC000C0EE010A9FED260AB1EE041A00E016E0EB
:103DD00011EE200ADFED230A30EE200A80ED060AFC
:103DE00090ED050ABDEEC00A224880ED010A0846A2
:103DF00090ED060ABDEEC00A1E4880ED020A0020C2
:103E00001249087015E040F226610B4800F07EFC74
:103E100001280ED140F22661074800F0E2FB4FF086
:103E20003D5007497C390860002105483030FDF7D6
:103E3000F3FABDEC048B70BD00100140400000207F
:103E400088640240440000208C0300203D000020D4
:103E500000000240140A002000404E45000080454A
:103E600000803B45000070420080BB450000000020
:103E70000000E03F8C0A002010B50446204601F007
:103E80005FFA10BD70B504460D4600BF0848FDF747
:103E90007BFB0028FAD10648001D05600448A038C5
:103EA000C0F8AC4001210248FDF7B6FA70BD000031
:103EB000A060024010B52DED048B40F224418348F0
:103EC00000F024FC01287CD1804800F01DFD8048D2
:103ED000FDF764FBC0F57A70C4B200F0E7FC102C6B
:103EE00070D17C480078BB28FAD1002008E07949DD
:103EF000095C794A12781144774A1170411CC8B2A2
:103F00000F28F4DB7348C07B7349097888427CD161
:103F10007248406980F00800704948616D49C9786D
:103F200009066C4A927841EA02416A4A527841EAAB
:103F30000220C11700EB11610912694A116065493D
:103F40000979644A527941EA022108B2FCF72BFA56
:103F500041EC190B9FED630B53EC102BFCF7B4F9FC
:103F600041EC180BFCF743FA5D49C860594989795F
:103F7000584AD27941EA022108B2FCF714FA41EC1E
:103F8000190B9FED580B53EC102BFCF79DF941ECEE
:103F9000180BFCF72CFA524908614E49097A4D4A30
:103FA000527A41EA022108B2FCF7FDF941EC190B03
:103FB0009FED4C0B53EC102BFCF786F941EC180BE2
:103FC00001E06BE069E0FCF712FA454948614148BD
:103FD000C07A4049097B40EA012000EE100AB8EEA1
:103FE000C00A424880ED100A90ED100ADFED400A49
:103FF00020EE200A9FED3F1AC0EE010A9FED3E0A17
:10400000B1EE041A11EE200A00E043E080ED000A50
:10401000334800683949C860314890ED030ABDEE65
:10402000C00A10EE100A00B2002809DA2C4890ED00
:10403000030ABDEEC00A10EE100A00B2404207E0CB
:10404000274890ED030ABDEEC00A10EE100A00B238
:1040500000B22A490882224890ED030ABDEEC00A48
:1040600010EE100A00B2002809DA1D4890ED030A8C
:10407000BDEEC00A10EE100A00B2404207E0184838
:1040800090ED030ABDEEC00A10EE100A00B200B2B5
:104090001A49488200201049087014E040F2266155
:1040A0000A4800F033FB01280DD140F22661074891
:1040B00000F097FA124806498839C8600021044880
:1040C0001830FDF7A9F9BDEC048B10BD0044004089
:1040D000886002400D0400204800002000000240DB
:1040E000740A00200000000000005940140A00205B
:1040F00000404E450000804500803B458C0A002072
:1041000000003D2010B50446204601F09BF910BD8B
:1041100000B58FB01948FDF78BF900211748FDF75E
:104120007BF900BF1548FDF72FFA0028FAD164206B
:10413000049004200B9003200C9000200D90089018
:104140004FF480600690801009900D480190002087
:104150000E90079005904FF480300A90C0020090B6
:10416000002003900748029069460448FDF738FA9A
:1041700001210248FDF750F90FB000BD2860024050
:10418000044800400A08002070B504460D4600218E
:104190000848FDF741F900BF0648FDF7F5F900288A
:1041A000FAD104485838C565446601210148FDF735
:1041B00033F970BD5860024030B58FB004460D46EB
:1041C0001448FDF735F900BF1248FDF7DDF9002866
:1041D000FAD1049504200B9003200C9000200D9040
:1041E00008904FF480600690002009900A480190E2
:1041F00000200E90079005904FF400300A90800246
:10420000009040200390029469460248FDF7E8F9C7
:104210000FB030BD586002400448004070B59AB0FD
:10422000002440F22441B54800F070FA01287AD108
:10423000B24800F069FBB248FDF7B0F9C0F1640084
:10424000C6B200F07BF9AF480078AB2834D1032028
:1042500007E0AC490B5C2146621CD4B201AA53545E
:10426000401CA8494978891E8142F2DCA548407863
:10427000801EA449095CA3484078401EA14A105CF6
:1042800041EA0025214601A8FDF726F8A842DDD124
:104290009C48807800F0070001280ED19A48007DE4
:1042A00000F0F800984908750846007D40F00100CC
:1042B000087501209549087001E19248807800F066
:1042C0000700022875D192480068801C002862D13E
:1042D0008C488078C0108F49087008460078012803
:1042E00003D00846007802281ED101208A490870B0
:1042F0008A4908708348807B00048249497B40EAF0
:1043000001208049097B0843854908607D48407C3D
:10431000C0037C49097C40EA01207A49C97B0843F3
:104320007F49886037E0CBE07A480078032815DBC6
:1043300078480078082811DC7248007DC003714974
:10434000C97C40EA01206F49897C0843744988612F
:10435000012071490870714908701CE06D480078AF
:10436000092805D101206C4908706C49087012E0D9
:10437000684800780A2805D1012067490870674914
:10438000087008E06348007828B95F48007D00F0B5
:1043900087005D4908755B48407D00F007000128F3
:1043A00008D15D4908705D4908700B2059490870B3
:1043B0000EE01CE05348407D00F00700022807D1C2
:1043C000012055490870554908700C205149087062
:1043D0004D48007D00F0F8004B4908750846007D07
:1043E00040F00200087501204849087067E0454820
:1043F000807800F00700032832D14248807B000417
:104400004049497B40EA01203E49097B0843444931
:1044100008603C48407CC0033A49097C40EA0120DE
:104420003849C97B08433E4988603648407D0121B0
:10443000B1EB201F02D101203A4908700120364912
:1044400008700220354908702F48007D00F0F80000
:104450002D4908750846007D40F0030008752EE0E0
:104460002848807800F00700042828D12548807B60
:1044700000042449497B40EA01202249097B084382
:10448000274908601F48407CC0031E49097C40EA58
:1044900001201C49C97B08432149886001201E492D
:1044A000087003201D4908701748007D00F0F800CF
:1044B000154908750846007D40F0040008751BE0AA
:1044C00040F226610D4800F021F9012814D140F294
:1044D00026610A4800F085F84FF0746008492839D1
:1044E0008860002106483030FCF796FF00200E4916
:1044F00008600E49C1F888021AB070BD004800403B
:10450000286002400A0800208C0A002026000020B3
:10451000600000204503002024000020250000202A
:104520006C0300204B030020840240420000404204
:1045300010B50446204601F007F810BD10B5002163
:104540000848FCF769FF00BF0648FDF71DF8002882
:10455000FAD164210348FDF76FF801210148FCF707
:104560005BFF10BD2860024010B540F224411448A2
:1045700000F0CCF801280CD1114800F0C5F9114821
:10458000FDF70CF8C0F164000F49087000F0A6F9BF
:1045900014E040F226610A4800F0B8F801280DD175
:1045A00040F22661064800F01CF8084805491C390D
:1045B0000860002103487830FCF72EFF10BD000092
:1045C00000140140286402404900002000003D2002
:1045D00001F40072B2F5007F00D100BFCA4302802F
:1045E000704710B50022002340F66A14A14200D1A2
:1045F00000BF0A1201249440A3B2DC43048010BD22
:1046000021B1828942F40052828104E082894DF610
:10461000FF731A40828170471AB1838A0B438382E9
:1046200002E0838A8B4383827047000000B58FB01D
:104630001A48FCF7FDFE00211848FCF7EDFE00BF0C
:104640001648FCF7A1FF0028FAD14FF47A700490C5
:1046500004200B9003200C9000200D9008904FF444
:1046600080600690801009900D48019000200E9007
:10467000079005904FF480300A90C002009000200F
:1046800003900848029069460448FCF7A9FF0121FD
:104690000248FCF7C1FE0FB000BD00008860024078
:1046A000044400400D04002030B58FB004460D4690
:1046B0001448FCF7BDFE00BF1248FCF765FF002858
:1046C000FAD1049504200B9003200C9000200D904B
:1046D00008904FF480600690002009900A480190ED
:1046E00000200E90079005904FF400300A90800251
:1046F000009040200390029469460248FCF770FF46
:104700000FB030BDA06002400444004070B50246C6
:10471000002400230025002040F66A16B14200D193
:1047200000BFC1F3421501F01F03012606FA03F38F
:10473000012D02D19689334006E0022D02D1168A5E
:10474000334001E0968A33400C12012606FA04F445
:104750001688344013B10CB1012000E0002070BD78
:10476000F0B50346002400260025002040F66A1715
:10477000B94200D100BF1846C1F3421401F01F0630
:10478000012707FA06F5012C01D10C3004E0022CB8
:1047900001D1103000E014301AB107682F430760D0
:1047A00002E00768AF430760F0BD00002DE9FF4756
:1047B00005460E460024A14600BFA046B08900B1C0
:1047C00000BF2C8A24F44054F08804432C82AC8926
:1047D00041F20C608443B0883189084371890843F1
:1047E0000443AC81AC8A24F44074B0890443AC82A5
:1047F0006846FEF791FB2048854202D01F4885425B
:1048000002D1DDF80C9001E0DDF80890A88900F4F1
:10481000004040B109EBC90000EB091031684900C4
:10482000B0FBF1F707E009EBC90000EB09103168B4
:104830008900B0FBF1F76420B7FBF0F00401200918
:10484000642101FB1078A88900F4004040B13220B7
:1048500000EBC800B0FBF1F000F00700044308E0F3
:10486000322000EB08106421B0FBF1F000F00F00E3
:1048700004432C81BDE8FF87001001400014014073
:1048800010B500210848FCF7C7FD00BF0648FCF73B
:104890007BFE0028FAD164210348FCF7CDFE0121FC
:1048A0000148FCF7B9FD10BD8864024010B5002135
:1048B0000948FCF7B1FD00BF0748FCF765FE00287A
:1048C000FAD14FF47A710448FCF7B6FE0121024890
:1048D000FCF7A2FD10BD00008860024010B5002169
:1048E0000848FCF799FD00BF0648FCF74DFE00287C
:1048F000FAD164210348FCF79FFE01210148FCF72F
:104900008BFD10BD2864024001468888C0F3080072
:104910007047000010B52DED028BF0EE408A9FED40
:104920005C0AB0EE408A5B4890ED070AB5EEC00A1B
:10493000F1EE10FA19D25848007864280ADA56487D
:104940000078401C54490870524890ED0F0A80EDE1
:10495000070A0AE04FF480515048FDF752FE00204C
:104960004D49087002204E4908704A4890ED070AE8
:1049700030EE680AB0EE408A90ED070A80ED0F0A2B
:10498000B5EEC08AF1EE10FA02D2B1EE480A01E0AB
:10499000B0EE480ADFED430AB4EEE00AF1EE10FA99
:1049A0001ADD3C4890ED070AB5EEC00AF1EE10FAA8
:1049B00012DD3D48007D00F0870040F028003A49B4
:1049C0000875B5EEC08AF1EE10FA26DB4FF480517F
:1049D0003248FDF714FE20E0B5EEC08AF1EE10FA81
:1049E00002D2B1EE480A01E0B0EE480ADFED2D0A2E
:1049F000B4EEE00AF1EE10FA0FD2264890ED070A65
:104A0000B5EEC00AF1EE10FA07DD4FF480512348ED
:104A1000FDF7F7FD012022490870244890ED000AB7
:104A200038EE400AB5EEC00AF1EE10FA06D290ED6B
:104A3000000A38EE400AB1EE400A04E01B4890ED4F
:104A4000000A38EE400ADFED1A0AB4EEE00AF1EE91
:104A500010FA14D217480078401C1649087008460E
:104A6000007864280EDD4FF480510C48FDF7C9FD35
:104A700000201049087001200949087002E0002058
:104A80000C490870094880ED008ABDEC028B10BD0E
:104A900000000000140A0020C502002000040240AB
:104AA0006B020020000096438C0A0020C002002008
:104AB00000004842C402002010B52DED028BF0EE3C
:104AC000408A9FED700AB0EE408A6F480078012856
:104AD0004BD16E48007D00F0870040F028006B4904
:104AE00008756B4890ED000AB5EEC00AF1EE10FAB9
:104AF00014DD90ED000ADFED670AB4EEE00AF1EE96
:104B000010FA0BD290ED070AB5EEC00AF1EE10FADA
:104B100004D24FF480516048FDF771FD5C4890ED80
:104B2000000AB5EEC00AF1EE10FA1AD290ED070AAB
:104B3000B5EEC00AF1EE10FA13DD58480078401CBB
:104B40005649087008460078642809DD00204E495F
:104B50000870524908704E4890ED070A80ED0F0A20
:104B60008CE000204D49087088E047480078002814
:104B70007DD1474890ED070AB5EEC00AF1EE10FA74
:104B800003D290ED0F0A80ED070A414890ED070A25
:104B900030EE680AB0EE408A90ED070A80ED0F0A09
:104BA000B5EEC08AF1EE10FA02D2B1EE480A01E089
:104BB000B0EE480ADFED3A0AB4EEE00AF1EE10FA80
:104BC0000ADDB5EEC08AF1EE10FA1EDB4FF480511B
:104BD0003148FDF714FD18E0B5EEC08AF1EE10FA89
:104BE00002D2B1EE480A01E0B0EE480ADFED2C0A2D
:104BF000B4EEE00AF1EE10FA07D24FF480512648E5
:104C0000FDF7FFFC012027490870274890ED000AB6
:104C100038EE400AB5EEC00AF1EE10FA06D290ED79
:104C2000000A38EE400AB1EE400A04E01E4890ED5A
:104C3000000A38EE400ADFED1D0AB4EEE00AF1EE9C
:104C400010FA15D215480078401C1449087008461F
:104C5000007864280FDD4FF480510F48FDF7D1FC38
:104C600000200E49087001200E49087003E005E09D
:104C700000200A4908700C4880ED008ABDEC028BC8
:104C800010BD0000000000007C0200208C0A002003
:104C9000140A002000401C4600040240D4020020F8
:104CA000000096436B020020D00200200000484222
:104CB00010B52DED028BF0EE408A9FED5C0AB0EE50
:104CC000408A5B4890ED000AB5EEC00AF1EE10FA9A
:104CD00019D2584800780A280ADA56480078401C49
:104CE00054490870524890ED080A80ED000A0AE025
:104CF0004FF480515048FDF784FC00204D49087066
:104D000002204E4908704A4890ED000A30EE680AC9
:104D1000B0EE408A90ED000A80ED080AB5EEC08A38
:104D2000F1EE10FA02D2B1EE480A01E0B0EE480A04
:104D3000DFED430AB4EEE00AF1EE10FA1ADD3C486A
:104D400090ED000AB5EEC00AF1EE10FA12DD3D4812
:104D5000007D00F0870040F028003A490875B5EE64
:104D6000C08AF1EE10FA26D84FF480513248FDF790
:104D700046FC20E0B5EEC08AF1EE10FA02D2B1EEA8
:104D8000480A01E0B0EE480ADFED2D0AB4EEE00A71
:104D9000F1EE10FA0FD2264890ED000AB5EEC00AE7
:104DA000F1EE10FA07DD4FF480512348FDF729FC9E
:104DB000012022490870244890ED000A38EE400A8C
:104DC000B5EEC00AF1EE10FA06D290ED000A38EE08
:104DD000400AB1EE400A04E01B4890ED000A38EEAC
:104DE000400ADFED1A0AB4EEE00AF1EE10FA14D22E
:104DF00017480078401C1649087008460078642857
:104E00000EDD4FF480510C48FDF7FBFB00201049EC
:104E1000087001200949087002E000200C49087060
:104E2000094880ED008ABDEC028B10BD0000000037
:104E3000140A0020CD020020000402406B02002072
:104E4000000096438C0A0020C8020020000048425F
:104E5000CC02002000BFFEE710B52DED028BB0EEB6
:104E6000408A2048007818B901201E49087036E0B1
:104E70001C480078012817D11B4800680A280ADA64
:104E8000B5EEC08AF1EE10FA29DD4FF40051174853
:104E9000FDF7B5FB23E013480078401C114908706A
:104EA0000020114908601AE00E480078022816D147
:104EB0000D4800680A280ADAB5EEC08AF1EE10FA49
:104EC0000DDD4FF400510948FDF79BFB07E0054855
:104ED0000078401E03490870002003490860BDECBB
:104EE000028B10BD750200207802002000040240F1
:104EF00010B52DED028BF0EE408A9FED840AB0EEE6
:104F0000408A834890ED050AB5EEC00AF1EE10FA2A
:104F10001FD2804800780A280ADA7E480078401CB0
:104F20007C4908707A4890ED0D0A80ED050A13E07F
:104F30004FF400617848FDF764FB4FF480617648D8
:104F4000FDF75FFB00207349087002207349087069
:104F500002E000206F4908706D4890ED050A30EEC0
:104F6000680AB0EE408A90ED050A80ED0D0AB5EEB4
:104F7000C08AF1EE10FA02D2B1EE480A01E0B0EEBA
:104F8000480ADFED670AB4EEE00AF1EE10FA33DD0D
:104F90005F4890ED050AB5EEC00AF1EE10FA2BDD80
:104FA00090ED050A30EE680AB0EE408AB5EEC08A90
:104FB000F1EE10FA0DD25B48007D00F0870040F062
:104FC0001000584908754FF480615348FDF717FBEE
:104FD00098E0B5EEC08AF1EE10FA0CDD5148007D84
:104FE00000F0870040F008004E4908754FF400615A
:104FF0004948FDF704FB85E0B5EEC08AF1EE10FAF2
:1050000002D2B1EE480A01E0B0EE480ADFED440AF0
:10501000B4EEE00AF1EE10FA74D23D4890ED050AC4
:10502000B5EEC00AF1EE10FA6CDDB5EEC08AF1EE15
:1050300010FA31D29FED3C0AB4EEC08AF1EE10FABC
:1050400008D23A480078022804DAB0EE480AFEF79F
:105050003DFA57E09FED340AB4EEC08AF1EE10FA43
:105060000AD232480078022806DBDFED280AB0EECB
:10507000480AFDF7D3FA45E04FF480612648FDF772
:10508000C0FA002029490870294908702949086098
:1050900001202249087035E0B5EEC08AF1EE10FA21
:1050A00030DB9FED250AB4EEC08AF1EE10FA08DD80
:1050B0001E480078022804DAB0EE480AFEF706FA25
:1050C00020E09FED1D0AB4EEC08AF1EE10FA0ADD71
:1050D00016480078022806DBDFED0C0AB0EE480A1D
:1050E000FDF79CFA0EE04FF400610B48FDF789FADA
:1050F00000200E4908700E4908700E490860012012
:1051000006490870BDEC028B10BD000000000000D5
:10511000140A0020BC020020001002406802002097
:105120000000FA448C0A0020000048C374020020EA
:1051300075020020780200200000484310B52DEDD4
:10514000028BF0EE408A9FED6B0AB0EE408A6A480F
:1051500090ED060AB5EEC00AF1EE10FA1FD26748CC
:1051600000780A280ADA65480078401C634908700C
:10517000614890ED0E0A80ED060A13E04FF40071CD
:105180005F48FDF73EFA4FF480715D48FDF739FA4C
:1051900000205A49087002205A49087002E0002095
:1051A00056490870544890ED060A30EE680AB0EE91
:1051B000408A90ED060A80ED0E0AB5EEC08AF1EE47
:1051C00010FA02D2B1EE480A01E0B0EE480ADFED73
:1051D0004E0AB4EEE00AF1EE10FA2DDD464890EDED
:1051E000060AB5EEC00AF1EE10FA25DDB5EEC08A6A
:1051F000F1EE10FA0DDD4548007D00F0870040F02B
:105200001800424908754FF480713D48FDF7F7F9E1
:105210006CE0B5EEC08AF1EE10FA67D23B48007D33
:1052200000F0870040F02000384908754FF4007105
:105230003348FDF7E4F959E0B5EEC08AF1EE10FA13
:1052400002D2B1EE480A01E0B0EE480ADFED2E0AC4
:10525000B4EEE00AF1EE10FA48D2274890ED060AC3
:10526000B5EEC00AF1EE10FA40DDB5EEC08AF1EEFF
:1052700010FA1BD29FED260AB4EEC08AF1EE10FAA6
:1052800006D2F0EE480A9FED1B0AFDF7C7F92DE0A4
:105290004FF400711A48FDF7B4F900201D49087059
:1052A0001D4908600120174908701FE0B5EEC08A4B
:1052B000F1EE10FA1ADD9FED190AB4EEC08AF1EE94
:1052C00010FA06DDF0EE480A9FED0A0AFDF7A6F98E
:1052D0000CE04FF480710A48FDF793F900200D4966
:1052E00008700D490860012006490870BDEC028B6A
:1052F00010BD000000000000140A0020BD020020C4
:1053000000100240690200200000FA448C0A0020CC
:10531000000048C3750200207802002000004843C6
:1053200002E008C8121F08C1002AFAD1704770476E
:10533000002001E001C1121F002AFBD170470000CC
:1053400010B588B0044601210846FDF7A5FD0121EE
:105350001020FDF7C1FD01218805FDF79DFD072205
:1053600009213548FDF728F907220A213248FDF7BF
:1053700023F902208DF80C0003208DF80D00002089
:105380008DF80E0001208DF80F004002029002A956
:105390002948FDF7C9F84FF48060029002A9264819
:1053A000FDF7C2F804940020ADF81400ADF8160023
:1053B000ADF81800ADF81C000C20ADF81A0004A9D7
:1053C0001E48FFF7F3F9FEF7CBFB0A210020FEF79A
:1053D00019FC012240211948FFF71EF90122802102
:1053E0001648FFF719F9012210211548FCF7DAF8E1
:1053F00025208DF8040001208DF805008DF80600A9
:105400008DF8070001A8FDF7B5FC012240F2244108
:105410000A48FFF7A5F9012240F226610748FFF785
:105420009FF901210548FFF7EBF840210348FFF7FA
:10543000CFF808B010BD000000000240001001408D
:10544000B864024010B588B0044601210820FDF779
:1054500023FD01214804FDF72FFD01214805FDF73B
:105460001BFD072205213548FDF7A6F80722062176
:105470003248FDF7A1F802208DF80C0003208DF8CA
:105480000D0000208DF80E0001208DF80F00202067
:10549000029002A92948FDF747F84020029002A98E
:1054A0002648FDF741F804940020ADF81400ADF84B
:1054B0001600ADF81800ADF81C000C20ADF81A006D
:1054C00004A91F48FFF772F9FFF7B0F80A2100207E
:1054D000FFF7EAF8012240211948FFF79DF8012261
:1054E00080211748FFF798F8012210211548FCF792
:1054F00059F826208DF8040001208DF805000220BF
:105500008DF8060001208DF8070001A8FDF732FC98
:10551000012240F224410A48FFF722F9012240F219
:1055200026610748FFF71CF901210548FFF768F8D5
:1055300040210348FFF74CF808B010BD000C0240B2
:1055400000440040A060024010B588B0044601212C
:105550000220FDF7A1FC01218804FDF7ADFC01212B
:105560004805FDF799FC07220A213648FDF724F883
:1055700007220B213348FDF71FF802208DF80C009D
:1055800003208DF80D0000208DF80E0001208DF80D
:105590000F008002029002A92A48FCF7C5FF4FF4D1
:1055A0000060029002A92748FCF7BEFF0494002087
:1055B000ADF814004FF40050ADF816000020ADF81F
:1055C0001800ADF81C000C20ADF81A0004A91E4804
:1055D000FFF7ECF8FEF79CFD0A210020FEF7ECFD3A
:1055E000012240211848FFF717F8012280211648B0
:1055F000FFF712F8012210211448FBF7D3FF2720F0
:105600008DF8040001208DF805008DF806008DF856
:10561000070001A8FDF7AEFB012240F224410A4831
:10562000FFF79EF8012240F226610748FFF798F83D
:1056300001210548FEF7E4FF40210348FEF7C8FFBB
:1056400008B010BD0004024000480040586002400D
:1056500010B588B0044601210420FDF71DFC01218E
:10566000C804FDF729FC01214805FDF715FC0822B7
:105670000A213648FCF7A0FF08220B213348FCF72B
:105680009BFF02208DF80C0003208DF80D000020F8
:105690008DF80E0001208DF80F008002029002A903
:1056A0002A48FCF741FF4FF40060029002A9274806
:1056B000FCF73AFF04940020ADF814004FF40050BA
:1056C000ADF816000020ADF81800ADF81C000C2055
:1056D000ADF81A0004A91E48FFF768F8FEF786F92E
:1056E0000A210020FEF7BEF9012240211848FEF7EA
:1056F00093FF012280211648FEF78EFF0122102120
:105700001448FBF74FFF34208DF8040001208DF87A
:1057100005008DF806008DF8070001A8FDF72AFBAB
:10572000012240F224410A48FFF71AF8012240F210
:1057300026610748FFF714F801210548FEF760FFCE
:1057400040210348FEF744FF08B010BD00080240A6
:10575000004C0040706002404148C088401C4049F5
:10576000C88008460089401C088108464089401CC2
:10577000488108468089401C88810846C089401CB1
:10578000C8810846C088142868DA0846008932288B
:1057900004DB08460089323808815FE030484089E0
:1057A000C8284BDB2E484089C8382D4948812D48F0
:1057B0000078012803D02B480078022804D12A4819
:1057C0000068401C2849086028480078012803D058
:1057D00026480078022804D125480068401C244946
:1057E000086024480068002804DB22480068401C48
:1057F0002049086020480068002804DB1E48006833
:10580000401C1D4908601D480068002804DB1B4837
:105810000068401C1949086019480068002804DB2A
:1058200017480068401C1649086016480078A8B957
:1058300015480078401C144908700FE0084880891A
:10584000B0F5C87F0ADA0648C089B0F5FA6F05DB03
:105850000348C089A0F5FA600149C881704700007B
:10586000A40A00206E0200207002002075020020B1
:1058700078020020800200208802002060000020C2
:105880006400002026000020B102002001B5044978
:105890000098086000BF024800680028FBD108BDDE
:1058A00038000020FDF782FFFBF700F8754890ED07
:1058B000040A80ED0C0A90ED050A80ED0D0A90EDCA
:1058C000060A80ED0E0A90ED000A80ED080A90EDC0
:1058D000070A80ED0F0A06E001210846FBF7AEFE3D
:1058E0006948FFF7D3FF694800780028F4D068487A
:1058F000007D40F0F000664908759FED660A61483A
:1059000080ED050A01216448FDF7FBFFB8E063481C
:10591000C088142870DB62480078012803D1022077
:105920005F49087087E05E480078002871D05C48C5
:10593000007802287FD15B48007801286ED15A4850
:1059400000780D2868D2DFE800F06707111B252FCB
:1059500039434D585B5E61005448D0ED000AF8EEC3
:10596000E00AB0EE600AFDF72FF956E04F48D0ED9F
:10597000020AF8EEE00AB0EE600AFDF791F94CE099
:105980004A48D0ED060AF8EEE00AB0EE600AFDF7EC
:10599000C5F842E04548D0ED060AF8EEE00AB0EE60
:1059A000600AFDF7BBF838E04048D0ED060AF8EE93
:1059B000E00AB0EE600AFDF7B1F82EE03B48D0ED0A
:1059C000060AF8EEE00AB0EE600AFCF7E9FF24E010
:1059D0003648D0ED060AF8EEE00AB0EE600AFCF7B1
:1059E00033FF1AE03148D0ED060AF8EEE00AB0EED7
:1059F000600AFCF77FFF10E022E0FCF7FFFE0CE0FE
:105A0000FDF71AF809E0FDF763F806E0FDF73AF84C
:105A100003E010E002E0FFE700BF0CE0214800785F
:105A2000022802D1FBF710F905E01E480078032890
:105A300001D1FAF75FFF1948C08814381749C880A8
:105A400016488089B0F5C87F1ADB1948007801280C
:105A500006D1FDF7FDFA00201549087015490870B8
:105A60001548007818B115480078012802D10120A6
:105A70001349086009488089A0F5C87007498881E2
:105A800045E70000140A0020A08601006D020020F6
:105A90008C0A002000409C4500140040A40A00200D
:105AA0002400002025000020450300206C03002076
:105AB00026000020B10200209002002046030020B2
:105AC000A882414270B504460D46AA20E0702571B7
:105AD0002079E1780844607106212046FEF77CF8C1
