:020000040800F2
:10000000A80E00209D0100086D2700089F1F000812
:10001000692700083D1300082F4200080000000077
:10002000000000000000000000000000A12F0008F8
:10003000A51600080000000049280008D13000087B
:10004000B7010008B7010008B7010008B7010008B0
:10005000B7010008B7010008B7010008B7010008A0
:10006000B7010008B7010008B7010008B701000890
:10007000B7010008B7010008B7010008B701000880
:10008000B7010008B7010008B7010008B701000870
:10009000B7010008B7010008B7010008B701000860
:1000A000B7010008B7010008B7010008B701000850
:1000B000B7010008B7010008B7010008B701000840
:1000C000B7010008B7010008B7010008B701000830
:1000D000B70100086935000885370008ED3A0008C7
:1000E000511D0008B7010008B7010008B70100085A
:1000F000B7010008B7010008B7010008B701000800
:10010000B7010008B7010008B7010008B7010008EF
:10011000F5330008B7010008B7010008A93100084D
:10012000B7010008B7010008B7010008B7010008CF
:10013000B7010008B7010008B7010008B7010008BF
:10014000B7010008B7010008B7010008B7010008AF
:10015000B7010008B7010008B7010008853E000894
:10016000B7010008B7010008B7010008B70100088F
:10017000B7010008B7010008B7010008B70100087F
:10018000B7010008B7010008DFF80CD000F0E0F973
:1001900000480047694C0008A80E00200648804728
:1001A00006480047FEE7FEE7FEE7FEE7FEE7FEE75C
:1001B000FEE7FEE7FEE7FEE741310008890100089F
:1001C000D2B201E000F8012B491EFBD27047002299
:1001D000F6E710B513460A4604461946FFF7F0FF46
:1001E000204610BD2DE9FE4F81EA030404F00044CF
:1001F00021F0004100944FF0000B23F0004350EA3F
:1002000001045ED052EA03045BD0C3F30A54C1F385
:100210000A552C44A4F2F3340194A0FB0254C1F318
:10022000130141F48011C3F3130343F4801301FB62
:10023000024400FB034E840A970A44EA815447EAC9
:100240008357A4FB076802958D0A05FB07854FEAD3
:10025000932C04FB0C542705029D4FEA065847EAED
:100260001637B5EB08056EEB070C870E920E47EAC2
:10027000811742EA8312A7FB0201B6EB0B0164EB84
:1002800000042B0D43EA0C335E1844EB1C50DA4695
:100290005146E7FB0201C5F313044FEA0B3343EA6F
:1002A00014534FEA0432019C43EA0603A4F10C0400
:1002B0000294009CCDE900B400F0FBF803B0BDE867
:1002C000F08F00200146F9E72DE9F04D81EA0304A3
:1002D00004F0004B21F0004514464FF0000A23F0D3
:1002E000004150EA050220D054EA01021DD0C5F3B6
:1002F0000A570246C5F31303C1F31300C1F30A56AC
:1003000040F4801543F48013A7EB0608101BD64673
:1003100008F2FD3873EB050002D308F1010801E093
:1003200092185B41B8F1000F03DA00200146BDE8E6
:10033000F08D00204FF48011064684460EE0171B16
:1003400073EB050705D3121B63EB050306434CEA69
:10035000010C49084FEA300092185B4150EA01074E
:10036000EDD152EA030012D082EA040083EA0501CB
:10037000084305D0101BAB4106D20122002306E042
:1003800000224FF0004302E06FF0010253101AEB1D
:1003900006004CEB085110EB0A0041EB0B01BDE8E5
:1003A000F04D00F077B80EB5C10F80EAE070084458
:1003B000CA07002140F233438DE80E000A460B467F
:1003C00000F077F803B000BD00F0004230F00040CC
:1003D0000AD0C10D01F56071C0F3160042EA015167
:1003E000C20840071143704700200146704701F0E2
:1003F000004330B421F0004150EA010206D00A0D5A
:10040000A2F56072C1F31301002A02DC30BC0020A7
:100410007047440F44EAC104C100E01830BC00EB4F
:10042000C250AFF300800029A8BF7047401C4900AC
:1004300008BF20F00100704710B4B0FA80FC00FA49
:100440000CF050EA010404BF10BC704749B1CCF174
:10045000200421FA04F411FA0CF118BF0121214300
:100460000843A3EB0C01CB1D4FEA00614FEA1020BB
:1004700042BF002010BC704700EBC350104400295D
:10048000A4BF10BC7047401C490008BF20F0010009
:1004900010BC704710B5141E73F1000408DA401C3C
:1004A00041F1000192185B411A4301D120F0010093
:1004B00010BD2DE9F04D92469B4611B1B1FA81F283
:1004C00002E0B0FA80F22032904600F053F8044681
:1004D0000F4640EA0A0041EA0B0153465A460843D8
:1004E00013D0114653EA010019D0C8F1400250461A
:1004F00000F04FF805460E4650465946424600F079
:1005000039F8084305D0012004E020463946BDE80B
:10051000F08D0020054346EAE0762C4337430A98E5
:100520006305E40AA0EB08000022FD0A44EA4754F0
:100530000A3002D500200146E9E70105101969419A
:10054000DDE9084500196941BDE8F04DA2E700006A
:10055000064C074D06E0E06840F0010394E8070010
:1005600098471034AC42F6D3FFF712FE584E0008FD
:10057000784E0008202A04DB203A00FA02F100201D
:1005800070479140C2F1200320FA03F319439040D1
:100590007047202A04DB203A21FA02F0002170473C
:1005A00021FA02F3D040C2F12002914008431946DB
:1005B000704770B58C1810F8015B15F0070301D176
:1005C00010F8013B2A1106D110F8012B03E010F8B6
:1005D000016B01F8016B5B1EF9D12B0705D40023D9
:1005E000521E0DD401F8013BFAE710F8013BCB1A7B
:1005F000921C03E013F8015B01F8015B521EF9D570
:10060000A142D8D3002070BD21B1826842F001021E
:10061000826003E0826822F001028260704700007D
:100620000021084A1168084A1140D0E900231A4302
:1006300083681A43C3681A431143044AC2F8041377
:100640007047000004230140E030FCFF002001401F
:1006500021B1826842F48072826003E0826822F4F1
:1006600080728260704721B1826842F400728260B9
:1006700003E0826822F400728260704700B58DB09A
:100680000121022002F006F90121042002F002F902
:100690000121080202F01EF901200B9003208DF8C1
:1006A000300000208DF833000BA92A4801F000FC2F
:1006B00010200B9003208DF8300000208DF83300BF
:1006C0000BA9254801F0F4FB0121080202F012F900
:1006D00000214FF4807002F00DF9002007904FF4D4
:1006E00070600A904FF4804009908000089007A83D
:1006F000FFF796FF0020019001208DF808008DF88B
:10070000090000200390059002208DF8180001A92F
:10071000124800F025F801211048FFF775FF072364
:10072000012208210D4800F045F8072302220E217E
:100730000A4800F03FF800F067FE084800F096F81D
:1007400001210648FFF78FFF01210448FFF780FFD2
:100750000DB000BD0004024000080240002001402E
:1007600030B50246002000235068104C20400D791F
:100770000C6844EA05242043506090680C4C2040EB
:10078000D1E903542C438D682C434D7944EA450448
:1007900020439060D06A20F470000C7D641EE4B2A7
:1007A000234340EA0350D06230BD0000FFFEFFFC4F
:1007B000FDF7FFC0F0B504460D4600200021092DCD
:1007C00011DDE068A5F10A0606EB4607072606FAE2
:1007D00007F18843A5F10A0606EB460603FA06F17F
:1007E0000843E0600CE0206905EB4507072606FAA0
:1007F00007F1884305EB450603FA06F1084320613B
:10080000072A0FDA606B561E06EB86071F2606FACC
:1008100007F18843561E06EB860605FA06F10843E3
:10082000606322E00D2A0FDA206BD61F06EB8607E5
:100830001F2606FA07F18843D61F06EB860605FA3F
:1008400006F10843206310E0E06AA2F10D0606EB12
:1008500086071F2606FA07F18843A2F10D0606EB6C
:10086000860605FA06F10843E062F0BD816841F0B2
:1008700080418160704700001CB50121082002F012
:1008800009F84FF48060009001208DF804000020EA
:100890008DF806008DF8070002208DF805006946E6
:1008A000014801F005FB1CBD000C024010B501F031
:1008B0004FFC01F035FCFFF7E1FEFFF7DDFF02F032
:1008C0000DFA01F059FA4FF4E13002F055FF4FF400
:1008D000E13003F07FF84FF4E13002F08FF84FF48D
:1008E000E13002F0B7FD532140F2F31002F06CFC4E
:1008F00010BD000010B5BF48007880B901F0B8FF06
:10090000BD480068801C002808D1BA480078401C07
:10091000B84908704FF0FF30B749086031E1B54879
:10092000007801280ED102F025FBB4480078012898
:10093000F4D1B0480078401CAE4908700020AF499F
:1009400008701EE1AB48007802282ED1AC48006840
:10095000C0F57A50A0F5FA6042F688410844A849EB
:100960000860084690ED021AB8EEC11AF0EE410A8E
:1009700090ED001AB8EEC11AB0EE410A01F0ACFBDE
:10098000A04800780128C9D19F4800780128C5D126
:1009900098480078401C97490870002099490870D1
:1009A0009949087099490870EBE09248007803284B
:1009B00018D19348D0ED040AF8EEE00AB0EE600AD0
:1009C00001F0ACF9924800780128A7D18948007855
:1009D000401C8849087000208D49087001208D490D
:1009E0000860CEE083480078042811D101F0CFFAE6
:1009F00088480068022891D17E480078401C7D49D3
:100A00000870002083490860012080490870B8E020
:100A10007848007805280ED102F096FA77480078D9
:100A200001288ED173480078401C7249087000205C
:100A300072490870A5E06F480078062818D1DFEDEC
:100A4000760A9FED760A01F047FB6E480078012890
:100A5000AAD16D4800780128A6D166480078401CCC
:100A6000644908700020674908706749087088E089
:100A700060480078072811D101F020F96448007817
:100A800001287ED15B480078401C5A49087000203C
:100A90005F49087001206249086072E0554800789B
:100AA00007280ED101F077FA5D480068022868D166
:100AB00050480078401C4F49087000205849086091
:100AC0005FE04C48007808280ED102F027FA4B4826
:100AD0000078012855D147480078401C45490870E6
:100AE0000020464908704CE042480078092818D197
:100AF000DFED4C0A9FED4C0A01F0EEFA4148007818
:100B000001283ED14048007801283AD13948007880
:100B1000401C3849087000203A4908703A4908706A
:100B20002FE0344800780A2810D19FED400A01F0E8
:100B3000DBF837480078012823D12E480078401C84
:100B40002C4908700020324908701AE029480078C2
:100B50000B2816D101F07AFE35480068801C80B958
:100B60003448007D00F0870040F0400031490875AE
:100B70004FF0FF302E49086000202F4908702F49A0
:100B800008702048007802280FD01F4800780228FB
:100B90000BD01F480078022807D018480078022898
:100BA00003D027480078042822DD01F04FFE2048BA
:100BB0000068801CE0B90F480078224908701D4881
:100BC000007D00F0F0001B4908754FF0FF30184918
:100BD00008600020074908700A4908700A4908702F
:100BE0000B490870054908701349087013490870CB
:100BF00010BD000038030020500000205B020020E0
:100C00005C03002058020020590200206C020020E2
:100C10005A020020700200200080894500C08F45E4
:100C20007802002000007A4500E0F6450080D444B8
:100C3000540000207C0A0020240000202500002011
:100C4000A10200208002002010B52DED028BFD488E
:100C50000078002837D1FC48007878B901F008FE08
:100C6000FA480068801C40BBF6480078401CF549F3
:100C700008704FF0FF30F54908601EE0F248007838
:100C800001281AD1EF490978491CC8B200F0B6FB17
:100C9000EC480078401CEE4991F9001088420CD1D4
:100CA0000020EC494875E7480078401CE549087089
:100CB0000020E5490870E6490870E648007DF1200B
:100CC000E4490875DDE2DF480078012831D1DE48CB
:100CD000007870B902F04EF9DF4800780128F1D1B0
:100CE000D8480078401CD74908700020DA490870BD
:100CF000C7E2D54800780128E4D1D2490978491CD7
:100D0000C8B200F07BFBCF480078401CD04991F975
:100D100000108842D6D10020CE494875C9480078D5
:100D2000401CC84908700020C7490870C8490870AD
:100D3000A7E2C448007802284FD1C348007850BBCE
:100D4000C6480068C0F57A50A0F5FA6042F68841BE
:100D5000084408EE100AC14890ED020AB8EEC00A35
:100D6000F0EE400AB8EEC80A01F0B6F9BC480078C7
:100D700001280FD1BB48007801280BD1B148007879
:100D8000401CB04908700020B7490870B449087089
:100D9000B449087075E2AC480078012892D1A9499D
:100DA0000978491CC8B200F029FBA6480078401C0D
:100DB000A74991F90010884284D10020A5494875BF
:100DC000A0480078401C9F49087000209E49087088
:100DD000A54908709E49087053E29A480078032894
:100DE0003FD199480078C0B99C48D0ED060AF8EE8A
:100DF000E00AB0EE600A00F091FF9C4800780128FC
:100E000096D190480078401C8E490870012098497E
:100E1000086000209549087033E28B48007801286B
:100E200086D188490978491CC8B200F0E7FA85489C
:100E30000078401C864991F900108842AAD1002010
:100E4000844948757F480078401C7E49087000201E
:100E50007D49087001208649086000207C4908709F
:100E60000FE278480078042839D17748007890B9A3
:100E700001F08DF87E48006810F1020F8AD17148A8
:100E80000078401C6F490870012077490870801E67
:100E900077490860F5E16C48007801289CD16949E0
:100EA0000978491CC8B200F0A9FA66480078401CCD
:100EB000674991F9001088428ED100206549487534
:100EC00060480078401C5F49087000205E49087047
:100ED00001206549087000205D490870D1E159483A
:100EE0000078052831D15848007870B902F02CF804
:100EF0005948007801288FD152480078401C514948
:100F00000870002054490870BBE14F480078012860
:100F1000A6D14C490978491CC8B200F06FFA49487B
:100F20000078401C4A4991F90010884298D100206D
:100F30004849487543480078401C424908700020E1
:100F400041490870424908709BE13E4800780628F4
:100F50003BD13D480078C0B9DFED460A9FED460A17
:100F600001F0BAF83E480078012893D13D48007856
:100F700001288FD133480078401C32490870002086
:100F800037490870374908707BE12F4800780128FD
:100F9000A4D12C490978491CC8B200F02FFA29487D
:100FA0000078401C2A4991F90010884296D100200F
:100FB0002849487523480078401C224908700020C1
:100FC00021490870224908705BE11E480078072813
:100FD00056D11D48007888B900F070FE234800788B
:100FE000012891D117480078401C1649087001204B
:100FF0002249086000201D49087042E1124800782B
:101000000128A1D10F490978491CC8B200F0F6F9AE
:101010000C480078401C0E4991F90010884293D189
:1010200000200C49487507480078401C05490870A5
:101030000120124908600020034908700449087023
:101040001FE10000390300203A0300205000002077
:101050003B0300207C0A00205B0200205C03002090
:1010600058020020590200206C0200205A02002081
:10107000700200200080894500C08F457802002062
:101080009D480078082833D19C48007880B900F04A
:1010900082FF9B48006810F1020F95D196480078B6
:1010A000401C954908704FF0FF3095490860E8E012
:1010B00092480078012887D18F490978491CC8B225
:1010C00000F09CF98C480078401C8E4991F9001082
:1010D000884292D100208C49487587480078401C8E
:1010E0008549087000208549087086490870C8E065
:1010F00081480078092831D18048007870B901F022
:101100000DFF8248007801289AD17B480078401C66
:101110007949087000207D490870B2E0774800786E
:1011200001288DD174490978491CC8B200F066F9CC
:1011300071480078401C734991F9001088420CD125
:101140000020714948756C480078401C6A49087055
:1011500000206A4908706B49087092E06648007880
:101160000A283BD165480078C0B9DFED690A9FEDD8
:10117000690A00F0B1FF6848007801280DD167487E
:10118000007801287DD15C480078401C5A490870DD
:101190000020614908706149087072E05748007882
:1011A00001286ED154490978491CC8B200F026F9CB
:1011B00051480078401C534991F90010884260D191
:1011C0000020514948754C480078401C4A49087035
:1011D00000204A4908704B49087052E046480078A0
:1011E0000B2833D14548007880B99FED4D0A00F0B7
:1011F0007BFD4C480078012843D13F480078401CD3
:101200003D4908700020474908703AE03B480078A3
:10121000012836D138490978491CC8B200F0EEF8E7
:1012200035480078401C374991F90010884228D190
:1012300000203549487530480078401C2E49087018
:1012400000202E4908702F4908701AE02A480078BB
:101250000C2816D101F0FAFA33480068801C80B9D6
:101260002948007D00F0870040F0400026490875BD
:101270004FF0FF302C49086000202C4908702C49A1
:1012800008702548007802280FD0244800780228EA
:101290000BD024480078022807D01C480078022888
:1012A00003D024480078042822DD01F0CFFA1E483C
:1012B0000068801CE0B9104800781F490870124887
:1012C000007D00F07F00104908754FF0FF3016498F
:1012D00008600020084908700F4908700F4908701D
:1012E00010490870094908701049087010490870C1
:1012F000BDEC028B10BD0000390300203A03002032
:10130000780200203B0300207C0A00205B020020C2
:1013100000007A4500E0F6455802002059020020FE
:101320000080D4445A0200205400002024000020F1
:1013300025000020A10200208002002000BFFEE75F
:1013400070B502460C46FF25FF2309E012F8010B99
:1013500080EA03010648405C80EA05030548455CD5
:10136000201EA4F10106F4B2F0D145EA032070BDBD
:10137000580000205801002010B51448007D00F0EE
:10138000870040F0380011490875114800680028AE
:1013900009DB0F480068322805DC4FF400410D4896
:1013A00000F0F1FD11E00A480068322809DB084826
:1013B00000683C2805DC4FF40041064800F0E5FDDC
:1013C00003E06FF001000249086010BD7C0A0020B4
:1013D000700200200004024010B507480068401C5D
:1013E00010B900200449086003480068002801DBA8
:1013F000FFF7C2FF10BD00007002002001494875D0
:10140000704700007C0A002000B58FB001218805DC
:1014100001F040FA174800F03FF800BF154800F00F
:10142000E7F80028FAD10090134801901348029081
:101430000020039002200490002005904FF480606B
:101440000690400007900890C010099040020A9052
:1014500000200B9001200C9000200D900E9069460A
:10146000044800F0F1F80121024800F009F80FB03B
:1014700000BD0000106402404C2001404A000020E2
:1014800021B1026842F00102026003E0026822F02A
:101490000102026070470000016821F00101016053
:1014A0000021016041608160C160016121214161D1
:1014B0004A49884204D13D21484A103A91608CE063
:1014C00046491831884205D14FF47461434A103AB5
:1014D000916082E041493031884205D14FF4741166
:1014E0003E4A103A916078E03C494831884205D143
:1014F0004FF07461394A103A91606EE037496031BB
:10150000884204D13649354A103AD16065E0334902
:101510007831884204D13349304A103AD1605CE0D6
:101520002E499031884204D12F492C4A103AD1607B
:1015300053E02A49A831884205D14FF03D51274A4E
:10154000103AD16049E02949884204D13D21274A17
:10155000083A116041E025491831884205D14FF41D
:101560007461224A083A116037E0204930318842DC
:1015700005D14FF474111D4A083A11602DE01B4942
:101580004831884205D14FF07461184A083A116019
:1015900023E016496031884204D11149134A121FD1
:1015A00011601AE011497831884204D10D490F4A7F
:1015B000121F116011E00D499031884204D10A498F
:1015C0000A4A121F116008E00849A831884204D174
:1015D0004FF03D51054A121F1160704710600240E4
:1015E0003D000020400F002000003D20106402401C
:1015F000014600200A6802F001020AB1012000E061
:10160000002070470146486880B2704710B501F06D
:1016100080034BB122B1436943F08003436103E08F
:10162000436923F08003436180290BD02AB103680A
:1016300001F01E042343036004E0036801F01E046C
:10164000A343036010BD000010B500220268134BD5
:101650001A40CC680B6823434C6923438C692343AD
:10166000CC6923430C6A23434C6A23438C6A23438B
:101670004C6B23438C6B23431A430260426922F074
:101680000702D1E90B3423431A4342610B694360DB
:101690004B6883608B68C36010BD00003F801CF006
:1016A000416070477047000010B52DED028BB0EE21
:1016B000408A00241A4890ED000AB8EEC00A38EEBD
:1016C000400ABDEEC00A10EE104A006815490860D5
:1016D000B4F5967F11DD1248006800280DDD124830
:1016E000007D00F0870040F030000F4908754FF48E
:1016F00000510E4800F047FC0EE0B4F5967F0BDA7F
:1017000007480068002807DD4FF40051074800F043
:101710003CFC012006490870BDEC028B10BD0000A6
:10172000640A0020300300207C0A002000040240EC
:101730005A02002070B52DED028BB0EE408A0025D4
:101740000024AC4890ED000AB8EEC00A38EE400A1A
:10175000BDEEC00A10EE105A0068A74908609FED60
:10176000A70AB4EEC08AF1EE10FA24D2B5F5967F3E
:1017700011DDA048006800280DDDA148007D00F0C3
:10178000870040F030009E4908754FF400519D4895
:1017900000F0F9FB2AE1B5F5967FFBDA9548006881
:1017A0000028F7DD4FF40051964800F0EEFB0120D1
:1017B000954908701AE19FED910AB4EEC08AF1EEE6
:1017C00010FAE7DDB5F57A7F3BDD8A48006800282E
:1017D00037DD8E48007880BB4FF40051894800F017
:1017E000D2FB8B4890ED000AB5EEC00AF1EE10FA7C
:1017F00024DD88480078401C864908700846007837
:1018000064281EDD0120814908700020814908708C
:101810007F4890ED000A80ED080AD0ED000A754877
:1018200090ED000AB8EEC00A38EE400A30EEC00A69
:10183000BDEEC00A784880ED000A02E0002075493C
:101840000870724800780128A4D1714890ED000A10
:10185000B5EEC00AF1EE10FA1CD270480078642888
:101860000ADA6E480078401C6C490870684890EDB0
:10187000080A80ED000A18E04FF40051614800F0BA
:1018800084FB0020654908706049087002205E49A9
:1018900008700AE05E4890ED000AB5EEC00AF1EE6D
:1018A00010FA02DD00205D4908705948D0ED000AA9
:1018B000594890ED000AB8EEC00A30EEC00ABDEEFD
:1018C000C00A10EE104A524890ED000A80ED080A56
:1018D000002C01DA604200E02046B0F57A7F7DDA24
:1018E000C82C06DD00EE104AB8EEC00A02F0A2FCD9
:1018F0000EE04FF40051434800F047FB00204349FD
:101900000870474908704749086001203E4908703F
:10191000384890ED030AB5EEC00AF1EE10FA04D291
:1019200090ED030AB1EE400A02E0324890ED030A5E
:10193000F2EE040AB4EEE00AF1EE10FA16DC2D48DD
:1019400090ED040AB5EEC00AF1EE10FA04D290ED63
:10195000040AB1EE400A02E0264890ED040AF2EED5
:10196000040AB4EEE00AF1EE10FA0EDD4FF4005175
:10197000244800F00AFB0020244908702849087018
:101980002849086001202049087027480068201A6B
:1019900003D525480068001B02E023480068201A90
:1019A00032281EDA1B480078401C1A490870084685
:1019B0000078642818DD4FF40051124800F0E5FA71
:1019C000002014490870114908701549087015491C
:1019D00008601049087001200B4900E006E008701B
:1019E00002E000200B4908700F480460BDEC028B38
:1019F00070BD0000640A0020F002002000409C46F8
:101A00007C0A0020000402405A0200200803002043
:101A1000040A00200003002004030020010300202A
:101A20006502002068020020F802002070B52DED4C
:101A3000028BB0EE408A00250024934890ED000A06
:101A4000B8EEC00A38EE400ABDEEC00A10EE105AD9
:101A500000688E4908609FED8E0AB4EEC08AF1EEF0
:101A600010FA24D2B5F5FA7F11DD87480068002806
:101A70000DDD8848007D00F0870040F0300085498A
:101A800008754FF40051844800F07DFAF9E0B5F58F
:101A9000FA7FFBDA7C4800680028F7DD4FF400513C
:101AA0007D4800F072FA01207C490870E9E09FED62
:101AB000780AB4EEC08AF1EE10FAE7DDB5F5FA7FE8
:101AC0003BDD71480068002837DD7548007880BB31
:101AD0004FF40051704800F056FA724890ED000A39
:101AE000B5EEC00AF1EE10FA24DD6F480078401C14
:101AF0006D4908700846007864281EDD0120684999
:101B00000870002068490870664890ED000A80ED72
:101B1000080AD0ED000A5C4890ED000AB8EEC00A51
:101B200038EE400A30EEC00ABDEEC00A5F4880EDD4
:101B3000000A02E000205C4908705948007801283A
:101B4000A4D1584890ED000AB5EEC00AF1EE10FAA3
:101B50001CD85748007864280ADA55480078401C99
:101B6000534908704F4890ED080A80ED000A18E0CC
:101B70004FF40051484800F008FA00204C49087022
:101B8000474908700220454908700AE0454890ED31
:101B9000000AB5EEC00AF1EE10FA02DD0020444959
:101BA00008704048D0ED000A404890ED000AB8EEB9
:101BB000C00A30EEC00ABDEEC00A10EE104A394825
:101BC00090ED000A80ED080A002C01DA604200E086
:101BD0002046B0F5FA7F54DAC82C06DD00EE104A34
:101BE000B8EEC00A02F026FB0EE04FF400512A487E
:101BF00000F0CBF900202A4908702E4908702E49C0
:101C000008600120254908701F4890ED030AB5EED1
:101C1000C00AF1EE10FA04D290ED030AB1EE400AC8
:101C200002E0194890ED030AF2EE040AB4EEE00A6D
:101C3000F1EE10FA16DC144890ED040AB5EEC00A75
:101C4000F1EE10FA04D290ED040AB1EE400A02E07F
:101C50000D4890ED040AF2EE040AB4EEE00AF1EE4B
:101C600010FA0EDD4FF400510B4800F08EF9002001
:101C70000B4908700F4908700F4908600120074997
:101C80000870BDEC028B70BD640A002010030020B8
:101C90000000FA447C0A0020000402405A0200209E
:101CA00028030020040A0020200300202403002031
:101CB00021030020650200206802002010B50748BB
:101CC0000078012808D10648007820B99FED050A60
:101CD000FFF7EAFC00E000BF10BD00005D0200203D
:101CE0005A02002000409C4510B52DED028BB0EE4D
:101CF000408A08480078012808D10748007820B9B0
:101D0000B0EE480AFFF792FE00E000BFBDEC028B88
:101D100010BD00005D0200205A02002010B52DED1C
:101D2000028BB0EE408A08480078012808D10748A5
:101D3000007820B9B0EE480AFFF7FCFC00E000BFD5
:101D4000BDEC028B10BD00005D0200205A02002095
:101D500010B54FF4006000F055F818B14FF4006072
:101D600000F04AF84FF4805000F04CF818B14FF4EE
:101D7000805000F041F810BD00B585B00121082069
:101D800000F088FD4FF4C050039000208DF8100043
:101D900002208DF8110003A9164800F089F80121EE
:101DA000880300F097FD0B21032001F0FBF80C21C4
:101DB000032001F0F7F84FF4C050009000208DF898
:101DC000040008208DF8050001208DF80600684603
:101DD00000F024F828208DF8080000208DF8090074
:101DE0008DF80A0001208DF80B0002A800F0C0FC5D
:101DF00005B000BD000C02400149086070470000BA
:101E0000143C014001460020034A12680A400AB10E
:101E1000012000E000207047143C014000212349CC
:101E20008279002A3AD00A46126803689A430B4620
:101E30001A600A1D126803689A430B1D1A60027922
:101E400011440A6803681A430A60184A0832126883
:101E500003689A43154B08331A601A1D1268036809
:101E60009A43124B0C331A604279102A0ED11A1F72
:101E7000126803681A430D4B08331A601A1D126862
:101E800003681A43094B0C331A600DE00749427985
:101E900011440A6803681A430A6005E00279114494
:101EA0000A6803689A430A6070470000003C0140DA
:101EB000F0B50A4600210023002400BF3DE00125C3
:101EC00005FA01F3156805EA03049C4234D105685C
:101ED0004F000326BE40B543056015794E00B5405E
:101EE0000668354305601579012D02D01579022D5C
:101EF00016D185684F000326BE40B54385605579ED
:101F00004E00B540866835438560456801268E40A1
:101F1000B5434560456896798E40B6B23543456015
:101F2000C5684F000326BE40B543C560D5794E0055
:101F3000B540C6683543C560491C1029BFD3F0BD04
:101F4000F0B5002300244D07ED0E02FA05F3CE1084
:101F500000F1200555F826504E07F70E0F26BE401B
:101F6000B543CF1000F1200646F82750CE1000F1FF
:101F7000200555F8265045EA0304CE1000F120054F
:101F800045F82640F0BD418370470183704710B586
:101F9000FFF722FA10BD10B500F01CFF10BD00BF06
:101FA000FEE7000010B52DED028BF0EE408AB0EE9A
:101FB000608A4448007840B900204349087043498A
:101FC000086001203F49087078E03E480078012809
:101FD00038D13F4800680A282BDAF5EEC08AF1EEC6
:101FE00010FA05DD4FF400613A48FFF7CCFF65E0D9
:101FF000F5EEC08AF1EE10FA05D24FF48061354853
:10200000FFF7C1FF5AE0B5EEC08AF1EE10FA05DD28
:102010004FF480712F48FFF7B6FF4FE0B5EEC08A4E
:10202000F1EE10FA4AD24FF400712A48FFF7ABFFE5
:1020300044E024480078401C2249087000202449CC
:1020400008603BE01F480078022837D1204800682C
:102050000A282BDAF5EEC08AF1EE10FA05DD4FF40E
:1020600000611C48FFF791FF28E0F5EEC08AF1EE11
:1020700010FA05D24FF480611648FFF786FF1DE085
:10208000B5EEC08AF1EE10FA05DD4FF4807111480B
:10209000FFF77BFF12E0B5EEC08AF1EE10FA0DD229
:1020A0004FF400710B48FFF770FF07E00548007818
:1020B000401E04490870002005490860BDEC028BF1
:1020C00010BD0000650200205E02002060020020BA
:1020D000680200200010024010B52DED028BF0EEDA
:1020E000408AB0EE608A0B48007801280ED10A4879
:1020F000007820B9B0EE680A02F0E8F806E0074878
:10210000007818B9B0EE480A02F006FABDEC028B6E
:1021100010BD00005C02002058020020590200207F
:102120001CB50121102000F0B5FB382000900020E4
:102130008DF8040001208DF8070002208DF80500BD
:1021400069460248FFF7B4FE1CBD000000100240C3
:102150001CB50121084600F09DFB082000900120DD
:102160008DF8040000208DF806008DF8070002208D
:102170008DF8050069460248FFF79AFE1CBD000075
:102180000000024010B5FFF727F90B480068801CDB
:1021900088B90A48007D00F0870040F048000749F0
:1021A000087500200649087006490870064908703D
:1021B000401E0649086010BD700200207C0A002005
:1021C0003503002024000020250000207802002094
:1021D00010B52DED028BB0EE408A2648007801281C
:1021E00044D125480068801C00283FD1234800784E
:1021F00020B9B0EE480AFFF757FA37E01F480078D9
:10220000012811D100201E4908701E4908701E497E
:1022100008701A4908701D48007D00F0870040F0E2
:1022200048001A49087521E01448007802281DD199
:1022300000F00CFB0120164908701448007D00F0E6
:102240007F001249087513480068801C70B94FF070
:10225000FF30094908600F490860002008490870EC
:10226000084908700849087004490870BDEC028BE1
:1022700010BD00005D020020500000205A02002026
:102280003503002024000020250000207C0A0020C7
:10229000360300205400002010B52DED028BB0EE67
:1022A000408A26480078012844D125480068801CCF
:1022B00000283FD12348007820B9B0EE480AFFF744
:1022C000B5FB37E01F480078012811D100201E49D6
:1022D00008701E4908701E4908701A4908701D4888
:1022E000007D00F0870040F048001A49087521E0A1
:1022F0001448007802281DD100F0A8FA01201649E0
:1023000008701448007D00F07F00124908751348DA
:102310000068801C70B94FF0FF30094908600F4910
:1023200008600020084908700849087008490870CA
:1023300004490870BDEC028B10BD00005D02002056
:10234000500000205A020020350300202400002005
:10235000250000207C0A00203603002054000020C5
:1023600010B52DED028BB0EE408A2248007801288E
:102370003CD121480068801C002837D11F480078D4
:1023800020B9B0EE480AFFF7D5F92FE01B480078D6
:10239000012809D100201A4908701A4908701A4901
:1023A00008701649087021E01448007802281DD1F1
:1023B00000F04CFA0120154908701548007D00F026
:1023C0007F001349087513480068801C70B94FF0EE
:1023D000FF30094908600F4908600020084908706B
:1023E000084908700849087004490870BDEC028B60
:1023F00010BD00005D020020500000205A020020A5
:102400003503002024000020250000203603002092
:102410007C0A00205400002010B500F0DBFC0B48C3
:102420000068801C88B90A48007D00F0870040F0F1
:1024300048000749087500200649087006490870D9
:1024400006490870401E0649086010BD7802002049
:102450007C0A0020350300202400002025000020F5
:102460007002002010B500F0F1F90B480068801CE4
:1024700088B90A48007D00F0870040F070000749E5
:10248000087500200649087006490870064908705A
:10249000401E0649086010BD540000207C0A002040
:1024A00024000020250000203503002050000020DB
:1024B00010B500F0DDF90B480068801C88B90A48A7
:1024C000007D00F0870040F0680007490875002093
:1024D000064908700649087006490870401E0649FA
:1024E000086010BD500000207C0A0020240000205D
:1024F00025000020350300205400002010B52DEDEC
:10250000028BB0EE408A26480078012844D1254845
:102510000068801C00283FD12348007820B9B0EE25
:10252000480A00F049FB37E01F480078012811D124
:1025300000201E4908701E4908701E4908701A497B
:1025400008701D48007D00F0870040F048001A49DF
:10255000087521E01448007802281DD100F076F9B2
:102560000120164908701448007D00F07F001249D0
:10257000087513480068801C70B94FF0FF30094996
:1025800008600F4908600020084908700849087071
:102590000849087004490870BDEC028B10BD0000AA
:1025A0005D020020500000205B0200203503002067
:1025B00024000020250000207C0A00203603002093
:1025C0005400002010B52DED028BB0EE408A284853
:1025D0000078012848D127480068801C002843D192
:1025E0002548007820B9B0EE480A01F06FFE3BE0C4
:1025F00021480078012815D1002020490870204981
:1026000008701D4908701F4908701F4908701F494C
:1026100008701F48007D00F0870040F048001C490A
:10262000087521E01448007802281DD100F00EF949
:102630000120184908701648007D00F07F001449F9
:10264000087515480068801C70B94FF0FF300949C3
:10265000086011490860002008490870084908709E
:102660000849087004490870BDEC028B10BD0000D9
:102670005C0200205000002058020020350300209A
:102680002400002025000020650200205E020020BA
:102690007C0A0020360300205400002010B52DEDE8
:1026A000028BB0EE408A00F0E3F82648007801285B
:1026B00044D125480068801C00283FD12348007879
:1026C00020B9B0EE480A01F027FF37E01F48007834
:1026D000012811D100201E4908701E4908701E49AA
:1026E00008701A4908701D48007D00F0870040F00E
:1026F00048001A49087521E01448007802281DD1C5
:1027000000F0A4F80120164908701448007D00F07C
:102710007F001249087513480068801C70B94FF09B
:10272000FF30094908600F49086000200849087017
:10273000084908700849087004490870BDEC028B0C
:1027400010BD00005C020020500000205902002053
:102750003503002024000020250000207C0A0020F2
:10276000360300205400002000BFFEE77047000041
:1027700070B5002100230F22C4781CB3174C2468C5
:1027800004F4E064C4F5E064C4F30721C1F1040477
:10279000E3B20A4144789C40E1B28478144021437A
:1027A0000C07210E0E4C05786155047804F01F05C6
:1027B0000124AC4005786D11AD0005F1E025C5F8A8
:1027C000004109E0047804F01F050124AC40054DE8
:1027D0000678761145F8264070BD00000CED00E04B
:1027E00000E400E080E100E010B51448007D00F056
:1027F000870040F040001149087511480068002822
:1028000009DB0F480068322805DC4FF480410D4891
:10281000FFF7B9FB11E00A480068322809DB0848D5
:1028200000683C2805DC4FF480410648FFF7ADFB0B
:1028300003E06FF001000249086010BD7C0A00202F
:1028400078020020000402407047000010B50748DD
:102850000068401C10B90020044908600348006863
:10286000002801DB00F0EEF910BD0000540000204C
:1028700010B507480068401C10B9002004490860E2
:1028800003480068002801DB00F002FA10BD0000D8
:102890005000002029B1064A12680243044B1A6016
:1028A00004E0034A12688243014B1A60704700003B
:1028B0003038024029B1064A12680243044B1A60BC
:1028C00004E0034A12688243014B1A60704700001B
:1028D0004038024029B1064A12680243044B1A608C
:1028E00004E0034A12688243014B1A6070470000FB
:1028F0004438024029B1064A12680243044B1A6068
:1029000004E0034A12688243014B1A6070470000DA
:1029100024380240F0B500210022002402250026C0
:102920000223324F3F6807F00C0121B1042905D082
:10293000082937D105E02E4F076036E02D4F07609C
:1029400033E02A4F3F1F3F68C7F38056274F3F1F92
:102950003F6807F03F036EB1264FB7FBF3F7DFF890
:102960008CC0ACF1040CDCF800C0CCF3881C07FB75
:102970000CF40CE01E4FB7FBF3F7DFF870C0ACF1BE
:10298000040CDCF800C0CCF3881C07FB0CF4174FD8
:102990003F1F3F68C7F301477F1C7D00B4FBF5F77D
:1029A000076002E0124F076000BF00BF0F4F3F6893
:1029B00007F0F0010909104F7A5C0768D7404760BB
:1029C0000A4F3F6807F4E051890A0B4F7A5C476869
:1029D000D7408760054F3F6807F46041490B064FB9
:1029E0007A5C4768D740C760F0BD000008380240F5
:1029F0000024F40000127A00140000201CB50446E4
:102A0000204601F023FA01210846FFF743FF062084
:102A1000009001208DF8040000208DF806000320AE
:102A20008DF8050001208DF8070069460448FFF77E
:102A30003FFA0020034908600349C1F888021CBD21
:102A400000000240840240420000404270B59AB04B
:102A50000024002500260020199064216846FDF717
:102A6000B6FBAA2050490870084602782146641C2B
:102A70004E484254641C4C4802792146641C4B4821
:102A80004254494842792146641C484842544648C9
:102A900082792146641C454842544348027A2146C3
:102AA000641C424842544048427A2146641C3F48D4
:102AB00042543D48827A2046611CCCB23B490A54BC
:102AC0003948027B2046611CCCB238490A5436484A
:102AD000427B2046611CCCB234490A543248827B86
:102AE0002046611CCCB231490A542F48027C204652
:102AF000611CCCB22D490A542B48427C2046611CF3
:102B0000CCB22A490A542848827C2046611CCCB2A7
:102B100026490A542448C27C2046611CCCB2234971
:102B20000A542148427D2046611CCCB21F490A54F8
:102B30001D48027D2046611CCCB21C490A54022566
:102B400008E01A48425D3046711CCEB20DF80020F4
:102B5000681CC5B2A542F4DB31466846FEF7F0FBBF
:102B600019909DF864202046611CCCB20F490A548C
:102B70009DF865202046611CCCB20C490A54EE2217
:102B80002046611CCCB209490A5408464470012011
:102B9000074908600749C1F888022146034800F048
:102BA0005BFF1AB070BD00007C0A00209F09002066
:102BB000840240420000404210B52DED028BB0EE81
:102BC000408A00241A4890ED000AB8EEC00A30EEA0
:102BD000480ABDEEC00A10EE104A006815490860A8
:102BE000B4F5967F11DD1248006800280DDD12480B
:102BF000007D00F0870040F028000F4908754FF471
:102C000080510E48FFF7BFF90EE0B4F5967F0BDA5E
:102C100007480068002807DD4FF480510748FFF798
:102C2000B4F9012006490870BDEC028B10BD00000C
:102C3000640A0020E40200207C0A00200004024014
:102C40005B02002010B510480068002809DB0E4820
:102C500000680F2805DC4FF400710C48FFF793F96A
:102C600011E0094800680F2809DB074800681E28A2
:102C700005DC4FF400710548FFF787F903E06FF0BA
:102C800001000149086010BD54000020000C024002
:102C900010B510480068002809DB0E4800680F28AE
:102CA00005DC4FF480710C48FFF76DF911E009481D
:102CB00000680F2809DB074800681E2805DC4FF470
:102CC00080710548FFF761F903E06FF001000149E9
:102CD000086010BD50000020000C02401CB501210E
:102CE0001A20FFF7D7FD4FF47040009001208DF8B7
:102CF000040000208DF8060001208DF80700022056
:102D00008DF8050069463048FFF7D2F84FF4E060CF
:102D1000009001208DF8040000208DF806000120AD
:102D20008DF8070002208DF8050069462748FFF757
:102D3000BFF84FF47060009001208DF8040000206F
:102D40008DF8060001208DF8070002208DF805009F
:102D500069461F48FFF7ACF84FF480711C48FFF735
:102D600014F94FF400711A48FFF70FF94FF480611E
:102D70001748FFF70AF94FF400611548FFF705F906
:102D80004FF480511048FFF700F94FF400510E48FE
:102D9000FFF7FBF84FF400410B48FFF7F6F84FF44C
:102DA00080410948FFF7F1F84FF480710748FFF7B9
:102DB000ECF84FF400710548FFF7E7F84FF4806135
:102DC0000248FFF7E2F81CBD00040240000C02407C
:102DD0000010024010B507480068401C10B90020E0
:102DE0000449086003480068002801DBFFF7FCFC89
:102DF00010BD00007802002010B52DED028BB0EE62
:102E0000408AB5EEC08AF1EE10FA3EDD3F48007808
:102E100040B94FF400613E48FFF7B7F801203B4945
:102E2000087070E039480078012812D139480068EC
:102E30000A2805DC4FF480613548FFF7A4F862E00A
:102E400032480078401C3149087000203149086040
:102E500059E02E480078022855D12E4800680228F3
:102E600005DC4FF480612A48FFF78FF84BE02748D4
:102E70000078401E25490870002026490860264831
:102E80000078401C244908703DE02048007840B993
:102E90004FF480611E48FFF778F801201B49087045
:102EA00031E01A480078012812D11A4800680A282F
:102EB00005DC4FF400611648FFF765F823E013487E
:102EC0000078401C114908700020124908601AE07F
:102ED0000E480078022816D10E480068022805DC4A
:102EE0004FF400610A48FFF750F80CE007480078FB
:102EF000401E064908700020064908600648007810
:102F0000401C05490870BDEC028B10BD5E0200201C
:102F100000100240600200206402002010B5074843
:102F20000078012808D10648007820B99FED050AED
:102F3000FFF742FE00E000BF10BD00005D02002070
:102F40005B02002000803B4510B50748007801284F
:102F500008D10648007820B99FED050AFFF72CFE3E
:102F600000E000BF10BD00005D0200205B020020F9
:102F700000803B4510B507480078012808D1064875
:102F8000007820B99FED050AFFF716FE00E000BFAC
:102F900010BD00005D0200205B02002000803B4568
:102FA0007047000030B500228B071C0F0F2303FA77
:102FB00004F20B4B8C1053F824309343084C8D10C3
:102FC00044F8253023468C1053F824308C07240F06
:102FD00000FA04F42343024C8D1044F8253030BD30
:102FE000083801400CB5002001900090344800687A
:102FF00040F480303249086000BF3148006800F476
:10300000003000900198401C0190009818B9019878
:10301000B0F5A04FF1D12A48006800F4003010B19B
:103020000120009001E0002000900098012846D186
:1030300023484030006840F080502149403108600A
:103040002048006840F440401E4908601C48083091
:1030500000681B49083108600846006840F40040D9
:1030600008600846006840F4A05008601648091F30
:103070000860081F006840F08070091F086000BFEA
:103080000F48006800F000700028F9D040F2057089
:103090000E4908600A480830006820F0030008491B
:1030A000083108600846006840F00200086000BF70
:1030B00003480830006800F00C000828F8D10CBD67
:1030C000003802400070004008544007003C0240B5
:1030D00010B500F015F910BD30B515480068154A57
:1030E000B0FBF2F1481EB0F1807F01D301201BE05C
:1030F000481E4FF0E022506150170F22002807DAD7
:1031000013071D0E0C4B00F00F04241F1D5503E088
:1031100013071C0E094B1C5400BF00204FF0E02287
:10312000906107201061002008B100BFFEE730BDAC
:1031300000000020A086010018ED00E000E400E09F
:1031400010B51548006840F4700013490860134832
:10315000006840F001001149086000200F49083163
:1031600008600E4800680E4908400C4908600D4888
:10317000091D0860081F006820F48020091F0860EE
:10318000002006490C310860FFF72CFF4FF000606B
:1031900001498039086010BD88ED00E00038024028
:1031A000FFFFF6FE1030002410B50121054800F0A5
:1031B0004AF808B101F0BEFC0121024800F034F8E1
:1031C00010BD0000001400407FB505460C460121EB
:1031D0002020FFF76FFB0295A0B2ADF8040000209D
:1031E000ADF80600ADF80C0001A90E4800F046F855
:1031F000012211460B4800F037F80021094800F081
:1032000016F837208DF8000001208DF8010003200A
:103210008DF8020001208DF803006846FFF7A8FA38
:103220007FBD000000140040CA430282704721B1F4
:10323000028842F00102028004E002884FF6FE7329
:103240001A400280704730B5024600200023002457
:10325000158A05EA0103958905EA010413B10CB149
:10326000012000E0002030BD1AB183890B43838127
:1032700002E083898B43838170470000002202882B
:10328000184B98420ED0184B98420BD0B0F1804F9B
:1032900008D0164B984205D0154B984202D0154BDA
:1032A000984204D14FF68F731A404B881A43124B41
:1032B000984207D0114B984204D04FF6FF431A4072
:1032C0000B891A4302804B68C3620B880385054B48
:1032D000984202D0044B984201D18B7A0386012395
:1032E0008382704700000140000401400004004058
:1032F00000080040000C0040001000400014004096
:103300000448006820B103480068401E0149086075
:10331000704700003800002000B58FB01948FEF754
:10332000BBF800211748FEF7ABF800BF1548FEF7C1
:103330005FF90028FAD16420049004200B90032048
:103340000C9000200D9008904FF480600690801043
:1033500009900D48019000200E90079005904FF4C1
:1033600080300A90C002009000200390074802902D
:1033700069460448FEF768F901210248FEF780F823
:103380000FB000BD40600240044C0040C208002065
:1033900030B58FB004460D461448FEF77DF800BFE7
:1033A0001248FEF725F90028FAD1049504200B9065
:1033B00003200C9000200D9008904FF48060069040
:1033C000002009900A48019000200E900790059077
:1033D0004FF400300A908002009040200390029445
:1033E00069460248FEF730F90FB030BD7060024008
:1033F000044C004010B540F22441134800F014FE84
:1034000001280BD1104800F00DFF1048FEF7FAF824
:10341000C0F16400C4B200F023F814E040F2266169
:10342000094800F001FE01280DD140F2266106484E
:1034300000F065FD064805494039C8600021034891
:103440003030FEF71DF810BD004C004040600240D7
:103450003D00002010B50446204601F0E7FA10BDFB
:1034600010B500210848FEF70BF800BF0648FEF72C
:10347000BFF80028FAD164210348FEF711F90121B1
:103480000148FDF7FDFF10BD4060024000B58FB060
:103490001948FEF701F800211748FDF7F1FF00BFBA
:1034A0001548FEF7A5F80028FAD1642004900420FE
:1034B0000B9003200C9000200D9008904FF480603A
:1034C0000690801009900D48019000200E90079002
:1034D00005904FF480300A90C002009000200390C5
:1034E0000748029069460448FEF7AEF801210248F9
:1034F000FDF7C6FF0FB000BD886402400410014014
:103500007C03002030B58FB004460D461448FDF70B
:10351000C3FF00BF1248FEF76BF80028FAD10495EC
:1035200004200B9003200C9000200D9008904FF485
:1035300080600690002009900A48019000200E90BB
:10354000079005904FF400300A90800200904020D0
:103550000390029469460248FEF776F80FB030BD3A
:10356000B86402400410014070B52DED048B40F2A8
:103570002441714800F058FD01287DD16E4800F0CB
:1035800051FE64206D4908606D48FEF73BF86D49B7
:1035900008606B48FEF736F8C0F16400C4B200F072
:1035A000FDFD082C69D168480078DD28FAD100209B
:1035B00008E06549095C654A12781144634A117054
:1035C000411CC8B20728F4DB5F48C0795F4909781D
:1035D00088427CD15E48406980F008005C494861BF
:1035E000594840785849897840EA012000EE100A8D
:1035F000B8EEC00A574880ED140A5348C0785249C3
:10360000097940EA012000EE100AB8EEC00A5148DC
:1036100080ED150A4C4840794B49897940EA0120F0
:1036200000EE100AB8EEC00A4A4880ED160A90ED86
:10363000140ADFED490A20EE200A9FED481AC0EE79
:10364000010A9FED470AB1EE041A11EE200ADFEDE0
:10365000450A30EE200A80ED040A90ED150ADFEDF0
:103660003E0A20EE200A9FED3D1AC0EE010A9FEDB2
:103670003E0AB2EE041A01E045E043E011EE200AF2
:10368000DFED380A30EE200A10EE105A2846FCF71B
:103690009BFE41EC190B9FED350B53EC102BFCF707
:1036A000A1FD41EC180BFCF7A2FE2A49486108462F
:1036B00090ED160ADFED280A20EE200A9FED271A6A
:1036C000C0EE010A9FED260AB1EE041A00E016E0F2
:1036D00011EE200ADFED230A30EE200A80ED060A03
:1036E00090ED050ABDEEC00A224880ED010A0846A9
:1036F00090ED060ABDEEC00A1E4880ED020A0020C9
:103700001249087015E040F226610B4800F08CFC6D
:1037100001280ED140F22661074800F0F0FB4FF07F
:103720003D5007497C390860002105483030FDF7DD
:10373000A7FEBDEC048B70BD0010014040000020CE
:1037400088640240440000207C0300203D000020EB
:1037500000000240040A002000404E450000804561
:1037600000803B45000070420080BB450000000027
:103770000000E03F7C0A002010B50446204600F01F
:10378000CDFF10BD10B52DED048B40F224418348D0
:1037900000F04AFC01287CD1804800F043FD8048BD
:1037A000FDF730FFC0F57A70C4B200F00DFD102CAB
:1037B00070D17C480078BB28FAD1002008E0794914
:1037C000095C794A12781144774A1170411CC8B2D9
:1037D0000F28F4DB7348C07B7349097888427CD199
:1037E0007248406980F00800704948616D49C978A5
:1037F00009066C4A927841EA02416A4A527841EAE3
:103800000220C11700EB11610912694A1160654974
:103810000979644A527941EA022108B2FCF7C3FDF2
:1038200041EC190B9FED630B53EC102BFCF74CFD97
:1038300041EC180BFCF7DBFD5D49C86059498979FB
:10384000584AD27941EA022108B2FCF7ACFD41ECBA
:10385000190B9FED580B53EC102BFCF735FD41EC89
:10386000180BFCF7C4FD524908614E49097A4D4ACC
:10387000527A41EA022108B2FCF795FD41EC190B9E
:103880009FED4C0B53EC102BFCF71EFD41EC180B7D
:1038900001E06BE069E0FCF7AAFD45494861414859
:1038A000C07A4049097B40EA012000EE100AB8EED8
:1038B000C00A424880ED100A90ED100ADFED400A80
:1038C00020EE200A9FED3F1AC0EE010A9FED3E0A4E
:1038D000B1EE041A11EE200A00E043E080ED000A88
:1038E000334800683949C860314890ED030ABDEE9D
:1038F000C00A10EE100A00B2002809DA2C4890ED38
:10390000030ABDEEC00A10EE100A00B2404207E002
:10391000274890ED030ABDEEC00A10EE100A00B26F
:1039200000B22A490882224890ED030ABDEEC00A7F
:1039300010EE100A00B2002809DA1D4890ED030AC3
:10394000BDEEC00A10EE100A00B2404207E018486F
:1039500090ED030ABDEEC00A10EE100A00B200B2EC
:103960001A49488200201049087014E040F226618C
:103970000A4800F059FB01280DD140F226610748A2
:1039800000F0BDFA124806498839C8600021044891
:103990001830FDF775FDBDEC048B10BD00440040F0
:1039A00088600240FD030020480000200000024023
:1039B000640A00200000000000005940040A0020B2
:1039C00000404E450000804500803B457C0A0020B9
:1039D00000003D2010B50446204600F021FF10BD38
:1039E00000B58FB01948FDF757FD00211748FDF7C6
:1039F00047FD00BF1548FDF7FBFD0028FAD1642004
:103A0000049004200B9003200C9000200D9008904F
:103A10004FF480600690801009900D4801900020BE
:103A20000E90079005904FF480300A90C0020090ED
:103A3000002003900748029069460448FDF704FE01
:103A400001210248FDF71CFD0FB000BD28600240B7
:103A500004480040FA07002070B504460D460021D6
:103A60000848FDF70DFD00BF0648FDF7C1FD002821
:103A7000FAD104485838C565446601210148FDF76C
:103A8000FFFC70BD5860024030B58FB004460D4653
:103A90001448FDF701FD00BF1248FDF7A9FD0028FD
:103AA000FAD1049504200B9003200C9000200D9077
:103AB00008904FF480600690002009900A48019019
:103AC00000200E90079005904FF400300A9080027D
:103AD000009040200390029469460248FDF7B4FD2F
:103AE0000FB030BD586002400448004070B59AB035
:103AF000002440F22441C84800F096FA01287DD104
:103B0000C54800F08FFBC548FDF77CFDC0F164009F
:103B1000C6B200F0A1F9C2480078AB2834D1032026
:103B200007E0BF490B5C2146621CD4B201AA535482
:103B3000401CBB494978891E8142F2DCB848407874
:103B4000801EB749095CB6484078401EB44A105CF4
:103B500041EA0025214601A8FDF7F2FBA842DDD18C
:103B6000AF48807800F0070001280ED1AD48007DF5
:103B700000F0F800AB4908750846007D40F00100F0
:103B800008750120A849087027E1A548807800F051
:103B9000070002287ED1A5480068801C00286FD14C
:103BA0009F488078C010A249087008460078012814
:103BB00003D008460078022825D19A48007D00F0FD
:103BC000780048285CD001209A4908709A4908700A
:103BD0009348807B00049249497B40EA0120904948
:103BE000097B0843954908608D48407C00048C4956
:103BF000097C40EA01208A49C97B00E0EEE00843E5
:103C00008E4988603CE08A48007803281BDB88489E
:103C10000078082817DC8348007D00F078004828E9
:103C20002ED07F48007D00047D49C97C40EA0120F8
:103C30007B49897C08438149886101207D4908705E
:103C40007D4908701CE07A480078092805D10120D8
:103C5000784908707849087012E0754800780A2899
:103C600005D10120734908707349087008E0704855
:103C7000007828B96B48007D00F087006949087515
:103C80006748407D00F00700012809D169490870A4
:103C9000694900E021E008700B20654908700DE0DB
:103CA0005F48407D00F00700022807D101206149EC
:103CB0000870614908700C205D4908705948007D02
:103CC00000F0F800574908750846007D40F00200F2
:103CD00008750120544908707FE05148807800F051
:103CE000070003284AD14E48407D00F0080008280C
:103CF00029D14B48807B00044949497B40EA012097
:103D00004749097B08434D4908604548407C000409
:103D10004349097C40EA01204149C97B084347499E
:103D200088603F48007D00043D49C97C40EA01208D
:103D30003B49897C08434149886101203D4908701D
:103D400002203D4908703648407D001138B13C489A
:103D5000007820B93248407D001139490870314857
:103D6000007D00F0F8002F4908750846007D40F0FE
:103D70000300087501202C4908702EE0284880783F
:103D800000F00700042828D12548807B000424493E
:103D9000497B40EA01202249097B08432749086002
:103DA0001F48407C00041E49097C40EA01201C4950
:103DB000C97B08432149886001201E4908700320FF
:103DC0001D4908701748007D00F0F8001549087576
:103DD0000846007D40F0040008751BE040F22661B3
:103DE0000D4800F021F9012814D140F226610A485B
:103DF00000F085F84FF07460084928398860002188
:103E000006483030FDF73CFB00200E4908600E49A3
:103E1000C1F888021AB070BD004800402860024016
:103E2000FA0700207C0A0020260000205000002015
:103E30003503002024000020250000205C03002022
:103E40003B030020840240420000404210B504467B
:103E5000204600F067FD10BD10B500210848FDF7B1
:103E60000FFB00BF0648FDF7C3FB0028FAD1642111
:103E70000348FDF715FC01210148FDF701FB10BDCA
:103E80002860024010B540F22441144800F0CCF8FC
:103E900001280CD1114800F0C5F91148FDF7B2FB1B
:103EA000C0F164000F49087000F0A6F914E040F278
:103EB00026610A4800F0B8F801280DD140F22661C9
:103EC000064800F01CF8084805491C390860002124
:103ED00003487830FDF7D4FA10BD0000001401400B
:103EE000286402404900002000003D2001F40072D7
:103EF000B2F5007F00D100BFCA430280704710B501
:103F00000022002340F66A14A14200D100BF0A1229
:103F100001249440A3B2DC43048010BD21B1828906
:103F200042F40052828104E082894DF6FF731A4008
:103F3000828170471AB1838A0B43838202E0838AAD
:103F40008B4383827047000000B58FB01A48FDF79D
:103F5000A3FA00211848FDF793FA00BF1648FDF7B1
:103F600047FB0028FAD14FF47A70049004200B909C
:103F700003200C9000200D9008904FF48060069074
:103F8000801009900D48019000200E900790059038
:103F90004FF480300A90C00200900020039008483F
:103FA000029069460448FDF74FFB01210248FDF7E6
:103FB00067FA0FB000BD0000886002400444004072
:103FC000FD03002030B58FB004460D461448FDF7C0
:103FD00063FA00BF1248FDF70BFB0028FAD10495E5
:103FE00004200B9003200C9000200D9008904FF4BB
:103FF00080600690002009900A48019000200E90F1
:10400000079005904FF400300A9080020090402005
:104010000390029469460248FDF716FB0FB030BDCD
:10402000A06002400444004070B502460024002312
:104030000025002040F66A16B14200D100BFC1F34E
:10404000421501F01F03012606FA03F3012D02D1E8
:104050009689334006E0022D02D1168A334001E0F2
:10406000968A33400C12012606FA04F4168834406E
:1040700013B10CB1012000E0002070BDF0B5034683
:10408000002400260025002040F66A17B94200D11E
:1040900000BF1846C1F3421401F01F06012707FABA
:1040A00006F5012C01D10C3004E0022C01D11030B6
:1040B00000E014301AB107682F43076002E0076878
:1040C000AF430760F0BD00002DE9FF4705460E46EF
:1040D0000024A14600BFA046B08900B100BF2C8AD1
:1040E00024F44054F08804432C82AC8941F20C60E3
:1040F0008443B08831890843718908430443AC8103
:10410000AC8A24F44074B0890443AC826846FEF75C
:1041100001FC2048854202D01F48854202D1DDF8CB
:104120000C9001E0DDF80890A88900F4004040B14F
:1041300009EBC90000EB091031684900B0FBF1F749
:1041400007E009EBC90000EB091031688900B0FBFA
:10415000F1F76420B7FBF0F004012009642101FBB2
:104160001078A88900F4004040B1322000EBC8006C
:10417000B0FBF1F000F00700044308E0322000EB50
:1041800008106421B0FBF1F000F00F0004432C8113
:10419000BDE8FF87001001400014014010B5002168
:1041A0000848FDF76DF900BF0648FDF721FA002821
:1041B000FAD164210348FDF773FA01210148FDF7A4
:1041C0005FF910BD8864024010B500210948FDF771
:1041D00057F900BF0748FDF70BFA0028FAD14FF452
:1041E0007A710448FDF75CFA01210248FDF748F9AD
:1041F00010BD00008860024010B500210848FDF79E
:104200003FF900BF0648FDF7F3F90028FAD1642111
:104210000348FDF745FA01210148FDF731F910BDCA
:104220002864024001468888C0F30800704700BF38
:10423000FEE7000010B52DED028BB0EE408A20485D
:10424000007818B901201E49087036E01C48007833
:10425000012817D11B4800680A280ADAB5EEC08A7F
:10426000F1EE10FA29DD4FF400511748FDF78BFEEF
:1042700023E013480078401C1149087000201149C0
:1042800008601AE00E480078022816D10D48006830
:104290000A280ADAB5EEC08AF1EE10FA0DDD4FF405
:1042A00000510948FDF771FE07E005480078401EFF
:1042B00003490870002003490860BDEC028B10BD63
:1042C00065020020680200200004024010B52DEDB8
:1042D000028BF0EE408A9FED840AB0EE408A83485C
:1042E00090ED050AB5EEC00AF1EE10FA1FD2804833
:1042F000007864280ADA7E480078401C7C490870FF
:104300007A4890ED0D0A80ED050A13E04FF4006144
:104310007848FDF73AFE4FF480617648FDF735FEA8
:1043200000207349087002207349087002E00020E1
:104330006F4908706D4890ED050A30EE680AB0EEDE
:10434000408A90ED050A80ED0D0AB5EEC08AF1EEC7
:1043500010FA02D2B1EE480A01E0B0EE480ADFEDF1
:10436000670AB4EEE00AF1EE10FA33DD5F4890ED33
:10437000050AB5EEC00AF1EE10FA2BDD90ED050A44
:1043800030EE680AB0EE408AB5EEC08AF1EE10FA5F
:104390000DD25B48007D00F0870040F010005849C6
:1043A00008754FF480615348FDF7EDFD98E0B5EED8
:1043B000C08AF1EE10FA0CDD5148007D00F0870054
:1043C00040F008004E4908754FF400614948FDF778
:1043D000DAFD85E0B5EEC08AF1EE10FA02D2B1EE58
:1043E000480A01E0B0EE480ADFED440AB4EEE00A04
:1043F000F1EE10FA74D23D4890ED050AB5EEC00A10
:10440000F1EE10FA6CDDB5EEC08AF1EE10FA31D2A1
:104410009FED3C0AB4EEC08AF1EE10FA08D23A4899
:104420000078022804DAB0EE480AFEF7E5FC57E00F
:104430009FED340AB4EEC08AF1EE10FA0AD2324887
:104440000078022806DBDFED280AB0EE480AFDF707
:10445000A9FD45E04FF480612648FDF796FD002058
:104460002949087029490870294908600120224912
:10447000087035E0B5EEC08AF1EE10FA30DB9FED42
:10448000250AB4EEC08AF1EE10FA08DD1E48007865
:10449000022804DAB0EE480AFEF7AEFC20E09FEDF9
:1044A0001D0AB4EEC08AF1EE10FA0ADD1648007853
:1044B000022806DBDFED0C0AB0EE480AFDF772FDBC
:1044C0000EE04FF400610B48FDF75FFD00200E4940
:1044D00008700E4908700E490860012006490870EE
:1044E000BDEC028B10BD000000000000040A00209B
:1044F000AC02002000100240580200200000FA44E4
:104500007C0A0020000048C36402002065020020ED
:10451000680200200000484310B52DED028BF0EE3C
:10452000408A9FED6B0AB0EE408A6A4890ED060A19
:10453000B5EEC00AF1EE10FA1FD267480078642881
:104540000ADA65480078401C63490870614890EDBC
:104550000E0A80ED060A13E04FF400715F48FDF784
:1045600014FD4FF480715D48FDF70FFD00205A499E
:10457000087002205A49087002E00020564908706D
:10458000544890ED060A30EE680AB0EE408A90ED8D
:10459000060A80ED0E0AB5EEC08AF1EE10FA02D2DC
:1045A000B1EE480A01E0B0EE480ADFED4E0AB4EE83
:1045B000E00AF1EE10FA2DDD464890ED060AB5EE60
:1045C000C00AF1EE10FA25DDB5EEC08AF1EE10FA60
:1045D0000DDD4548007D00F0870040F0180042499D
:1045E00008754FF480713D48FDF7CDFC6CE0B5EEE9
:1045F000C08AF1EE10FA67D23B48007D00F08700D8
:1046000040F02000384908754FF400713348FDF739
:10461000BAFC59E0B5EEC08AF1EE10FA02D2B1EE62
:10462000480A01E0B0EE480ADFED2E0AB4EEE00AD7
:10463000F1EE10FA48D2274890ED060AB5EEC00A0E
:10464000F1EE10FA40DDB5EEC08AF1EE10FA1BD2A1
:104650009FED260AB4EEC08AF1EE10FA06D2F0EE13
:10466000480A9FED1B0AFDF79DFC2DE04FF40071F9
:104670001A48FDF78AFC00201D4908701D49086092
:104680000120174908701FE0B5EEC08AF1EE10FA5C
:104690001ADD9FED190AB4EEC08AF1EE10FA06DDBC
:1046A000F0EE480A9FED0A0AFDF77CFC0CE04FF49F
:1046B00080710A48FDF769FC00200D4908700D491A
:1046C0000860012006490870BDEC028B10BD000097
:1046D00000000000040A0020AD020020001002408B
:1046E000590200200000FA447C0A0020000048C360
:1046F00065020020680200200000484302E008C86C
:10470000121F08C1002AFAD170477047002001E04B
:1047100001C1121F002AFBD17047000010B588B0FC
:10472000044601210846FEF7B5F801211020FEF7E6
:10473000D1F801218805FEF7ADF807220921354897
:10474000FDF7FEFB07220A213248FDF7F9FB0220A4
:104750008DF80C0003208DF80D0000208DF80E0060
:1047600001208DF80F004002029002A92948FDF7B0
:104770009FFB4FF48060029002A92648FDF798FB4A
:1047800004940020ADF81400ADF81600ADF8180040
:10479000ADF81C000C20ADF81A0004A91E48FFF764
:1047A00093FCFEF773FE0A210020FEF7ABFE012208
:1047B00040211948FFF7BEFB012280211648FFF770
:1047C000B9FB012210211548FCF720FF25208DF8A8
:1047D000040001208DF805008DF806008DF8070013
:1047E00001A8FDF7C5FF012240F224410A48FFF766
:1047F00045FC012240F226610748FFF73FFC0121FA
:104800000548FFF78BFB40210348FFF76FFB08B01B
:1048100010BD00000000024000100140B8640240DA
:1048200010B588B0044601210820FEF733F80121B5
:104830004804FEF73FF801214805FEF72BF8072250
:1048400005213548FDF77CFB072206213248FDF79C
:1048500077FB02208DF80C0003208DF80D0000205E
:104860008DF80E0001208DF80F002020029002A983
:104870002948FDF71DFB4020029002A92648FDF7BC
:1048800017FB04940020ADF81400ADF81600ADF845
:104890001800ADF81C000C20ADF81A0004A91F4840
:1048A000FFF712FCFFF750FB0A210020FFF78AFBFD
:1048B000012240211948FFF73DFB012280211748C2
:1048C000FFF738FB012210211548FCF79FFE262038
:1048D0008DF8040001208DF8050002208DF80600F7
:1048E00001208DF8070001A8FDF742FF012240F2E8
:1048F00024410A48FFF7C2FB012240F22661074823
:10490000FFF7BCFB01210548FFF708FB40210348E6
:10491000FFF7ECFA08B010BD000C02400044004064
:10492000A060024010B588B0044601210220FDF7C6
:10493000B1FF01218804FDF7BDFF01214805FDF706
:10494000A9FF07220A213648FDF7FAFA07220B21B0
:104950003348FDF7F5FA02208DF80C0003208DF89E
:104960000D0000208DF80E0001208DF80F00800250
:10497000029002A92A48FDF79BFA4FF400600290CA
:1049800002A92748FDF794FA04940020ADF814001A
:104990004FF40050ADF816000020ADF81800ADF847
:1049A0001C000C20ADF81A0004A91E48FFF78CFB70
:1049B000FFF716F80A210020FFF766F801224021D0
:1049C0001848FFF7B7FA012280211648FFF7B2FA1C
:1049D000012210211448FCF719FE27208DF804004D
:1049E00001208DF805008DF806008DF8070001A85C
:1049F000FDF7BEFE012240F224410A48FFF73EFBCC
:104A0000012240F226610748FFF738FB01210548E3
:104A1000FFF784FA40210348FFF768FA08B010BD99
:104A200000040240004800405860024010B588B0C1
:104A3000044601210420FDF72DFF0121C804FDF7E4
:104A400039FF01214805FDF725FF08220A213648D4
:104A5000FDF776FA08220B213348FDF771FA0220A0
:104A60008DF80C0003208DF80D0000208DF80E004D
:104A700001208DF80F008002029002A92A48FDF75C
:104A800017FA4FF40060029002A92748FDF710FAC8
:104A900004940020ADF814004FF40050ADF8160057
:104AA0000020ADF81800ADF81C000C20ADF81A007D
:104AB00004A91E48FFF708FBFEF72EFC0A21002080
:104AC000FEF766FC012240211848FFF733FA012265
:104AD00080211648FFF72EFA012210211448FCF716
:104AE00095FD34208DF8040001208DF805008DF827
:104AF00006008DF8070001A8FDF73AFE012240F2FA
:104B000024410A48FFF7BAFA012240F22661074819
:104B1000FFF7B4FA01210548FFF700FA40210348E6
:104B2000FFF7E4F908B010BD00080240004C004057
:104B3000706002404148C088401C4049C880084617
:104B40000089401C088108464089401C488108466D
:104B50008089401C88810846C089401CC88108465D
:104B6000C088142868DA08460089322804DB084621
:104B70000089323808815FE030484089C8284BDB23
:104B80002E484089C8382D4948812D480078012891
:104B900003D02B480078022804D12A480068401C22
:104BA0002849086028480078012803D02648007862
:104BB000022804D125480068401C24490860244884
:104BC0000068002804DB22480068401C2049086077
:104BD00020480068002804DB1E480068401C1D496E
:104BE00008601D480068002804DB1B480068401C62
:104BF0001949086019480068002804DB1748006854
:104C0000401C1649086016480078A8B91548007875
:104C1000401C144908700FE008488089B0F5C87F2F
:104C20000ADA0648C089B0F5FA6F05DB0348C08987
:104C3000A0F5FA600149C88170470000940A00207D
:104C40005E02002060020020650200206802002051
:104C50007002002078020020500000205400002044
:104C600026000020A1020020FEF736FAFBF71EFE08
:104C70006C4890ED040A80ED0C0A90ED050A80ED79
:104C80000D0A90ED060A80ED0E0A90ED000A80ED07
:104C9000080A90ED070A80ED0F0A6348007D40F096
:104CA000F0006149087501216048FEF7C0FAB7E0DD
:104CB0005F48C088142870DB5E480078012803D163
:104CC00002205C49087086E05A48007800286ED0BF
:104CD0005848007802287ED15748007801286DD1C5
:104CE000564800780D2867D2DFE800F06607111BF0
:104CF000252F39434D585B5E63005148D0ED000AC3
:104D0000F8EEE00AB0EE600AFDF75CFC55E04C48B6
:104D1000D0ED020AF8EEE00AB0EE600AFDF7BEFC44
:104D20004BE04748D0ED060AF8EEE00AB0EE600A24
:104D3000FDF7E4FB41E04248D0ED060AF8EEE00A58
:104D4000B0EE600AFDF7DAFB37E03D48D0ED060A29
:104D5000F8EEE00AB0EE600AFDF7D0FB2DE038482F
:104D6000D0ED060AF8EEE00AB0EE600AFDF7F8FAB8
:104D700023E03348D0ED060AF8EEE00AB0EE600A10
:104D8000FDF726FA19E02E48D0ED060AF8EEE00A03
:104D9000B0EE600AFDF780FA0FE021E0FDF7F2F9CE
:104DA0000BE0FDF739FB08E0FDF782FB05E012E0C0
:104DB00004E0FDF757FB00E000BF0CE01E48007860
:104DC000022802D1FBF740FF05E01B4800780328CA
:104DD00001D1FBF78FFD1648C08814381449C880EC
:104DE00013488089B0F5C87F1ADB1648007801287F
:104DF00006D1FDF72BFE00201249087012490870F9
:104E00001248007818B912480078012802D1012010
:104E10001049086006488089A0F5C8700449888157
:104E200046E70000040A00207C0A0020001400402D
:104E3000940A0020240000202500002035030020D3
:104E40005C03002026000020A10200208002002038
:104E500036030020A8824142784E0008000000205E
:104E60003C030000B2050008C84F00083C030020C6
:104E70006C0B00000C47000811847A030A680901D2
:104E8000020304060708090CA910210621020A02E0
:104E900012115AFF01112808C1814001C08041044C
:104EA000690C2908E918A91C091A300916380936AD
:104EB00060092E70092F6000FF00C0C101C303020A
:104EC000C2C60607C705C5C404CC0C0DCD0FCFCE96
:104ED0000E0ACACB0BC90908C8D81819D91BDBDAC6
:104EE0001A1EDEDF1FDD1D1CDC14D4D515D71716E6
:104EF000D6D21213D311D1D010F03031F133F3F2F6
:104F00003236F6F737F53534F43CFCFD3DFF3F3ED5
:104F1000FEFA3A3BFB39F9F83828E8E929EB2B2A65
:104F2000EAEE2E2FEF2DEDEC2CE42425E527E7E625
:104F30002622E2E323E12120E0A06061A163A3A295
:104F40006266A6A767A56564A46CACAD6DAF6F6E15
:104F5000AEAA6A6BAB69A9A86878B8B979BB7B7A45
:104F6000BABE7E7FBF7DBDBC7CB47475B577B7B665
:104F70007672B2B373B17170B05090915193535235
:104F80009296565797559594549C5C5D9D5F9F9E55
:104F90005E5A9A9B5B99595898884849894B8B8AE5
:104FA0004A4E8E8F4F8D4D4C8C44848545874746A5
:104FB00086824243834181800218401AFF01A9087A
:084FC00001BB0200FF0000002C
:040000050800018965
:00000001FF
