:020000040800F2
:10000000700A00209D010008ED120008470A000850
:10001000E912000855050008C32C00080000000084
:10002000000000000000000000000000711C00083B
:100030001D0800080000000069130008A11D000849
:10004000B7010008B7010008B7010008B7010008B0
:10005000B7010008B7010008B7010008B7010008A0
:10006000B7010008B7010008B7010008B701000890
:10007000B7010008B7010008B7010008B701000880
:10008000B7010008B7010008B7010008B701000870
:10009000B7010008B7010008B7010008B701000860
:1000A000B7010008B7010008B7010008B701000850
:1000B000B7010008B7010008B7010008B701000840
:1000C000B7010008B7010008B7010008B701000830
:1000D000B701000889210008A92700081528000891
:1000E00099080008B7010008B7010008B701000827
:1000F000B7010008B7010008B7010008B701000800
:10010000B7010008B7010008B7010008B7010008EF
:10011000C5200008B7010008B7010008791E0008D3
:10012000B7010008B7010008B7010008B7010008CF
:10013000B7010008B7010008B7010008B7010008BF
:10014000B7010008B7010008B7010008B7010008AF
:10015000B7010008B7010008B701000875280008BA
:10016000B7010008B7010008B7010008B70100088F
:10017000B7010008B7010008B7010008B70100087F
:10018000B7010008B7010008DFF80CD000F018F83C
:100190000048004711370008700A002006488047D1
:1001A00006480047FEE7FEE7FEE7FEE7FEE7FEE75C
:1001B000FEE7FEE7FEE7FEE7111E000889010008E2
:1001C000064C074D06E0E06840F0010394E80700A4
:1001D00098471034AC42F6D3FFF7DAFFA437000893
:1001E000C437000821B1826842F00102826003E056
:1001F000826822F001028260704700000021084AF4
:100200001168084A1140D0E900231A4383681A4351
:10021000C3681A431143044AC2F80413704700002C
:1002200004230140E030FCFF0020014021B182683E
:1002300042F48072826003E0826822F480728260FD
:10024000704721B1826842F40072826003E08268E4
:1002500022F400728260704700B58DB00121022047
:1002600001F084F80121080201F0A0F801200B90B0
:1002700003208DF8300000208DF833000BA92148B1
:1002800000F072FB0121080201F0A0F800214FF4F8
:10029000807001F09BF8002007904FF470600A9086
:1002A0004FF4804009908000089007A8FFF7A6FF50
:1002B000002001908DF8080001208DF80900002031
:1002C0000390059001208DF8180001A90E4800F058
:1002D0001DF801210C48FFF785FF072301220821A3
:1002E000094800F03DF800F04FF9074800F094F895
:1002F00001210548FFF7A5FF01210348FFF796FFFD
:100300000DB000BD000402400020014030B502469F
:10031000002000235068104C20400D790C6844EAFE
:1003200005242043506090680C4C2040D1E90354D0
:100330002C438D682C434D7944EA4504204390605A
:10034000D06A20F470000C7D641EE4B2234340EABE
:100350000350D06230BD0000FFFEFFFCFDF7FFC080
:10036000F0B504460D4600200021092D11DDE0689E
:10037000A5F10A0606EB4607072606FA07F18843A9
:10038000A5F10A0606EB460603FA06F10843E0600B
:100390000CE0206905EB4507072606FA07F18843BC
:1003A00005EB450603FA06F108432061072A0FDA38
:1003B000606B561E06EB86071F2606FA07F1884378
:1003C000561E06EB860605FA06F10843606322E036
:1003D0000D2A0FDA206BD61F06EB86071F2606FABA
:1003E00007F18843D61F06EB860605FA06F1084397
:1003F000206310E0E06AA2F10D0606EB86071F26D7
:1004000006FA07F18843A2F10D0606EB860605FA07
:1004100006F10843E062F0BD816841F080418160EF
:10042000704700001CB50121102000F09FFF4FF421
:100430000060009001208DF8040000208DF8060077
:100440008DF8070002208DF805006946014800F08C
:100450008BFA1CBD0010024010B500F0F7FD00F053
:10046000DDFDFFF7F9FEFFF7DDFF01F05BF800F0BF
:10047000D7F94FF4E13002F091F94FF4E13002F096
:10048000C3F94FF4E13001F04DFE532140F2F31077
:1004900001F002FD10BD000010B501F02FF801F0D1
:1004A00043F9254890ED000ADFED240A30EEC00A3A
:1004B000DFED230A30EE600ADFED220A30EE200A7B
:1004C00080ED000A90ED021AF0EE410A90ED001A5C
:1004D000B0EE410A00F0BAFA1748D0ED040AB0EEC7
:1004E000600A02F077FD00F037F801F00BF901F037
:1004F00075FADFED150A9FED150A00F0A7FA00F076
:10050000BFFD01F051F801F0FDF801F00DF91048C0
:1005100090ED021AF0EE410A90ED001AB0EE410A99
:1005200000F094FA0A48D0ED040AB0EE600A02F036
:10053000CBFB00F0CFFF10BD5806002000007A462C
:100540000000FA44002032460080894500C08F45F3
:100550004006002000BFFEE710B54FF400410848F8
:1005600000F06DFA002403E0064803F0C5F8641CAF
:10057000142CF9DB4FF40041014800F062FA10BD81
:10058000000C0240A086010000B58FB00121880553
:1005900000F0ECFE00BF154800F0E6F80028FAD1A4
:1005A000009013480190134802900020039001200E
:1005B00004900020059006904FF40060079008908A
:1005C000C010099040020A9000200B9001200C906E
:1005D00000200D900E906946044800F0F1F80121CA
:1005E000024800F009F80FB000BD0000106402409E
:1005F0004C2001403200002021B1026842F001028B
:10060000026003E0026822F001020260704700000D
:10061000016821F0010101600021016041608160F9
:10062000C1600161212141614A49884204D13D21D3
:10063000484A103A91608CE046491831884205D109
:100640004FF47461434A103A916082E0414930317D
:10065000884205D14FF474113E4A103A916078E017
:100660003C494831884205D14FF07461394A103A0B
:1006700091606EE037496031884204D13649354A8D
:10068000103AD16065E033497831884204D133496A
:10069000304A103AD1605CE02E499031884204D152
:1006A0002F492C4A103AD16053E02A49A831884298
:1006B00005D14FF03D51274A103AD16049E0294910
:1006C000884204D13D21274A083A116041E025497A
:1006D0001831884205D14FF47461224A083A1160FA
:1006E00037E020493031884205D14FF474111D4A5A
:1006F000083A11602DE01B494831884205D14FF07E
:100700007461184A083A116023E016496031884242
:1007100004D11149134A121F11601AE011497831AE
:10072000884204D10D490F4A121F116011E00D4992
:100730009031884204D10A490A4A121F116008E028
:100740000849A831884204D14FF03D51054A121F93
:1007500011607047106002403D000020400F0020F3
:1007600000003D2010640240014600200A6802F0AB
:1007700001020AB1012000E00020704701464868EC
:1007800080B2704710B501F080034BB122B14369CC
:1007900043F08003436103E0436923F08003436136
:1007A00080290BD02AB1036801F01E0423430360A3
:1007B00004E0036801F01E04A343036010BD0000C1
:1007C00010B500220268134B1A40CC680B68234313
:1007D0004C6923438C692343CC6923430C6A23432C
:1007E0004C6A23438C6A23434C6B23438C6B234317
:1007F0001A430260426922F00702D1E90B34234315
:100800001A4342610B6943604B6883608B68C36025
:1008100010BD00003F801CF0416070477047000031
:1008200000B585B00121082000F0A0FD4FF4006064
:10083000039000208DF8100002208DF8110003A90C
:10084000144800F091F80121880300F0AFFD0A215F
:10085000042001F00FFA4FF48060009000208DF822
:10086000040008208DF8050001208DF80600684678
:1008700000F030F828208DF8080000208DF80900DD
:100880008DF80A0001208DF80B0002A800F030FD61
:1008900005B000BD000C024010B54FF4806000F0C0
:1008A0000DF818B14FF4806000F002F810BD0000A0
:1008B0000149086070470000143C014001460020D7
:1008C000034A12680A400AB1012000E00020704784
:1008D000143C0140002123498279002A3AD00A467B
:1008E000126803689A430B461A600A1D126803686F
:1008F0009A430B1D1A60027911440A6803681A436F
:100900000A60184A0832126803689A43154B083384
:100910001A601A1D126803689A43124B0C331A604E
:100920004279102A0ED11A1F126803681A430D4B20
:1009300008331A601A1D126803681A43094B0C33F6
:100940001A600DE00749427911440A6803681A43A6
:100950000A6005E0027911440A6803689A430A6054
:1009600070470000003C0140F0B50A46002100231A
:10097000002400BF3DE0012505FA01F3156805EAF2
:1009800003049C4234D105684F000326BE40B543A2
:10099000056015794E00B540066835430560157948
:1009A000012D02D01579022D16D185684F0003263E
:1009B000BE40B543856055794E00B54086683543E5
:1009C0008560456801268E40B54345604568967947
:1009D0008E40B6B235434560C5684F000326BE4021
:1009E000B543C560D5794E00B540C6683543C5608E
:1009F000491C1029BFD3F0BDF0B5002300244D07DA
:100A0000ED0E02FA05F3CE1000F1200555F8265040
:100A10004E07F70E0F26BE40B543CF1000F120065B
:100A200046F82750CE1000F1200555F8265045EA2B
:100A30000304CE1000F1200545F82640F0BD4183A7
:100A400070470183704700BFFEE7000070B52DEDD1
:100A5000048BB0EE409AF0EE609A9FEDFE0AF0EE45
:100A6000408A9FEDFC0AB0EE408A0026012000F08B
:100A7000EFFD002000F0B0FD0BE0002407E00120B6
:100A800000F0E6FD002000F0A7FD601CC4B2032CBE
:100A9000F5DBF14890ED050AB5EEC00AF1EE10FA6B
:100AA000EBD990ED060AB5EEC00AF1EE10FAE4D9E2
:100AB00090ED050A30EE490AF0EE408A90ED060A04
:100AC00030EE690AB0EE408AACE0E34890ED050AEA
:100AD00030EE490AF0EE408A90ED060A30EE690ADF
:100AE000B0EE408AF5EEC08AF1EE10FA48D2DB484B
:100AF0000078002844D14FF48041D948FFF79FFF88
:100B00000AE042F2107002F0F7FDD34890ED050ABA
:100B100030EE490AF0EE408A9FEDD20AF4EEC08A28
:100B2000F1EE10FAEDD34FF48041CD48FFF789FF85
:100B300000241FE04FF40041C948FFF780FF002563
:100B40000CE042F2107002F0D7FDC34890ED050AA8
:100B500030EE490AF0EE408A681CC5B20A2DF0DB7F
:100B60004FF40041BE48FFF76CFFBF4802F0C4FDE0
:100B7000601CC4B2022CDDDB0120B84908704DE0D6
:100B8000F5EEC08AF1EE10FA48DDB4480078E8BB13
:100B90004FF40041B248FFF752FF0AE042F21070F2
:100BA00002F0AAFDAC4890ED050A30EE490AF0EEDD
:100BB000408A9FEDAE0AF4EEC08AF1EE10FAEDDC49
:100BC0004FF40041A648FFF73CFF002421E04FF41A
:100BD0008041A348FFF733FF00250CE042F210707C
:100BE00002F08AFD9C4890ED050A30EE490AF0EECD
:100BF000408A681CC5B20A2DF0DB4FF4804198484A
:100C0000FFF71FFF984802F077FD00E006E0601C48
:100C1000C4B2022CDBDB01209049087042F2107054
:100C200002F06AFDF5EEC08AF1EE10FA02D2B1EEE2
:100C3000680A01E0B0EE680ADFED8C0AB4EEE00A63
:100C4000F1EE10FA3FF741AFF5EEC08AF1EE10FA7F
:100C500002D2B1EE680A01E0B0EE680ADFED830A65
:100C6000B4EEE00AF1EE10FA03D37C4800780128D4
:100C70006ED14FF480417A48FFF7E3FE4FF4004114
:100C80007748FFF7DEFEF5EEC08AF1EE10FA2BD2C0
:100C90001DE04FF480417248FFF7D1FE00240CE0C4
:100CA00042F2107002F028FD6B4890ED050A30EE1C
:100CB000490AF0EE408A601CC4B2082CF0DB4FF405
:100CC00080416748FFF7BDFE674802F015FD9FEDC4
:100CD000680AF4EEC08AF1EE10FADAD34FF48041DC
:100CE0005F48FFF7AEFE30E0F5EEC08AF1EE10FA95
:100CF0002BDB1EE04FF400415948FFF7A0FE002413
:100D00000CE042F2107002F0F7FC534890ED050A37
:100D100030EE490AF0EE408A601CC4B2082CF0DBC9
:100D20004FF400414E48FFF78CFE4CF2503002F079
:100D3000E3FC9FED500AF4EEC08AF1EE10FAD9DC24
:100D40004FF400414648FFF77CFE022043490870FB
:100D500079E0414890ED050A30EE490AF0EE408A0C
:100D600090ED060A30EE690AB0EE408AB5EEC08A10
:100D7000F1EE10FA2FDD4048007860BB374800786C
:100D8000022828D1C1023648FFF759FE0AE042F294
:100D9000107002F0B1FC304890ED060A30EE690A9E
:100DA000B0EE408AB5EEC08AF1EE10FA02D2B1EE92
:100DB000480A01E0B0EE480ADFED2C0AB4EEE00A82
:100DC000F1EE10FAE3DC01202B49087001032448FE
:100DD000FFF737FE33E0B5EEC08AF1EE10FA2ED2FF
:100DE0002548007858BB1D480078022827D1010308
:100DF0001B48FFF724FE0AE042F2107002F07CFC70
:100E0000154890ED060A30EE690AB0EE408AB5EE5C
:100E1000C08AF1EE10FA02D2B1EE480A01E0B0EE5B
:100E2000480ADFED120AB4EEE00AF1EE10FAE3DC54
:100E300001201149087041030948FFF702FE42F200
:100E4000107002F059FCB5EEC08AF1EE10FA18D21B
:100E500014E0000000000000D00000204800002046
:100E6000000402400000FAC4A08601000000FA4419
:100E7000000048C30000484349000020B1EE480A82
:100E800001E0B0EE480A5FED070AB4EEE00AF1EEC9
:100E900010FA3FF75EAFB5EEC08AF1EE10FA02D25B
:100EA000B1EE480A01E0B0EE480A5FED100AB4EE78
:100EB000E00AF1EE10FA03D354480078012870D10B
:100EC0004FF400515248FFF7BCFD4FF48051504899
:100ED000FFF7B7FD00BF4F4890ED020AB5EEC00A1C
:100EE000F1EE10FA04D290ED020AB1EE400A02E0EF
:100EF000484890ED020AF2EE040AB4EEE00AF1EE80
:100F000010FAE8DC434890ED030AB5EEC00AF1EEB2
:100F100010FA04D290ED030AB1EE400A02E03D4817
:100F200090ED030AF2EE040AB4EEE00AF1EE10FAD4
:100F3000D1DCB5EEC08AF1EE10FA2CD21EE04FF4EF
:100F400000513348FFF77BFD00240CE042F21070A3
:100F500002F0D2FB304890ED060A30EE690AB0EE9E
:100F6000408A601CC4B2082CF0DB4FF400512848C2
:100F7000FFF767FD4CF2503002F0BEFB1FED440A54
:100F8000B4EEC08AF1EE10FAD9D34FF400512048E4
:100F9000FFF757FD31E0B5EEC08AF1EE10FA2CDD17
:100FA0001FE030E04FF480511948FFF748FD00245E
:100FB0000CE042F2107002F09FFB174890ED060A19
:100FC00030EE690AB0EE408A601CC4B2082CF0DB37
:100FD0004FF480510E48FFF734FD4CF2503002F0D0
:100FE0008BFB1FED5C0AB4EEC08AF1EE10FAD9DC7F
:100FF0004FF480510648FFF724FD02200349087092
:10100000002000F025FBBDEC048B70BD49000020E2
:101010000004024024010020D00000201CB5012162
:10102000102000F0A3F93820009000208DF8040073
:1010300001208DF8070002208DF80500694602485E
:10104000FFF792FC1CBD0000001002401CB50121FE
:10105000084600F08BF90820009001208DF804006C
:1010600000208DF806008DF8070002208DF805009D
:1010700069460248FFF778FC1CBD000000000240F2
:1010800070B52DED048B9FED920AF0EE408A9FED36
:10109000900AB0EE408A9FED8E0AB0EE409A00248E
:1010A000022000F099FA3AE08A4890ED010A80EDBA
:1010B000080A90ED020A80ED090A90ED030A80ED1E
:1010C0000A0A601CC4B2052C0CDD002507E00020D4
:1010D00000F0BEFA022000F07FFA681CC5B2032DB2
:1010E000F5DB002442F2107002F006FB794890ED27
:1010F000080AD0ED010A30EE600AF0EE408A90ED69
:10110000090AD0ED020A30EE600AB0EE408A90ED96
:101110000A0AD0ED030A30EE600AB0EE409AF5EE0E
:10112000C08AF1EE10FA09D1B5EEC08AF1EE10FADC
:1011300004D1B5EEC09AF1EE10FAB5D0F5EEC08A42
:10114000F1EE10FA02D2B1EE680A01E0B0EE680AE0
:10115000DFED610AB4EEE00AF1EE10FA26DDB5EE3D
:10116000C08AF1EE10FA02D2B1EE480A01E0B0EE08
:10117000480ADFED590AB4EEE00AF1EE10FA15DD87
:10118000B5EEC08AF1EE10FA02D2B1EE480A01E0E3
:10119000B0EE480ADFED500AB4EEE00AF1EE10FAC4
:1011A00004DD4FF480414D48FFF749FC4FE042F227
:1011B000107002F0A1FA474890ED010ADFED480AED
:1011C00030EE600AF0EE408A90ED020ADFED450A4B
:1011D00030EE600AB0EE408A90ED030ADFED400A7F
:1011E00030EE600AB0EE409A90ED010AB5EEC00A0A
:1011F000F1EE10FA08DD90ED010ADFED390AB4EEE8
:10120000E00AF1EE10FA21D3324890ED020AB5EE71
:10121000C00AF1EE10FA08DD90ED020ADFED310AA6
:10122000B4EEE00AF1EE10FA10D32A4890ED030A6A
:10123000B5EEC00AF1EE10FA09DD90ED030ADFED1C
:10124000280AB4EEE00AF1EE10FA00D233E0F5EE2F
:10125000C08AF1EE10FA02D2B1EE680A01E0B0EEF7
:10126000680ADFED1D0AB4EEE00AF1EE10FA22DDA5
:10127000B5EEC08AF1EE10FA02D2B1EE480A01E0F2
:10128000B0EE480ADFED140AB4EEE00AF1EE10FA0F
:1012900011DDB5EEC08AF1EE10FA02D2B1EE480AC5
:1012A00001E0B0EE480ADFED0C0AB4EEE00AF1EE20
:1012B00010FA3FF77CAF00BF4FF480410748FFF7BB
:1012C000C0FB022000F0C4F9BDEC048B70BD00002F
:1012D00000000000D00000200000FA43000C024093
:1012E00000A08C4500C05A4500BFFEE770470000D3
:1012F00070B5002100230F22C4781CB3174C24685A
:1013000004F4E064C4F5E064C4F30721C1F104040B
:10131000E3B20A4144789C40E1B28478144021430E
:101320000C07210E0E4C05786155047804F01F055A
:101330000124AC4005786D11AD0005F1E025C5F83C
:10134000004109E0047804F01F050124AC40054D7C
:101350000678761145F8264070BD00000CED00E0DF
:1013600000E400E080E100E07047000029B1064A97
:1013700012680243044B1A6004E0034A1268824375
:10138000014B1A60704700003038024029B1064A0C
:1013900012680243044B1A6004E0034A1268824355
:1013A000014B1A60704700004038024029B1064ADC
:1013B00012680243044B1A6004E0034A1268824335
:1013C000014B1A60704700004438024029B1064AB8
:1013D00012680243044B1A6004E0034A1268824315
:1013E000014B1A607047000024380240F0B500211C
:1013F00000220024022500260223324F3F6807F016
:101400000C0121B1042905D0082937D105E02E4F60
:10141000076036E02D4F076033E02A4F3F1F3F68DB
:10142000C7F38056274F3F1F3F6807F03F036EB159
:10143000264FB7FBF3F7DFF88CC0ACF1040CDCF8F7
:1014400000C0CCF3881C07FB0CF40CE01E4FB7FB6C
:10145000F3F7DFF870C0ACF1040CDCF800C0CCF39B
:10146000881C07FB0CF4174F3F1F3F68C7F3014769
:101470007F1C7D00B4FBF5F7076002E0124F0760A8
:1014800000BF00BF0F4F3F6807F0F0010909104F80
:101490007A5C0768D74047600A4F3F6807F4E0511D
:1014A000890A0B4F7A5C4768D7408760054F3F68D1
:1014B00007F46041490B064F7A5C4768D740C76024
:1014C000F0BD0000083802400024F40000127A0049
:1014D0001400002010B54FF480610648FFF7AFFA02
:1014E000054802F009F94FF480610248FFF7A9FAB4
:1014F00010BD000000100240A086010010B54FF49E
:1015000000710648FFF79BFA054802F0F5F84FF422
:1015100000710248FFF795FA10BD0000001002406C
:10152000A08601001CB501211A20FFF71FFF4FF410
:101530007040009001208DF8040000208DF8060016
:101540008DF8070002208DF8050069461348FFF763
:101550000BFA4FF46040009001208DF80400002049
:101560008DF806008DF8070002208DF80500694609
:101570000B48FFF7F9F94FF4E060009001208DF877
:10158000040000208DF806008DF8070002208DF879
:10159000050069460348FFF7E7F91CBD0004024057
:1015A000000C02400010024010B54FF48071084852
:1015B000FFF745FA002403E0064802F09DF8641C9A
:1015C0000A2CF9DB4FF480710148FFF73AFA10BD9D
:1015D00000100240A086010070B5054601201A499E
:1015E0000870002425B1012D0FD0022D29D11AE059
:1015F000002407E0154802F0C3F844F6206002F02A
:101600007BF8641C052CF5DB1BE0002408E00F4888
:10161000801D02F0B5F844F6206002F06DF8641CFD
:10162000052CF4DB0DE0002408E008480C3002F043
:10163000A7F844F6206002F05FF8641C052CF4DB88
:1016400000BF00BF70BD0000280000203400002053
:1016500070B50546002029490870002435B1012DD8
:1016600011D0022D1DD0032D45D128E0002407E024
:10167000234802F085F844F6206002F03DF8641C2F
:10168000052CF5DB37E0002408E01D48801D02F042
:1016900077F844F6206002F02FF8641C052CF4DB88
:1016A00029E0002408E016480C3002F069F844F6FE
:1016B000206002F021F8641C052CF4DB1BE0002400
:1016C00017E00F4802F05CF844F6206002F014F8CE
:1016D0000B48801D02F054F844F6206002F00CF82C
:1016E00007480C3002F04CF844F6206002F004F891
:1016F000641C052CE5DB00BF70BD00002800002045
:10170000340000200020044908700449087004498E
:101710000870044908707047480000204900002004
:101720004A0000204B00002070B52DED028B9FED8C
:101730009E0AB0EE408A002400259C4890ED040AE1
:1017400080ED0B0A0020FFF747FF984890ED0B0A49
:10175000D0ED040A30EE600AB0EE408A14E09348FF
:1017600090ED040A80ED0B0A0020FFF735FF42F2EE
:10177000107001F0C1FF8D4890ED0B0AD0ED040A06
:1017800030EE600AB0EE408AB5EEC08AF1EE10FA93
:10179000E5D0864890ED040ADFED850AB4EEE00A54
:1017A000F1EE10FA03D29FED830A80ED040A7F4820
:1017B00090ED040ADFED800A30EE600AB0EE408A58
:1017C000B5EEC08AF1EE10FA02D2B1EE480A01E09D
:1017D000B0EE480ADFED790AB4EEE00AF1EE10FA55
:1017E00006DD01207649087041037648FFF727F9A6
:1017F00087E06E4890ED040ADFED6D0AB4EEE00A72
:10180000F1EE10FA03D29FED6B0A80ED040A6748EF
:1018100090ED040ADFED680A30EE600AB0EE408A0F
:10182000B5EEC08AF1EE10FA02D2B1EE480A01E03C
:10183000B0EE480ADFED610AB4EEE00AF1EE10FA0C
:1018400010D2601CC4B29FED600AB0EE408A0A2C30
:1018500009DD002400215D4A1160516000205849D3
:10186000087060E00024514890ED040ADFED580A4A
:10187000B4EEE00AF1EE10FA34D290ED040AD0EDA5
:101880000B0A30EE600AB5EEC00AF1EE10FA08D28B
:1018900090ED040AB1EE400AD0ED0B0A30EE600A7A
:1018A00006E0424890ED040AD0ED0B0A30EE600AE3
:1018B000DFED480AB4EEE00AF1EE10FA0CD2681C33
:1018C000C5B20A2D09DD00250021404A1160516092
:1018D00000203B49087026E00025344890ED040ABA
:1018E00080ED0B0A39480A2306C80020591A904196
:1018F00007DA0021354A1160516000203049087034
:1019000011E0B5EEC08AF1EE10FA02D2B1EE480A4B
:1019100001E0B0EE480ADFED290AB4EEE00AF1EE8C
:1019200010FA3FF766AF00BF4FF400512548FFF7AC
:1019300088F800BF284890ED020AB5EEC00AF1EE23
:1019400010FA04D290ED020AB1EE400A02E02248F9
:1019500090ED020AF2EE040AB4EEE00AF1EE10FA9B
:10196000E8DC1D4890ED030AB5EEC00AF1EE10FA6E
:1019700004D290ED030AB1EE400A02E0164890ED61
:10198000030AF2EE040AB4EEE00AF1EE10FAD1DC3A
:101990000020FFF75DFE9FED040A044880ED040A75
:1019A000BDEC028B70BD000000000000D0000020E4
:1019B0000000FA4400C0DA4500C0A84500004843D2
:1019C00068000020000C02400000FA436000002084
:1019D0000060B8450000C8422401002070B52DED1C
:1019E000028B9FED960AB0EE408A002400259448B1
:1019F00090ED040A80ED0B0A0020FFF7EDFD904802
:101A000090ED0B0AD0ED040A30EE600AB0EE408A89
:101A100014E08B4890ED040A80ED0B0A0020FFF7DC
:101A2000DBFD42F2107001F067FE854890ED0B0A75
:101A3000D0ED040A30EE600AB0EE408AB5EEC08AFE
:101A4000F1EE10FAE5D07E4890ED040ADFED7D0A54
:101A5000B4EEE00AF1EE10FA03D29FED7B0A80EDBE
:101A6000040A774890ED040ADFED780A30EE600A48
:101A7000B0EE408AB5EEC08AF1EE10FA02D2B1EEB5
:101A8000480A01E0B0EE480ADFED710AB4EEE00A60
:101A9000F1EE10FA06DD01206E49087041036E4830
:101AA000FEF7CDFFA6E042F2107001F025FE64487B
:101AB00090ED040ADFED630AB4EEE00AF1EE10FAED
:101AC00003D29FED610A80ED040A5D4890ED040A9F
:101AD000DFED5E0A30EE600AB0EE408A9FED5C0AF0
:101AE000B4EEC08AF1EE10FA01D2012000E000202D
:101AF00000280CDAB1EE480ADFED550AB4EEE00A30
:101B0000F1EE10FA01D201200BE0002009E09FED78
:101B1000500AB4EEC08AF1EE10FA01D2012000E0C2
:101B2000002080B1601CC4B29FED4C0AB0EE408A28
:101B30000A2C09DD00240021494A1160516000206F
:101B40004449087068E000243D4890ED040ADFED48
:101B5000450AB4EEE00AF1EE10FA3DD290ED040A27
:101B6000DFED410AB4EEE00AF1EE10FA34DD90ED5B
:101B7000040AD0ED0B0A30EE600AB5EEC00AF1EEB1
:101B800010FA08D290ED040AB1EE400AD0ED0B0A2B
:101B900030EE600A06E02A4890ED040AD0ED0B0A08
:101BA00030EE600ADFED310AB4EEE00AF1EE10FA31
:101BB0000CD2681CC5B20A2D09DD00250021284A77
:101BC0001160516000202349087025E000251C4861
:101BD00090ED040A80ED0B0A2148462306C8002038
:101BE000591A904106DA00201D4A106050601949C8
:101BF000087011E0B5EEC08AF1EE10FA02D2B1EE33
:101C0000480A01E0B0EE480ADFED110AB4EEE00A3E
:101C1000F1EE10FA3FF747AF00BF4FF400510E4806
:101C2000FEF70FFF0020FFF713FD9FED040A0448A5
:101C300080ED040ABDEC028B70BD000000000000C6
:101C4000D00000200000FA4400C0DA4500C0A845DA
:101C50000000484358000020000C02400000FA43F6
:101C6000500000200060B84500E0AB450000C842CD
:101C70007047000030B500228B071C0F0F2303FABA
:101C800004F20B4B8C1053F824309343084C8D1006
:101C900044F8253023468C1053F824308C07240F49
:101CA00000FA04F42343024C8D1044F8253030BD73
:101CB000083801400CB500200190009034480068BD
:101CC00040F480303249086000BF3148006800F4B9
:101CD000003000900198401C0190009818B90198BC
:101CE000B0F5A04FF1D12A48006800F4003010B1DF
:101CF0000120009001E0002000900098012846D1CA
:101D000023484030006840F080502149403108604D
:101D10002048006840F440401E4908601C480830D4
:101D200000681B49083108600846006840F400401C
:101D300008600846006840F4A05008601648091F73
:101D40000860081F006840F08070091F086000BF2D
:101D50000F48006800F000700028F9D040F20570CC
:101D60000E4908600A480830006820F0030008495E
:101D7000083108600846006840F00200086000BFB3
:101D800003480830006800F00C000828F8D10CBDAA
:101D9000003802400070004008544007003C0240F8
:101DA00010B500F015F910BD30B515480068154A9A
:101DB000B0FBF2F1481EB0F1807F01D301201BE09F
:101DC000481E4FF0E022506150170F22002807DA1A
:101DD00013071D0E0C4B00F00F04241F1D5503E0CC
:101DE00013071C0E094B1C5400BF00204FF0E022CB
:101DF000906107201061002008B100BFFEE730BDF0
:101E000000000020A086010018ED00E000E400E0E2
:101E100010B51548006840F4700013490860134875
:101E2000006840F001001149086000200F490831A6
:101E300008600E4800680E4908400C4908600D48CB
:101E4000091D0860081F006820F48020091F086031
:101E5000002006490C310860FFF72CFF4FF00060AE
:101E600001498039086010BD88ED00E0003802406B
:101E7000FFFFF6FE1030002410B50121054800F0E8
:101E80004AF808B101F0BCFB0121024800F034F827
:101E900010BD0000001400407FB505460C4601212E
:101EA0002020FFF773FA0295A0B2ADF804000020DD
:101EB000ADF80600ADF80C0001A90E4800F046F898
:101EC000012211460B4800F037F80121094800F0C3
:101ED00016F837208DF8000001208DF8010003204E
:101EE0008DF8020001208DF803006846FFF700FA24
:101EF0007FBD000000140040CA430282704721B138
:101F0000028842F00102028004E002884FF6FE736C
:101F10001A400280704730B502460020002300249A
:101F2000158A05EA0103958905EA010413B10CB18C
:101F3000012000E0002030BD1AB183890B4383816A
:101F400002E083898B43838170470000002202886E
:101F5000184B98420ED0184B98420BD0B0F1804FDE
:101F600008D0164B984205D0154B984202D0154B1D
:101F7000984204D14FF68F731A404B881A43124B84
:101F8000984207D0114B984204D04FF6FF431A40B5
:101F90000B891A4302804B68C3620B880385054B8B
:101FA000984202D0044B984201D18B7A03860123D8
:101FB000838270470000014000040140000400409B
:101FC00000080040000C00400010004000140040D9
:101FD0000448006820B103480068401E01490860B9
:101FE000704700002400002000B58FB01948FEF7AC
:101FF0000FFB00211748FEF7FFFA00BF1548FEF758
:10200000B3FB0028FAD16420049004200B90032035
:102010000C9000200D9008904FF480600690801086
:1020200009900D48019000200E90079005904FF404
:1020300080300A90C0020090002003900748029070
:1020400069460448FEF7BCFB01210248FEF7D4FABA
:102050000FB000BD40600240044C0040520500201B
:1020600030B58FB004460D461448FEF7D1FA00BFD4
:102070001248FEF779FB0028FAD1049504200B9052
:1020800003200C9000200D9008904FF48060069083
:10209000002009900A48019000200E9007900590BA
:1020A0004FF400300A908002009040200390029488
:1020B00069460248FEF784FB0FB030BD70600240F5
:1020C000044C004010B540F22441134800F0E0FCFD
:1020D00001280BD1104800F0EFFD1048FEF74EFB31
:1020E000C0F16400C4B200F023F814E040F22661AD
:1020F000094800F0CDFC01280DD140F226610648C8
:1021000000F0F5FB064805494039C8600021034846
:102110003030FEF771FA10BD004C004040600240C4
:102120003D00002010B50446204601F0E3F910BD43
:1021300010B500210848FEF75FFA00BF0648FEF719
:1021400013FB0028FAD164210348FEF765FB012147
:102150000148FEF751FA10BD4060024070B50446D8
:102160000D4600BF0748FEF7FFFA0028FAD10548E0
:10217000001D056003480C30046001210148FEF792
:102180003BFA70BDB864024010B540F22441FE48ED
:1021900000F07EFC012875D1FB4800F08DFDFB4866
:1021A000FEF7ECFAC0F16400C4B200F02BFD062C7F
:1021B00060D1F7480078EE285BD1002008E0F449B0
:1021C000095CF44A12681144F24A1160411CC8B219
:1021D0000528F4DBEE484079EE490968884245D18C
:1021E000EB484078EA49897840EA012000EE100A7D
:1021F000B8EEC00AE84880ED0F0AE548C078E44927
:10220000097940EA012000EE100AB8EEC00AE2485F
:1022100080ED100A90ED0F0ADFEDE00A20EE200AB3
:102220009FEDDF1AC0EE010A9FEDDE0AB2EE041A3E
:1022300011EE200ADFEDDC0A30EE200A80ED010A03
:1022400090ED100ADFEDD50A20EE200A9FEDD41A9A
:10225000C0EE010A9FEDD50AB1EE041A11EE200A74
:10226000DFEDD10A30EE200A80ED020A0020C949D4
:10227000086070E20F2C7AD1C5480078AA28F8D1FE
:10228000002009E068E2C249095CC24A12681144B0
:10229000C04A1160411CC8B20E28F4DBBC48807BE8
:1022A000BC49096888427AD1B9484078B8498978E8
:1022B00040EA012000EE100AB8EEC00ADFEDBC0AC9
:1022C00080EE201AB3EE000A21EE000AB94880ED34
:1022D000000AAF48C078AE49097940EA012000EE13
:1022E000100AB8EEC00ADFEDB20A80EE201A9FEDA8
:1022F000B20A21EE000AAF4880ED010AA4484079F5
:10230000A349897940EA012000EE100AB8EEC00A1C
:102310009FEDA71AC0EE010A9FEDA80A20EE800AE1
:10232000A44880ED020A9A48C0799949097A40EA9E
:10233000012000EE100AB8EEC00ADFED9D0A80EE23
:10234000201A9FED9E0A21EE000A9A4880ED030AAA
:102350008F48407A8E49897A40EA012000EE100ABF
:10236000B8EEC00ADFED920A80EE201A00E02BE002
:102370009FED920A21EE000A8E4880ED040A8448FF
:10238000C07A8349097B40EA012000EE100AB8EECA
:10239000C00A814880ED0E0A90ED0E0A00E00FE0C1
:1023A000DFED7E0A20EE200A9FED7D1AC0EE010AC5
:1023B0009FED7E0AB1EE041A11EE200A80ED000AAC
:1023C000002074490860C6E10E2C7DD17048007869
:1023D000BB28F8D1002008E06D49095C6D4A1268FD
:1023E00011446C4A1160411CC8B20D28F4DB6848E6
:1023F000407B68490968884267D1654840786449EC
:10240000897840EA012000EE100AB8EEC00ADFED3C
:10241000680A80EE201AB3EE000A21EE000A654831
:1024200080ED000A5A48C0785949097940EA0120EC
:1024300000EE100AB8EEC00ADFED5D0A80EE201A49
:102440009FED5D0A21EE000A5A4880ED010A5048CE
:1024500040794F49897940EA012000EE100AB8EE30
:10246000C00ADFED530A80EE201A9FED540A21EED8
:10247000000A504880ED020A4548C0794449097A6B
:1024800040EA012000EE100AF8EEC00A9FED481A5B
:1024900080EE810ADFED490A20EE200A454880EDF2
:1024A000030A3B48407A3A49897A40EA012000EE23
:1024B000100AB8EEC00A9FED3E1AC0EE010A9FED69
:1024C0003F0A20EE800A01E026E021E0394880ED55
:1024D000040A2F48C07A2E49097B40EA012000EE09
:1024E000100AB8EEC00A2C4880ED0E0A90ED0E0AD4
:1024F000DFED2A0A20EE200A9FED291AC0EE010A1C
:102500009FED2A0AB1EE041A11EE200A80ED000AAE
:102510000020204908601EE1082CFCD11C480078EE
:10252000CC287DD1002008E01949095C194A1268BD
:102530001144184A1160411CC8B20728F4DB144842
:10254000C0791449096888427CD111484078104903
:10255000897840EA012000EE100AB8EEC00A0E4861
:1025600080ED0F0A0A48C0780949097940EA01203C
:1025700000EE100AB8EEC00A074880ED100A0448C1
:102580004079034989791BE00010014088640240CA
:102590006C0000202C000020D000002000404E45A0
:1025A000000080450080BB450000C84200803B45DC
:1025B00000FEFF46240100200000FA4400003443DE
:1025C00040EA012000EE100AB8EEC00A6D4880ED26
:1025D000110A90ED0F0A5FED0F0A20EE200A1FEDA1
:1025E000101AC0EE010A1FED0F0AB1EE041A11EE27
:1025F000200A80ED010A90ED100A5FED180A20EE26
:10260000200A1FED191AC0EE010A1FED1A0AB2EED8
:10261000041A11EE200A80ED020A90ED110A01E081
:1026200014E00FE05FED230A20EE200A1FED241ACC
:10263000C0EE010A1FED250AB2EE041A11EE200ABF
:1026400080ED030A00205049086084E04F4800787C
:10265000DD287DD1002008E04C49095C4A4A126817
:102660001144494A1160411CC8B20728F4DB4748AD
:10267000C07945490968884268D14448407843494F
:10268000897840EA012000EE100AB8EEC00A3D4801
:1026900080ED120A3D48C0783C49097940EA0120A2
:1026A00000EE100AB8EEC00A364880ED130A37482B
:1026B00040793649897940EA012000EE100AB8EEE7
:1026C000C00A304880ED140A90ED120A5FED4D0A01
:1026D00020EE200A1FED4E1AC0EE010A1FED4D0A32
:1026E000B1EE041A11EE200ADFED290A30EE200ABD
:1026F00080ED040A90ED130A5FED580A20EE200ADF
:102700001FED591AC0EE010A1FED5A0AB2EE041A63
:1027100011EE200ADFED1E0A30EE200A80ED050AD8
:1027200090ED140A5FED630A20EE200A1FED641A93
:10273000C0EE010A1FED630AB1EE041A11EE200A81
:10274000DFED130A30EE200A80ED060A002000E0DB
:1027500001E00D49086014E040F226610D4800F0E8
:1027600097F901280DD140F226610A4800F0BFF820
:102770004FF03D500849086000210748AC30FDF794
:102780003BFF10BDD00000202C0000206C0000207A
:1027900000007042001001400C64024010B5044675
:1027A000204600F0B7FD10BD10B540F2244113489B
:1027B00000F06EF901280BD1104800F07DFA1048A6
:1027C000FDF7DCFFC0F57A70C4B200F031FA14E016
:1027D00040F22661094800F05BF901280DD140F272
:1027E0002661064800F083F8064805498839C86024
:1027F000002103481830FDF7FFFE10BD00440040E3
:102800008860024000003D2010B50446204600F0DC
:1028100003FE10BD10B540F22441144800F038F911
:1028200001280BD1114800F047FA1148FDF7A6FF27
:10283000C0F16400C4B200F013FA15E040F2266162
:102840000A4800F025F901280ED140F22661074818
:1028500000F04DF84FF0746005492839C860002138
:1028600003483030FDF7C8FE10BD000000480040AE
:102870002860024010B540F22441144800F008F9E5
:1028800001280CD1114800F017FA1148FDF776FF26
:10289000C0F164000F49087000F0F8F914E040F24C
:1028A00026610A4800F0F4F801280DD140F22661B3
:1028B000064800F01CF8084805491C39086000214A
:1028C00003487830FDF798FE10BD00000014014069
:1028D000286402403000002000003D2001F4007216
:1028E000B2F5007F00D100BFCA430280704710B527
:1028F0000022002340F66A14A14200D100BF0A1250
:1029000001249440A3B2DC43048010BD21B182892C
:1029100042F40052828104E082894DF6FF731A402E
:10292000828170471AB1838A0B43838202E0838AD3
:102930008B4383827047000000B58FB01948FDF7C4
:1029400067FE00211748FDF757FE00BF1548FDF749
:102950000BFF0028FAD16420049004200B90032080
:102960000C9000200D9008904FF48060069080102D
:1029700009900D48019000200E90079005904FF4AB
:1029800080300A90C0020090002003900748029017
:1029900069460448FDF714FF01210248FDF72CFEAB
:1029A0000FB000BD88640240041001406C0000209C
:1029B00000B58FB01A48FDF72BFE00211848FDF72F
:1029C0001BFE00BF1648FDF7CFFE0028FAD14FF4DA
:1029D0007A70049004200B9003200C9000200D903E
:1029E00008904FF480600690801009900D48019087
:1029F00000200E90079005904FF480300A90C0029E
:102A00000090002003900848029069460448FDF7B2
:102A1000D7FE01210248FDF7EFFD0FB000BD000019
:102A200088600240044400405501002030B58FB05A
:102A300004460D461448FDF7EBFD00BF1248FDF7B4
:102A400093FE0028FAD1049504200B9003200C90EB
:102A500000200D9008904FF48060069000200990AF
:102A60000A48019000200E90079005904FF4003026
:102A70000A90800200904020039002946946024828
:102A8000FDF79EFE0FB030BDB86402400410014057
:102A900070B50246002400230025002040F66A1687
:102AA000B14200D100BFC1F3421501F01F0301265E
:102AB00006FA03F3012D02D19689334006E0022D78
:102AC00002D1168A334001E0968A33400C12012667
:102AD00006FA04F41688344013B10CB1012000E06A
:102AE000002070BDF0B5034600240026002500201C
:102AF00040F66A17B94200D100BF1846C1F342142C
:102B000001F01F06012707FA06F5012C01D10C3050
:102B100004E0022C01D1103000E014301AB1076833
:102B20002F43076002E00768AF430760F0BD000075
:102B30002DE9FF4705460E460024A14600BFA046EA
:102B4000B08900B100BF2C8A24F44054F0880443BB
:102B50002C82AC8941F20C608443B08831890843EF
:102B6000718908430443AC81AC8A24F44074B08971
:102B70000443AC826846FEF739FC2048854202D007
:102B80001F48854202D1DDF80C9001E0DDF8089085
:102B9000A88900F4004040B109EBC90000EB09101E
:102BA00031684900B0FBF1F707E009EBC90000EB21
:102BB000091031688900B0FBF1F76420B7FBF0F031
:102BC00004012009642101FB1078A88900F4004069
:102BD00040B1322000EBC800B0FBF1F000F007007C
:102BE000044308E0322000EB08106421B0FBF1F050
:102BF00000F00F0004432C81BDE8FF870010014066
:102C00000014014010B500210848FDF7F5FC00BF95
:102C10000648FDF7A9FD0028FAD164210348FDF715
:102C2000FBFD01210148FDF7E7FC10BD886402406F
:102C300010B500210948FDF7DFFC00BF0748FDF78C
:102C400093FD0028FAD14FF47A710448FDF7E4FDB2
:102C500001210248FDF7D0FC10BD00008860024051
:102C600010B500210848FDF7C7FC00BF0648FDF776
:102C70007BFD0028FAD164210348FDF7CDFD012139
:102C80000148FDF7B9FC10BD2860024010B50021D5
:102C90000848FDF7B1FC00BF0648FDF765FD0028B8
:102CA000FAD164210348FDF7B7FD01210148FDF782
:102CB000A3FC10BD2864024001468888C0F30800C8
:102CC000704700BFFEE7000070B52DED048BF0EEFD
:102CD000408A9FEDB70AB0EE408A9FEDB50AF0EE4C
:102CE000409A9FEDB30AB0EE409A002400250020E0
:102CF000FEF7AEFC0220FEF7ABFC0120FEF76CFCF9
:102D000017E0601CC4B2052C0FDD00260AE000208D
:102D1000FEF79EFC0220FEF79BFC0120FEF75CFC08
:102D2000701CC6B2052EF2DB002442F2107000F0D7
:102D3000E3FCA04890ED000AB5EEC00AF1EE10FAEF
:102D4000DFD990ED000A30EE680AB0EE408A40E02C
:102D5000B5EEC08AF1EE10FA30DB9748007868BB18
:102D60004FF480419548FDF76AFE18E042F210707A
:102D700000F0C2FC8F4890ED000AB5EEC00AF1EEFB
:102D800010FA03D29FED8E0A80ED000A894890ED7B
:102D9000000AF0EE409A39EEE80AB0EE408A9FED64
:102DA000890AB4EEC08AF1EE10FADFDC4FF48041FC
:102DB0008248FDF746FE01207F49087042F21070FC
:102DC00000F09AFC7B4890ED000A30EE680AB0EE05
:102DD000408A9FED7C0AB4EEC08AF1EE10FAB7DCAF
:102DE000B5EEC08AF1EE10FA02D2B1EE480A01E067
:102DF000B0EE480ADFED730AB4EEE00AF1EE10FA25
:102E000076D26D480078012872D103E042F210704A
:102E100000F072FC6C4890ED020AB5EEC00AF1EECB
:102E200010FA04D290ED020AB1EE400A02E06648C0
:102E300090ED020AF2EE040AB4EEE00AF1EE10FAA6
:102E4000E4DC614890ED030AB5EEC00AF1EE10FA39
:102E500004D290ED030AB1EE400A02E05A4890ED28
:102E6000030AF2EE040AB4EEE00AF1EE10FACDDC49
:102E70004FF480415148FDF7E2FD84E04FF480417A
:102E80004E48FDF7DCFD00261AE04A4890ED000AA6
:102E9000B5EEC00AF1EE10FA03D29FED4C0A80EDB8
:102EA000000A42F2107000F027FC424890ED000A40
:102EB000F0EE409A39EEE80AB0EE408A701CC6B2D5
:102EC000042EE2DB4FF480413C48FDF7BAFD4CF2A2
:102ED000503000F011FC3C4890ED020AB5EEC00AFB
:102EE000F1EE10FA05D290ED020AB1EE400A03E0CD
:102EF0005AE0354890ED020AF2EE040AB4EEE00A18
:102F0000F1EE10FA16DC304890ED030AB5EEC00A77
:102F1000F1EE10FA04D290ED030AB1EE400A02E09D
:102F2000294890ED030AF2EE060AB4EEE00AF1EE4B
:102F300010FA05DD4FF480412048FDF782FD2AE0BC
:102F400038EE490AB5EEC00AF1EE10FA04D2B1EE3D
:102F5000480A30EE490A01E038EE490AF3EE040A65
:102F6000B4EEE00AF1EE10FA02D2681CC5B200E03D
:102F70000025052D05DD4FF480411048FDF761FD6A
:102F800009E0B0EE489A9FED120AB4EEC08AF1EE65
:102F900010FA3FF773AF00BF4FF480410748FDF7C9
:102FA00050FD0120FEF754FBBDEC048B70BD00000A
:102FB00000000000D00000204A000020000C024069
:102FC00000803B4500004844240100200000FA44F2
:102FD0000000C84270B52DED048BF0EE408A9FEDE5
:102FE000BD0AB0EE408A9FEDBB0AF0EE409A9FED1D
:102FF000B90AB0EE409A002400250020FEF728FB15
:103000000220FEF725FB0120FEF7E6FA21E04FF44F
:103010008041B148FDF713FD601CC4B2052C0FDDE3
:1030200000260AE00020FEF713FB0220FEF710FB4B
:103030000120FEF7D1FA701CC6B2052EF2DB002487
:103040004FF48041A448FDF7FCFC4FF47A7000F087
:1030500053FBA24890ED000AB5EEC00AF1EE10FA5B
:10306000D5D990ED000A30EE680AB0EE408A44E00F
:10307000B5EEC08AF1EE10FA34DB9948007888BBCF
:103080004FF480419448FDF7DAFC1CE042F21070E6
:1030900000F032FB914890ED000AB5EEC00AF1EE67
:1030A00010FA03D290ED070A80ED000A8B4890EDEC
:1030B000000AF0EE409A39EEE80AB0EE408A90ED50
:1030C000000A80ED070A9FED870AB4EEC08AF1EE90
:1030D00010FADBDC4FF480417F48FDF7B2FC0120A1
:1030E0007F4908707D4890ED000A30EE680AB0EE26
:1030F000408A42F2107000F0FFFAB5EEC08AF1EE9D
:1031000010FA02D2B1EE480A01E0B0EE480ADFED53
:10311000750AB4EEE00AF1EE10FAA9DCB5EEC08A49
:10312000F1EE10FA02D2B1EE480A01E0B0EE480A20
:10313000DFED6C0AB4EEE00AF1EE10FA7DD26848D9
:103140000078012879D103E042F2107000F0D4FA3F
:10315000654890ED020AB5EEC00AF1EE10FA04D20D
:1031600090ED020AB1EE400A02E05F4890ED020ADB
:10317000F2EE040AB4EEE00AF1EE10FAE4DC5A488A
:1031800090ED030AB5EEC00AF1EE10FA04D290ED0C
:10319000030AB1EE400A02E0534890ED030AF2EE52
:1031A000040AB4EEE00AF1EE10FACDDC4FF48041EF
:1031B0004948FDF744FC79E04FF480414648FDF76B
:1031C0003EFC00260EE042F2107000F095FA4348F3
:1031D00090ED000AF0EE409A39EEE80AB0EE408A2F
:1031E000701CC6B20A2EEEDB4FF480413A48FDF760
:1031F00028FC4CF2503000F07FFA3B4890ED020A78
:10320000B5EEC00AF1EE10FA04D290ED020AB1EE6A
:10321000400A02E0344890ED020AF2EE040AB4EEED
:10322000E00AF1EE10FA18DC2F4890ED030AB5EE33
:10323000C00AF1EE10FA06D200E048E090ED030A71
:10324000B1EE400A02E0284890ED030AF2EE040ACB
:10325000B4EEE00AF1EE10FA05DD4FF480411E48AD
:10326000FDF7EFFB2AE038EE490AB5EEC00AF1EEB1
:1032700010FA04D2B1EE480A30EE490A01E038EE05
:10328000490ADFED1A0AB4EEE00AF1EE10FA02D2B2
:10329000681CC5B200E00025052D05DD4FF4804116
:1032A0000D48FDF7CEFB09E0B0EE489A9FED100AFD
:1032B000B4EEC08AF1EE10FA3FF77EAF00BF4FF4D4
:1032C00080410548FDF7BDFB0120FEF7C1F9BDECCB
:1032D000048B70BD00000000000C0240D0000020F4
:1032E0004A00002000007A44240100200000C84267
:1032F0000000484302E008C8121F08C1002AFAD1A2
:1033000070477047002001E001C1121F002AFBD165
:103310007047000010B588B0044601210846FEF74A
:1033200025F801211020FEF741F801218805FEF75C
:103330001DF8072209213548FDF75EFB07220A2107
:103340003248FDF759FB02208DF80C0003208DF860
:103350000D0000208DF80E0001208DF80F004002B6
:10336000029002A92948FDF7FFFA4FF4806002900D
:1033700002A92648FDF7F8FA04940020ADF81400DD
:10338000ADF81600ADF81800ADF81C000C20ADF833
:103390001A0004A91E48FFF7CBFBFFF7CDFA0A215C
:1033A0000020FFF743FB012240211948FFF7BAFA3A
:1033B000012280211648FFF7B5FA01221021154895
:1033C000FDF7E0F925208DF8040001208DF80500B7
:1033D0008DF806008DF8070001A8FDF789FF01228E
:1033E00040F224410A48FFF77DFB012240F22661AA
:1033F0000748FFF777FB01210548FFF787FA4021CF
:103400000348FFF76BFA08B010BD0000000002404F
:1034100000100140B864024010B588B00446012194
:103420000846FDF7A3FF01214804FDF7AFFF012186
:103430004805FDF79BFF072203212B48FDF7DCFA27
:1034400002208DF80C0003208DF80D0000208DF86F
:103450000E0001208DF80F000820029002A92248DA
:10346000FDF782FA04940020ADF81400ADF81600C0
:10347000ADF81800ADF81C000420ADF81A0004A93E
:103480001A48FFF755FBFFF793FA0122402117482E
:10349000FFF748FA012210211548FDF773F926209D
:1034A0008DF8040001208DF8050002208DF806003B
:1034B00001208DF8070001A8FDF71AFF012240F254
:1034C00024410A48FFF70EFB012240F2266107481B
:1034D000FFF708FB01210548FFF718FA40210348D0
:1034E000FFF7FCF908B010BD0000024000440040A6
:1034F000A060024010B588B0044601210420FDF709
:1035000035FF0121C804FDF741FF01214805FDF702
:103510002DFF08220A213748FDF76EFA08220B21F9
:103520003448FDF769FA02208DF80C0003208DF86D
:103530000D0000208DF80E0001208DF80F00800294
:10354000029002A92B48FDF70FFA4FF40060029099
:1035500002A92848FDF708FA04940020ADF81400E9
:103560004FF40050ADF81600C010ADF81800002060
:10357000ADF81C000C20ADF81A0004A91E48FFF796
:10358000D7FAFEF731FD0A210020FEF769FD01227E
:1035900040211948FFF7C6F9012280211648FFF79C
:1035A000C1F9012210211548FDF7ECF834208DF8FF
:1035B000040001208DF805008DF806008DF8070045
:1035C00001A8FDF795FE012240F224410A48FFF7C9
:1035D00089FA012240F226610748FFF783FA0121A8
:1035E0000548FFF793F940210348FFF777F908B042
:1035F00010BD000000080240004C00407060024016
:1036000038480088401C3749088008464088401CDC
:10361000488008468088401C88800846C088401C36
:10362000C88008460089401C088108464089401C23
:10363000488108468089401C888108460088022805
:1036400001DB0020088027484088042805DB254846
:103650004088001F2349488042E0224880880A2889
:1036600005DB204880880A381E49888038E01D48DC
:103670000089322805DB1B48008932381949088146
:103680002EE018484089C82805DB16484089C8380C
:103690001449488124E013488089B0F5FA6F1FDB94
:1036A00010488089A0F5FA600E4988810E4800789C
:1036B000012808D10D48D0E90020521C40F100003B
:1036C0000A49C1E900200A480078012808D10948C0
:1036D000D0E900305A1C40F100000649C1E9002041
:1036E00070470000300600205800002050000020E5
:1036F000680000206000002001B5044900980860BF
:1037000000BF024800680028FBD108BD240000204B
:10371000FEF74AFBFCF7A0FE0320FDF799FF9FEDA3
:10372000110A114880ED000A9FED100A80ED020A8F
:103730009FED0F0A80ED040A9FED0E0A0E4880ED02
:10374000000A9FED0A0A80ED020A9FED0C0A80ED47
:10375000040A05E0FCF7A0FE44F62060FFF7CCFF6A
:10376000F8E7000000204B465806002000007A458C
:103770000000C84400E0F645400600200080D44424
:1037800010B50446AA20E070054800782071207921
:10379000E1780844607106212046FEF7DFFC10BD89
:1037A00028000020C4370008000000206C00000042
:1037B000F4320008303800086C000020040A0000D1
:1037C00004330008007A030A000000000000000033
:1037D00001020304060708090000000001020304B7
:1037E00001020304060708090000000000000000B1
:1037F000000000000000000000060F0000000004B0
:103800000F00000000050F00000000000000000095
:1038100000000000000000000000000000000000A8
:103820000000000000000000000000000000000098
:040000050800018965
:00000001FF
