:020000040800F2
:10000000C80C00209D0100084D280008D31F0008DF
:100010004928000875120008C546000800000000C5
:100020000000000000000000000000000D3000088B
:10003000D517000800000000C92800083D3100085D
:10004000B7010008B7010008B7010008B7010008B0
:10005000B7010008B7010008B7010008B7010008A0
:10006000B7010008B7010008B7010008B701000890
:10007000B7010008B701000815130008B701000810
:10008000B7010008B7010008B7010008B701000870
:10009000B7010008B7010008B7010008B701000860
:1000A000B7010008B7010008B7010008B701000850
:1000B000B7010008B7010008B7010008B701000840
:1000C000B7010008B7010008B7010008B701000830
:1000D000B70100081935000805370008893B0008FA
:1000E000151E0008B7010008B7010008B701000895
:1000F000B7010008B7010008B7010008B701000800
:10010000B7010008B7010008B7010008B7010008EF
:1001100085330008B7010008B70100081532000850
:10012000B7010008B7010008B7010008B7010008CF
:10013000B7010008B7010008B7010008B7010008BF
:10014000B7010008B7010008B7010008B7010008AF
:10015000B7010008B7010008B7010008BD3D00085D
:10016000B7010008B7010008B7010008B70100088F
:10017000B7010008B7010008B7010008B70100087F
:10018000B7010008B7010008DFF80CD000F0CCF987
:100190000048004711500008C80C0020064880475E
:1001A00006480047FEE7FEE7FEE7FEE7FEE7FEE75C
:1001B000FEE7FEE7FEE7FEE7AD3100088901000833
:1001C000D2B201E000F8012B491EFBD27047002299
:1001D000F6E710B513460A4604461946FFF7F0FF46
:1001E000204610BD2DE9FE4F81EA030404F00044CF
:1001F00021F0004100944FF0000B23F0004350EA3F
:1002000001045ED052EA03045BD0C3F30A54C1F385
:100210000A552C44A4F2F3340194A0FB0254C1F318
:10022000130141F48011C3F3130343F4801301FB62
:10023000024400FB034E840A970A44EA815447EAC9
:100240008357A4FB076802958D0A05FB07854FEAD3
:10025000932C04FB0C542705029D4FEA065847EAED
:100260001637B5EB08056EEB070C870E920E47EAC2
:10027000811742EA8312A7FB0201B6EB0B0164EB84
:1002800000042B0D43EA0C335E1844EB1C50DA4695
:100290005146E7FB0201C5F313044FEA0B3343EA6F
:1002A00014534FEA0432019C43EA0603A4F10C0400
:1002B0000294009CCDE900B400F0E8F803B0BDE87A
:1002C000F08F00200146F9E72DE9F04D81EA0304A3
:1002D00004F0004B21F0004514464FF0000A23F0D3
:1002E000004150EA050220D054EA01021DD0C5F3B6
:1002F0000A570246C5F31303C1F31300C1F30A56AC
:1003000040F4801543F48013A7EB0608101BD64673
:1003100008F2FD3873EB050002D308F1010801E093
:1003200092185B41B8F1000F03DA00200146BDE8E6
:10033000F08D00204FF48011064684460EE0171B16
:1003400073EB050705D3121B63EB050306434CEA69
:10035000010C49084FEA300092185B4150EA01074E
:10036000EDD152EA030012D082EA040083EA0501CB
:10037000084305D0101BAB4106D20122002306E042
:1003800000224FF0004302E06FF0010253101AEB1D
:1003900006004CEB085110EB0A0041EB0B01BDE8E5
:1003A000F04D00F064B80EB5C10F80EAE07008446B
:1003B000CA07002140F233438DE80E000A460B467F
:1003C00000F064F803B000BD01F0004330B421F048
:1003D000004150EA010206D00A0DA2F56072C1F395
:1003E0001301002A02DC30BC00207047440F44EAAD
:1003F000C104C100E01830BC00EBC250AFF3008074
:100400000029A8BF7047401C490008BF20F0010028
:10041000704710B4B0FA80FC00FA0CF050EA010406
:1004200004BF10BC704749B1CCF1200421FA04F498
:1004300011FA0CF118BF012121430843A3EB0C0171
:10044000CB1D4FEA00614FEA102042BF002010BCD4
:10045000704700EBC35010440029A4BF10BC704784
:10046000401C490008BF20F0010010BC704710B5C7
:10047000141E73F1000408DA401C41F100019218C7
:100480005B411A4301D120F0010010BD2DE9F04D70
:1004900092469B4611B1B1FA81F202E0B0FA80F2C5
:1004A0002032904600F052F804460F4640EA0A0017
:1004B00041EA0B0153465A46084313D0114653EA0A
:1004C000010019D0C8F14002504600F04EF8054630
:1004D0000E4650465946424600F038F8084305D0CB
:1004E000012004E020463946BDE8F08D0020054398
:1004F00046EAE0762C4337430A986305E40AA0EB0A
:1005000008000022FD0A44EA47540A3002D50020C0
:100510000146E9E7010510196941DDE908450019BF
:100520006941BDE8F04DA2E7064C074D06E0E068E2
:1005300040F0010394E8070098471034AC42F6D32A
:10054000FFF726FE2C5200084C520008202A04DB3C
:10055000203A00FA02F1002070479140C2F12003D6
:1005600020FA03F3194390407047202A04DB203A15
:1005700021FA02F00021704721FA02F3D040C2F1C3
:100580002002914008431946704770B58C1810F846
:10059000015B15F0070301D110F8013B2A1106D1C8
:1005A00010F8012B03E010F8016B01F8016B5B1EE2
:1005B000F9D12B0705D40023521E0DD401F8013BBD
:1005C000FAE710F8013BCB1A921C03E013F8015B29
:1005D00001F8015B521EF9D5A142D8D3002070BDAD
:1005E00021B1826842F00102826003E0826822F059
:1005F00001028260704700000021084A1168084A21
:100600001140D0E900231A4383681A43C3681A4390
:100610001143044AC2F80413704700000423014048
:10062000E030FCFF0020014021B1826842F480727A
:10063000826003E0826822F480728260704721B198
:10064000826842F40072826003E0826822F40072E1
:100650008260704700B58DB00121022002F05EF982
:100660000121080202F07AF901200B9003208DF895
:10067000300000208DF833000BA9214801F032FC36
:100680000121080202F07AF900214FF4807002F093
:1006900075F9002007904FF470600A904FF4804085
:1006A00009908000089007A8FFF7A6FF002001909E
:1006B0008DF8080001208DF80900002003900590B6
:1006C00001208DF8180001A90E4800F01DF8012145
:1006D0000C48FFF785FF072301220821094800F095
:1006E0003DF800F033FE074800F094F8012105487A
:1006F000FFF7A5FF01210348FFF796FF0DB000BDEE
:10070000000402400020014030B5024600200023D2
:100710005068104C20400D790C6844EA05242043B1
:10072000506090680C4C2040D1E903542C438D68F4
:100730002C434D7944EA450420439060D06A20F46C
:1007400070000C7D641EE4B2234340EA0350D06283
:1007500030BD0000FFFEFFFCFDF7FFC0F0B5044612
:100760000D4600200021092D11DDE068A5F10A06E3
:1007700006EB4607072606FA07F18843A5F10A06A5
:1007800006EB460603FA06F10843E0600CE0206938
:1007900005EB4507072606FA07F1884305EB4506F2
:1007A00003FA06F108432061072A0FDA606B561E30
:1007B00006EB86071F2606FA07F18843561E06EB4E
:1007C000860605FA06F10843606322E00D2A0FDA77
:1007D000206BD61F06EB86071F2606FA07F1884313
:1007E000D61F06EB860605FA06F10843206310E0E3
:1007F000E06AA2F10D0606EB86071F2606FA07F14E
:100800008843A2F10D0606EB860605FA06F10843B9
:10081000E062F0BD816841F0804181607047000076
:100820001CB50121102002F079F84FF4006000900F
:1008300001208DF8040000208DF806008DF80700D7
:1008400002208DF805006946014801F04BFB1CBDF4
:100850000010024010B501F095FC01F07BFCFFF7A1
:10086000F9FEFFF7DDFF02F027FA01F097FA4FF4E7
:10087000E13002F029FF4FF4E13003F0BFF84FF40C
:10088000E13002F0FFF8532140F2F31002F0D2FC05
:1008900010BD000010B5BF48007880B902F02AF8FA
:1008A000BD4890F90000801C002807D1B9480078A5
:1008B000401CB8490870FF20B749087031E1B548BD
:1008C000007801280ED102F08BFBB4480078012893
:1008D000F4D1B0480078401CAE4908700020AF4900
:1008E00008701EE1AB48007802282ED1AC480068A1
:1008F000C0F57A50A0F5FA6042F688410844A8494C
:100900000860084690ED021AB8EEC11AF0EE410AEE
:1009100090ED001AB8EEC11AB0EE410A01F0F6FBF4
:10092000A04800780128C9D19F4800780128C5D186
:1009300098480078401C9749087000209949087031
:100940009949087099490870EBE0924800780328AB
:1009500018D19348D0ED040AF8EEE00AB0EE600A30
:1009600001F002FA924800780128A7D1894800785E
:10097000401C8849087000208D49087001208D496D
:100980000870CEE083480078042811D101F019FBEB
:1009900088480078022891D17E480078401C7D4923
:1009A0000870002083490870012080490870B8E071
:1009B0007848007805280ED102F0FCFA77480078D4
:1009C00001288ED173480078401C724908700020BD
:1009D00072490870A5E06F480078062818D1DFED4D
:1009E000760A9FED760A01F091FB6E4800780128A7
:1009F000AAD16D4800780128A6D166480078401C2D
:100A0000644908700020674908706749087088E0E9
:100A100060480078072811D100F0DEFE64480078B5
:100A200001287ED15B480078401C5A49087000209C
:100A30005F49087001206249087072E055480078EB
:100A400007280ED101F0C1FA5D480078022868D16C
:100A500050480078401C4F490870002058490870E1
:100A60005FE04C48007808280ED102F08DFA4B4820
:100A70000078012855D147480078401C4549087046
:100A80000020464908704CE042480078092818D1F7
:100A9000DFED4C0A9FED4C0A01F038FB414800782D
:100AA00001283ED14048007801283AD139480078E1
:100AB000401C3849087000203A4908703A490870CB
:100AC0002FE0344800780A2810D19FED400A01F049
:100AD00031F937480078012823D12E480078401C8E
:100AE0002C4908700020324908701AE02948007823
:100AF0000B2816D101F0EAFE354890F90000801C61
:100B000078B93448007D00F0870040F0400031495A
:100B10000875FF202E49087000202F4908702F49C2
:100B200008702048007802280FD01F48007802285B
:100B30000BD01F480078022807D0184800780228F8
:100B400003D027480078042822DD01F0BFFE2048AA
:100B500090F90000801CD8B90E480078214908702F
:100B60001C48007D00F0F0001A490875FF20184964
:100B700008700020074908700A4908700A4908707F
:100B80000B4908700549087013490870134908702B
:100B900010BD0000A90200204E00002053020020DA
:100BA000C8020020500200205102002064020020F0
:100BB00052020020650200200080894500C08F4558
:100BC0006C02002000007A4500E0F6450080D44425
:100BD0004F0000209C080020240000202500002059
:100BE000910200207402002010B5FA480078002815
:100BF00033D1F948007878B901F07CFEF74890F9D4
:100C00000000801C18BBF3480078401CF1490870B4
:100C1000FF20F24908701AE0EF480078012816D149
:100C2000EC490978491CC8B200F06EFBEC4800782A
:100C300001280CD10020EB494875E6480078401C9B
:100C4000E44908700020E4490870E5490870E54867
:100C5000007DF120E3490875B3E2DE480078012801
:100C60002DD1DD48007870B902F0BAF9DE4800787D
:100C70000128F1D1D7480078401CD64908700020DF
:100C8000D94908709DE2D44800780128E4D1D149BF
:100C90000978491CC8B200F037FBD1480078012818
:100CA000DAD10020CF494875CA480078401CC949AC
:100CB00008700020C8490870C949087081E2C54819
:100CC0000078022850D1C448007870BBC74800683B
:100CD000C0F57A50A0F5FA6042F688410844C3494D
:100CE0000860084690ED021AB8EEC11AF0EE410A0B
:100CF00090ED001AB8EEC11AB0EE410A01F006FA02
:100D0000BB4800780128A7D1BA4800780128A3D1B0
:100D1000B0480078401CAF4908700020B649087000
:100D2000B3490870B34908704BE2FFE7AA4800785E
:100D3000012891D1A7490978491CC8B200F0E4FA0A
:100D4000A7480078012887D10020A6494875A14806
:100D50000078401C9F49087000209F490870A649F0
:100D600008709F4908702CE29A48007803283BD10C
:100D700099480078C0B99D48D0ED040AF8EEE00A21
:100D8000B0EE600A00F0F0FF9C480078012895D191
:100D900090480078401C8F490870012098490870DD
:100DA0000020964908700CE28B480078012885D114
:100DB00088490978491CC8B200F0A6FA884800782A
:100DC0000128B1D100208749487582480078401C2D
:100DD0008049087000208049087001208849087007
:100DE00000207F490870ECE17A480078042834D16B
:100DF0007948007888B901F0E4F881480078022841
:100E000092D174480078401C7249087001207A49D8
:100E1000087000207A490870D3E16F4800780128F3
:100E2000A1D16C490978491CC8B200F06DFA6C4830
:100E30000078012897D100206A49487565480078F4
:100E4000401C6449087000206349087001206A4909
:100E50000870002062490870B3E15E4800780528F8
:100E60002DD15D48007870B902F0A4F85E48007892
:100E7000012898D157480078401C56490870002036
:100E8000594908709DE15448007801288BD1514997
:100E90000978491CC8B200F037FA51480078012897
:100EA000A1D100204F4948754A480078401C494963
:100EB00008700020484908704949087081E1454898
:100EC0000078062837D144480078C0B9DFED4D0AD4
:100ED0009FED4D0A01F01AF94548007801289BD191
:100EE00044480078012897D13A480078401C394995
:100EF000087000203E4908703E49087061E136489C
:100F00000078012888D133490978491CC8B200F01B
:100F1000FBF93348007801289ED1002031494875FB
:100F20002C480078401C2B49087000202A49087082
:100F30002B49087045E127480078072833D1264817
:100F4000007888B900F048FC2C480078012899D135
:100F500020480078401C1F49087001202B49087068
:100F60000020264908702CE11B480078012889D10F
:100F700018490978491CC8B200F0C6F91848007829
:100F800001289BD100201749487512480078401C61
:100F90001049087001201D49087000200E49087092
:100FA0000F4908700DE10B48007807284CD10A481A
:100FB000007870B901F009F81448007802289DD132
:100FC00004480078401C0349087000200F4908704D
:100FD000F7E01DE0AA020020AB0200204E00002036
:100FE000AC0200209C08002053020020C802002010
:100FF0005002002051020020640200205202002012
:10100000650200200080894500C08F456C020020E9
:101010008848007801288DD187490978491CC8B2D1
:1010200000F072F98548007801289CD1002084499D
:10103000487581480078401C7F49087000207D4930
:1010400008707E490870BCE07B48007808282DD1E4
:101050007848007870B901F097FF7A480078012845
:10106000A0D175480078401C73490870002075496C
:101070000870A6E06F480078012893D16E4909787E
:10108000491CC8B200F040F96C48007801280CD126
:1010900000206B49487568480078401C6649087014
:1010A000002064490870654908708AE06248007849
:1010B000092837D15F480078C0B9DFED630A9FED9A
:1010C000630A01F023F862480078012879D1614869
:1010D0000078012875D158480078401C564908709E
:1010E00000205B4908705B4908706AE0514800784D
:1010F000012866D150490978491CC8B200F004F9AA
:101100004E48007801285CD100204D4948754A4876
:101110000078401C4849087000204649087047493B
:1011200008704EE0444800780A282FD141480078E2
:1011300080B99FED490A00F0FDFD4848007801287C
:101140003FD13D480078401C3B490870002043498E
:10115000087036E037480078012832D136490978DE
:10116000491CC8B200F0D0F834480078012828D1D2
:1011700000203349487530480078401C2E490870DB
:1011800000202C4908702D4908701AE02A48007880
:101190000B2816D101F09AFB314890F90000801C11
:1011A00078B92748007D00F0870040F040002449CE
:1011B0000875FF202A49087000202A4908702A492A
:1011C00008702348007802280FD0224800780228AF
:1011D0000BD022480078022807D01A48007802284D
:1011E00003D022480078042822DD01F06FFB1C4860
:1011F00090F90000801CD8B90F4800781C4908708D
:101200000F48007D00F07F000D490875FF2014494C
:1012100008700020084908700D4908700D490870D1
:101220000E490870074908700E4908700E49087089
:1012300010BD0000AB020020AA020020AC0200207A
:101240009C0800205302002000007A4500E0F6458B
:1012500050020020510200200080D444520200209D
:101260004F000020240000202500002091020020D3
:101270007402002000BFFEE770B502460C46FF2551
:10128000FF2309E012F8010B80EA03010648405CE5
:1012900080EA05030548455C201EA4F10106F4B26E
:1012A000F0D145EA032070BD50000020500100201D
:1012B00010B51148007D00F0870040F030000E4965
:1012C00008750E480078012814D10D48006864287C
:1012D00005DA4FF400410B4800F06FFE0AE04FF4CE
:1012E0000041084800F06BFE02200449087000200D
:1012F0000349086010BD00009C0800206502002022
:1013000068020020000C0240014948757047000047
:101310009C08002010B54FF0C0510A4800F048F971
:1013200078B14FF0FA51074800F048F800BF40216B
:10133000054802F015FE0028F9D04021024802F0CD
:1013400071FD10BD586002400048004000B58FB0EC
:101350000121880501F0E2FA00BF154800F01AF9F2
:101360000028FAD100901348019013480290002001
:101370000390012004900020059006904FF4006037
:1013800007900890C010099040020A9000200B902E
:1013900001200C9000200D900E906946044800F04A
:1013A00047F90121024800F03DF80FB000BD0000F0
:1013B000106402404C2001403A0000200246094BD4
:1013C0009A4201D2084801E00648103801F0005363
:1013D0001BB1064B0B40C36002E0044B0B40836023
:1013E0007047000010640240006002407D0F7D0FD6
:1013F0000246094B9A4201D2084801E006481038DB
:1014000001F000531BB1064B0B40C36002E0044BDC
:101410000B4083607047000010640240006002408F
:101420007D0F7D0F21B1026842F00102026003E0EE
:10143000026822F00102026070470000016821F09A
:10144000010101600021016041608160C1600161B2
:10145000212141614A49884204D13D21484A103A3C
:1014600091608CE046491831884205D14FF474618F
:10147000434A103A916082E041493031884205D1B7
:101480004FF474113E4A103A916078E03C4948317B
:10149000884205D14FF07461394A103A91606EE08C
:1014A00037496031884204D13649354A103AD16013
:1014B00065E033497831884204D13349304A103AE3
:1014C000D1605CE02E499031884204D12F492C4AEA
:1014D000103AD16053E02A49A831884205D14FF033
:1014E0003D51274A103AD16049E02949884204D148
:1014F0003D21274A083A116041E0254918318842C8
:1015000005D14FF47461224A083A116037E020494E
:101510003031884205D14FF474111D4A083A1160E8
:101520002DE01B494831884205D14FF07461184ABB
:10153000083A116023E016496031884204D111490C
:10154000134A121F11601AE011497831884204D100
:101550000D490F4A121F116011E00D499031884268
:1015600004D10A490A4A121F116008E00849A8314B
:10157000884204D14FF03D51054A121F1160704757
:10158000106002403D000020400F002000003D2080
:1015900010640240014600200A6802F001020AB10C
:1015A000012000E0002070470146486880B2704783
:1015B00030B503460A46002000240B4DAB4201D251
:1015C0000A4901E00849103902F000550DB14C6894
:1015D00000E00C68064D2C4004EA02050DB1012024
:1015E00000E0002030BD00001064024000600240B6
:1015F0007D0F7D0F10B501F080034BB122B143691F
:1016000043F08003436103E0436923F080034361B7
:1016100080290BD02AB1036801F01E042343036024
:1016200004E0036801F01E04A343036010BD000042
:1016300010B500220268134B1A40CC680B68234394
:101640004C6923438C692343CC6923430C6A2343AD
:101650004C6A23438C6A23434C6B23438C6B234398
:101660001A430260426922F00702D1E90B34234396
:101670001A4342610B6943604B6883608B68C360A7
:1016800010BD00003F801CF04160704770B52DED2B
:10169000068B05460C469FED4B0AB0EE408A9FED47
:1016A000490AF0EE408A9FED470AB0EE409A9FED5E
:1016B000450AF0EE409A9FED430AB0EE40AA002D95
:1016C00045D1012C3ED1404890ED040AD0ED0C0AE2
:1016D00030EE600AF0EE408A90ED050AD0ED0D0A7A
:1016E00030EE600AB0EE409A90ED060AD0ED0E0A98
:1016F00030EE600AF0EE409AF5EEC08AF1EE10FA94
:1017000009D1B5EEC09AF1EE10FA04D1F5EEC09A07
:10171000F1EE10FA05D000202C49087001F03AFBD8
:1017200002E0012029490870274890ED040A80ED65
:101730000C0A90ED050A80ED0D0A90ED060A80ED89
:101740000E0A3BE0ACBB002001F058FB36E0012D57
:1017500034D1012C2ED11C4890ED000AD0ED080A9E
:1017600030EE600AB0EE408A90ED070AD0ED0F0A25
:1017700030EE600AB0EE40AAB5EEC08AF1EE10FA83
:1017800004D1B5EEC0AAF1EE10FA06D0002010493F
:101790000870012001F0FEFA02E001200C490870F7
:1017A000094890ED000A80ED080A90ED070A80EDE7
:1017B0000F0A03E014B9012001F020FBBDEC068BF9
:1017C00070BD000000000000280800205402002026
:1017D000550200207047000010B507480078012826
:1017E00008D10648007820B99FED050A00F00AF8F4
:1017F00000E000BF10BD0000550200205202002092
:1018000000409C4510B52DED048BB0EE409A9FED45
:10181000A30AB0EE408A9FEDA10AF0EE408AA048EC
:101820000078E8BB9F48007D00F0870040F028006A
:101830009C4908759C4890ED070AB5EEC00AF1EE88
:1018400010FA14DD90ED070ADFED980AB4EEE00A15
:10185000F1EE10FA0BD290ED000AB5EEC00AF1EEEF
:1018600010FA04D24FF48041914800F0A6FB8E4854
:1018700090ED070AB5EEC00AF1EE10FA1DD290ED18
:10188000000AB5EEC00AF1EE10FA16DD89480078BC
:10189000401C884908700846007805280CDD00E0E7
:1018A0000FE001207E4908700020824908707E48C0
:1018B00090ED000A80ED080AECE000207D490870F8
:1018C000E8E0774800780128F6D1774890ED000AE3
:1018D000B5EEC00AF1EE10FA19D2774800780A285E
:1018E0000ADA75480078401C734908706E4890ED1C
:1018F000080A80ED000A0AE04FF480416C4800F0CD
:101900005EFB00206C49087002206C490870664834
:1019100090ED000A30EE490AB0EE408A90ED000AE0
:1019200080ED080AB5EEC08AF1EE10FA02D2B1EEEF
:10193000480A01E0B0EE480ADFED610AB4EEE00AC1
:10194000F1EE10FA0ADDB5EEC08AF1EE10FAB3DB63
:101950004FF48041564800F030FB9BE0B5EEC08A62
:10196000F1EE10FA02D2B1EE480A01E0B0EE480AF8
:10197000DFED530AB4EEE00AF1EE10FA7ED29FEDED
:10198000510AB4EEC08AF1EE10FA04DDB0EE480A56
:1019900002F09AFE0CE04FF48041454800F00FFB46
:1019A00000204949087049490860012043490870EE
:1019B000474890ED020AB5EEC00AF1EE10FA04D2E3
:1019C00090ED020AB1EE400A02E0414890ED020AB1
:1019D000F2EE040AB4EEE00AF1EE10FA16DC3C482E
:1019E00090ED030AB5EEC00AF1EE10FA04D290EDC4
:1019F000030AB1EE400A02E0354890ED030AF2EE28
:101A0000040AB4EEE00AF1EE10FA0CDD4FF4804166
:101A1000274800F0D4FA00202B4908702B490860B1
:101A200001202649087038EE680AB5EEC00AF1EECA
:101A300010FA04D2B1EE480A30EE680A01E038EE3E
:101A4000680ADFED240AB4EEE00AF1EE10FA1CD2C7
:101A500018480078401C1749087008460078052887
:101A600016DD4FF48041124800F0A9FA0020114918
:101A70000870154908701549086000E00AE00D4932
:101A8000087001200D49087002E000200949087023
:101A9000F0EE488ABDEC048B10BD00000000000091
:101AA000640200209C080020280800200010A446A2
:101AB000000C0240A3020020A402002052020020D9
:101AC00000007A44000048435D02002060020020CC
:101AD000880800200000C84210B52DED048BB0EE40
:101AE000409A9FED860AB0EE408A9FED840AF0EEA0
:101AF000408A834890ED000AB5EEC00AF1EE10FA74
:101B00001DD290ED080A80ED000A7E4800780A2870
:101B10000ADA7C480078401C7A490870784890EDD1
:101B2000080A80ED000A0AE04FF40051764800F000
:101B300046FA002073490870022074490870704802
:101B400090ED000A30EE490AB0EE408A90ED000AAE
:101B500080ED080A6E48007D00F0870040F0280004
:101B60006B490875B5EEC08AF1EE10FA02D2B1EEFB
:101B7000480A01E0B0EE480ADFED660AB4EEE00A7A
:101B8000F1EE10FA12DD5E4890ED000AB5EEC00AE3
:101B9000F1EE10FA0ADDB5EEC08AF1EE10FA04DBC0
:101BA0004FF48041584800F008FAA3E0B5EEC08A2F
:101BB000F1EE10FA02D2B1EE480A01E0B0EE480AA6
:101BC000DFED540AB4EEE00AF1EE10FA7DD24C4893
:101BD00090ED000AB5EEC00AF1EE10FA75DD9FED4A
:101BE0004E0AB4EEC08AF1EE10FA04DDB0EE480AF7
:101BF00002F06AFD0CE04FF48041434800F0DFF949
:101C0000002046490870464908600120454908708F
:101C1000454890ED020AB5EEC00AF1EE10FA04D282
:101C200090ED020AB1EE400A02E03F4890ED020A50
:101C3000F2EE040AB4EEE00AF1EE10FA16DC3A48CD
:101C400090ED030AB5EEC00AF1EE10FA04D290ED61
:101C5000030AB1EE400A02E0334890ED030AF2EEC7
:101C6000040AB4EEE00AF1EE10FA0CDD4FF4804104
:101C7000254800F0A4F90020284908702849086088
:101C800001202849087038EE680AB5EEC00AF1EE66
:101C900010FA04D2B1EE480A30EE680A01E038EEDC
:101CA000680ADFED220AB4EEE00AF1EE10FA1CD267
:101CB0001F480078401C1E49087008460078052817
:101CC00016DD4FF48041104800E013E000F077F992
:101CD000002017490870114908701149086014491B
:101CE000087001200F49087002E0002010490870B8
:101CF000F0EE488ABDEC048B10BD0000000000002F
:101D000028080020A6020020000C024053020020F8
:101D10009C08002000007A44000048435D02002037
:101D20006002002052020020880800200000C84203
:101D3000A502002010B52DED028BB0EE408A0848B8
:101D40000078012808D10748007820B9B0EE480A89
:101D5000FFF7C2FE00E000BFBDEC028B10BD00002B
:101D6000550200205202002010B52DED028BB0EE7E
:101D7000408A08480078012808D10748007820B92F
:101D8000B0EE480AFFF73EFD00E000BFBDEC028B5D
:101D900010BD0000550200205202002000B585B0A1
:101DA0000121082000F0BAFD4FF4006003900020EC
:101DB0008DF8100002208DF8110003A9144800F0DE
:101DC00091F80121880300F0C9FD0A21042001F0E7
:101DD0001FF94FF48060009000208DF80400082067
:101DE0008DF8050001208DF80600684600F030F8F7
:101DF00028208DF8080000208DF809008DF80A00D1
:101E000001208DF80B0002A800F022FD05B000BDF6
:101E1000000C024010B54FF4806000F00DF818B1CE
:101E20004FF4806000F002F810BD00000149086026
:101E300070470000143C014001460020034A12682C
:101E40000A400AB1012000E000207047143C014024
:101E5000002123498279002A3AD00A461268036891
:101E60009A430B461A600A1D126803689A430B1DB9
:101E70001A60027911440A6803681A430A60184A12
:101E80000832126803689A43154B08331A601A1D0A
:101E9000126803689A43124B0C331A604279102A75
:101EA0000ED11A1F126803681A430D4B08331A60CB
:101EB0001A1D126803681A43094B0C331A600DE0AF
:101EC0000749427911440A6803681A430A6005E029
:101ED000027911440A6803689A430A607047000057
:101EE000003C0140F0B50A4600210023002400BF59
:101EF0003DE0012505FA01F3156805EA03049C425B
:101F000034D105684F000326BE40B54305601579FE
:101F10004E00B5400668354305601579012D02D0A5
:101F20001579022D16D185684F000326BE40B543B2
:101F3000856055794E00B5408668354385604568B3
:101F400001268E40B5434560456896798E40B6B20D
:101F500035434560C5684F000326BE40B543C560A4
:101F6000D5794E00B540C6683543C560491C102977
:101F7000BFD3F0BDF0B5002300244D07ED0E02FAEB
:101F800005F3CE1000F1200555F826504E07F70E48
:101F90000F26BE40B543CF1000F1200646F827506B
:101FA000CE1000F1200555F8265045EA0304CE1066
:101FB00000F1200545F82640F0BD418370470183BC
:101FC000704710B5FFF774F910BD10B500F0B6FEFC
:101FD00010BD00BFFEE7000010B52DED028BF0EE46
:101FE000408AB0EE608A4448007840B900204349F6
:101FF00008704349086001203F49087078E03E4876
:102000000078012838D13F4800680A282BDAF5EE1D
:10201000C08AF1EE10FA05DD4FF400413A48FFF7AF
:10202000CCFF65E0F5EEC08AF1EE10FA05D24FF470
:1020300080413548FFF7C1FF5AE0B5EEC08AF1EEA6
:1020400010FA05DD4FF480512F48FFF7B6FF4FE03F
:10205000B5EEC08AF1EE10FA4AD24FF400512A4888
:10206000FFF7ABFF44E024480078401C2249087089
:102070000020244908603BE01F480078022837D13F
:10208000204800680A282BDAF5EEC08AF1EE10FA33
:1020900005DD4FF400411C48FFF791FF28E0F5EE05
:1020A000C08AF1EE10FA05D24FF480411648FFF7CE
:1020B00086FF1DE0B5EEC08AF1EE10FA05DD4FF4A3
:1020C00080511148FFF77BFF12E0B5EEC08AF1EEB8
:1020D00010FA0DD24FF400510B48FFF770FF07E0E4
:1020E00005480078401E0449087000200549086032
:1020F000BDEC028B10BD00005D02002056020020E6
:1021000058020020600200200004024010B52DEDAE
:10211000028BF0EE408AB0EE608A0B48007801280E
:102120000ED10A48007820B9B0EE680A02F018FB18
:1021300006E00748007818B9B0EE480A02F034FC0F
:10214000BDEC028B10BD00005402002050020020A4
:10215000510200201CB50121102000F0DFFB3820C7
:10216000009000208DF8040001208DF80700022067
:102170008DF8050069460248FFF7B4FE1CBD00005B
:10218000001002401CB50121084600F0C7FB0820E2
:10219000009001208DF8040000208DF806008DF8D5
:1021A000070002208DF8050069460248FFF79AFEF5
:1021B0001CBD00000000024010B500F09BFB14485D
:1021C000007818B901201249087020E01048007802
:1021D000012802D1FFF76CF819E00D4800780228B9
:1021E00015D100F073FB01200A4908700A4890F9E4
:1021F0000000801C58B9FF20084908700649087083
:10220000002007490870074908700149087010BD8F
:1022100065020020A80200204F0000204E00002090
:10222000A70200202400002010B52DED028BB0EE97
:10223000408A2248007801283DD12148007820B901
:10224000B0EE480AFFF7DEFA35E01D4800780128B5
:1022500015D100F03BFB1B4890F90000801C50BBDF
:10226000FF201949087017490870002017490870A5
:102270001749087017490870114908701BE0104889
:102280000078022817D100F021FB012012490870C4
:102290000C4890F90000801C68B9FF200A490870BA
:1022A000084908700020094908700949087009495F
:1022B000087003490870BDEC028B10BD5502002068
:1022C000520200204F0000204E000020A7020020F4
:1022D0002400002025000020A802002010B52DEDCC
:1022E000028BB0EE408A2248007801283DD1214877
:1022F000007820B9B0EE480AFFF7EEFB35E01D4844
:102300000078012815D100F0E1FA1B4890F900008F
:10231000801C50BBFF201949087017490870002025
:102320001749087017490870174908701149087053
:102330001BE010480078022817D100F0C7FA0120EE
:10234000124908700C4890F90000801C68B9FF2001
:102350000A490870084908700020094908700949AD
:1023600008700949087003490870BDEC028B10BD64
:1023700055020020520200204F0000204E00002095
:10238000A70200202400002025000020A802002031
:1023900010B52DED028BB0EE408A2248007801285E
:1023A0003DD12148007820B9B0EE480AFFF72AFA5B
:1023B00035E01D480078012815D100F087FA1B4848
:1023C00090F90000801C50BBFF2019490870174984
:1023D00008700020174908701749087017490870DD
:1023E000114908701BE010480078022817D100F04E
:1023F0006DFA0120124908700C4890F90000801C09
:1024000068B9FF200A490870084908700020094986
:102410000870094908700949087003490870BDEC43
:10242000028B10BD55020020520200204F000020F8
:102430004E000020A70200202400002025000020DC
:10244000A802002010B500F055FA1448007818B919
:1024500001201249087020E010480078012802D1BC
:10246000FEF726FF19E00D480078022815D100F08C
:102470002DFA01200A4908700A4890F90000801CD2
:1024800058B9FF200849087006490870002007491C
:102490000870074908700149087010BD6C020020DF
:1024A000A80200204F0000204E000020A7020020BC
:1024B0002400002010B52DED028BB0EE408A00F014
:1024C00019FA2248007801283DD12148007820B926
:1024D000B0EE480A01F036FF35E01D4800780128CB
:1024E00015D100F0F3F91B4890F90000801C50BB97
:1024F000FF20194908701749087000201749087013
:102500001749087017490870114908701BE01048F6
:102510000078022817D100F0D9F90120124908707B
:102520000C4890F90000801C68B9FF200A49087027
:1025300008490870002009490870094908700949CC
:10254000087003490870BDEC028B10BD55020020D5
:10255000530200204F0000204E000020A702002060
:102560002400002025000020A802002010B52DED39
:10257000028BB0EE408A2248007801283DD12148E4
:10258000007820B9B0EE480A01F010FE35E01E4890
:102590000078012815D100F099F91C4890F9000045
:1025A000801C50BBFF201A49087018490870002091
:1025B00018490870184908701849087011490870BE
:1025C0001BE011480078022817D100F07FF90120A4
:1025D000134908700D4890F90000801C68B9FF206D
:1025E0000B4908700949087000200A4908700A4917
:1025F00008700A49087003490870BDEC028B10BDD1
:102600005502002053020020520200204F000020FB
:102610004E000020A70200202400002025000020FA
:10262000A802002010B52DED028BB0EE408A2248A2
:10263000007801283DD12148007820B9B0EE480A41
:1026400001F074FF35E01D480078012815D100F035
:102650003DF91B4890F90000801C50BBFF20194930
:10266000087017490870002017490870174908704A
:1026700017490870114908701BE0104800780228BB
:1026800017D100F023F90120124908700C4890F985
:102690000000801C68B9FF200A49087008490870CA
:1026A0000020094908700949087009490870034960
:1026B0000870BDEC028B10BD5502002053020020B3
:1026C0004F0000204E000020A70200202400002020
:1026D00025000020A802002010B52DED028BB0EEE1
:1026E000408A00F007F92248007801283DD12148AE
:1026F000007820B9B0EE480A02F032F835E01D4803
:102700000078012815D100F0E1F81B4890F900008D
:10271000801C50BBFF201949087017490870002021
:10272000174908701749087012490870164908704F
:102730001BE010480078022817D100F0C7F80120EC
:10274000124908700C4890F90000801C68B9FF20FD
:102750000A490870084908700020094908700949A9
:1027600008700949087003490870BDEC028B10BD60
:1027700054020020500200204F0000204E00002094
:10278000A70200202400002025000020A80200202D
:1027900010B52DED028BB0EE408A00F0ABF8224868
:1027A000007801283DD12148007820B9B0EE480AD0
:1027B00002F0FAF835E01D480078012815D100F044
:1027C00085F81B4890F90000801C50BBFF20194978
:1027D00008701749087000201749087017490870D9
:1027E00017490870114908701BE01048007802284A
:1027F00017D100F06BF80120124908700C4890F9CD
:102800000000801C68B9FF200A4908700849087058
:1028100000200949087009490870094908700349EE
:102820000870BDEC028B10BD540200205102002044
:102830004F0000204E000020A702002024000020AE
:1028400025000020A802002000BFFEE7704700001E
:1028500070B5002100230F22C4781CB3174C2468E4
:1028600004F4E064C4F5E064C4F30721C1F1040496
:10287000E3B20A4144789C40E1B284781440214399
:102880000C07210E0E4C05786155047804F01F05E5
:102890000124AC4005786D11AD0005F1E025C5F8C7
:1028A000004109E0047804F01F050124AC40054D07
:1028B0000678761145F8264070BD00000CED00E06A
:1028C00000E400E080E100E07047000010B5084837
:1028D00090F90000401C10B9002005490870044818
:1028E00090F90000002801DB00F0AAF910BD0000FB
:1028F0004F00002010B5084890F90000401C10B9A6
:10290000002005490870044890F90000002801DB08
:1029100000F0B4F910BD00004E00002029B1064AB5
:1029200012680243044B1A6004E0034A12688243AF
:10293000014B1A60704700003038024029B1064A46
:1029400012680243044B1A6004E0034A126882438F
:10295000014B1A60704700004038024029B1064A16
:1029600012680243044B1A6004E0034A126882436F
:10297000014B1A60704700004438024029B1064AF2
:1029800012680243044B1A6004E0034A126882434F
:10299000014B1A607047000024380240F0B5002156
:1029A00000220024022500260223324F3F6807F050
:1029B0000C0121B1042905D0082937D105E02E4F9B
:1029C000076036E02D4F076033E02A4F3F1F3F6816
:1029D000C7F38056274F3F1F3F6807F03F036EB194
:1029E000264FB7FBF3F7DFF88CC0ACF1040CDCF832
:1029F00000C0CCF3881C07FB0CF40CE01E4FB7FBA7
:102A0000F3F7DFF870C0ACF1040CDCF800C0CCF3D5
:102A1000881C07FB0CF4174F3F1F3F68C7F30147A3
:102A20007F1C7D00B4FBF5F7076002E0124F0760E2
:102A300000BF00BF0F4F3F6807F0F0010909104FBA
:102A40007A5C0768D74047600A4F3F6807F4E05157
:102A5000890A0B4F7A5C4768D7408760054F3F680B
:102A600007F46041490B064F7A5C4768D740C7605E
:102A7000F0BD0000083802400024F40000127A0083
:102A8000140000201CB50446204601F091F90121F4
:102A90000846FFF743FF0620009001208DF8040050
:102AA00000208DF8060003208DF8050001208DF828
:102AB000070069460548FFF715FA02210348FFF7AA
:102AC0007CFA04210148FFF778FA1CBD000002409F
:102AD00070B5B4B000240025002600203390642196
:102AE0001AA8FDF774FB642101A8FDF770FBAA206A
:102AF00050490870084602782146641C1AA84254BE
:102B0000641C4C48C2792146641C1AA842544948A6
:102B100082792146641C1AA84254464842792146CB
:102B2000641C1AA842544348C27A2146641C1AA85D
:102B300042544048827A2146641C1AA842543D48B7
:102B4000427A2046611CCCB21AA90A543948C27B89
:102B50002046611CCCB21AA90A543648827B204612
:102B6000611CCCB21AA90A543248427B2046611C2F
:102B7000CCB21AA90A542F48C27C2046611CCCB2A0
:102B80001AA90A542B48827C2046611CCCB21AA98F
:102B90000A542848427D2046611CCCB21AA90A5426
:102BA0002448027D2046611CCCB21AA90A5421484F
:102BB000427D2046611CCCB21AA90A541D48027DF0
:102BC0002046611CCCB21AA90A54022508E01AA8B2
:102BD000425D3046711CCEB201A90A54681CC5B2D0
:102BE000A542F4DB314601A8FEF746FB33909DF881
:102BF000CD202046611CCCB21AA90A549DF8CC20E5
:102C00002046611CCCB21AA90A54EE222046611C4F
:102C1000CCB21AA90A548DF86A400120064908600E
:102C200000200649C1F8880221461AA800F028FFB2
:102C300034B070BD9C080020840240420000404235
:102C400010B50C4890F9000000280ADB094890F9FB
:102C500000000A2805DC4FF480610748FFF7ADF952
:102C600007E0FE20034908704FF480610248FFF737
:102C7000A6F910BD4F0000200010024010B50C480E
:102C800090F9000000280ADB094890F900000A28A2
:102C900005DC4FF400710748FFF78FF907E0FE20CD
:102CA000034908704FF400710248FFF788F910BD1E
:102CB0004E000020001002401CB501211A20FFF731
:102CC0002DFE4FF47040009001208DF8040000208C
:102CD0008DF806008DF8070002208DF80500694682
:102CE0001348FFF7FFF84FF46040009001208DF883
:102CF000040000208DF806008DF8070002208DF8F2
:102D0000050069460B48FFF7EDF84FF4E0600090CE
:102D100001208DF8040000208DF806008DF80700D2
:102D200002208DF8050069460348FFF7DBF81CBD5B
:102D300000040240000C02400010024010B511488F
:102D4000007D00F0870040F038000E4908750E48FD
:102D50000078012814D10D480068642805DA4FF482
:102D600080710B48FFF729F90AE04FF48071084899
:102D7000FFF725F902200449087000200349086084
:102D800010BD00009C0800206C0200207002002092
:102D90000010024010B5044614B1012C06D102E027
:102DA00000F008F803E000F017F800E000BF00BFF3
:102DB00010BD000010B5002408E00121054802F014
:102DC00017FA44F6206002F017F9641C052CF4DBB6
:102DD00010BD00003C00002010B5002408E00121D7
:102DE000054802F014FA44F6206002F005F9641C6C
:102DF000052CF4DB10BD00004200002010B5044695
:102E000014B1012C06D102E000F008F803E000F054
:102E100017F800E000BF00BF10BD000010B500248F
:102E200008E00021054802F0E3F944F6206002F0D2
:102E3000E3F8641C052CF4DB10BD00003C0000200E
:102E400010B5002408E00021054802F0E0F944F63E
:102E5000206002F0D1F8641C052CF4DB10BD0000EA
:102E60004200002010B52DED028BB0EE408AB5EE89
:102E7000C08AF1EE10FA3EDD3F48007840B94FF4C9
:102E800000413E48FFF79BF801203B49087070E085
:102E900039480078012812D1394800680A2805DC31
:102EA0004FF480413548FFF788F862E032480078F7
:102EB000401C3149087000203149086059E02E4813
:102EC0000078022855D12E480068022805DC4FF40E
:102ED00080412A48FFF773F84BE027480078401EEE
:102EE0002549087000202649086026480078401CC3
:102EF000244908703DE02048007840B94FF48041F3
:102F00001E48FFF75CF801201B49087031E01A48A1
:102F10000078012812D11A4800680A2805DC4FF40D
:102F200000411648FFF749F823E013480078401C99
:102F3000114908700020124908601AE00E48007814
:102F4000022816D10E480068022805DC4FF4004123
:102F50000A48FFF734F80CE007480078401E06499D
:102F6000087000200649086006480078401C0549A2
:102F70000870BDEC028B10BD560200200004024018
:102F8000580200205C02002010B507480078012894
:102F900008D10648007820B99FED050A01F006F92E
:102FA00000E000BF10BD00005502002053020020C9
:102FB00000803B4510B507480078012808D1064835
:102FC000007820B99FED050A01F0BCF900E000BFD0
:102FD00010BD0000550200205302002000803B4538
:102FE00010B507480078012808D10648007820B9B4
:102FF0009FED050A01F09AFA00E000BF10BD000045
:10300000550200205302002000803B45704700001D
:1030100030B500228B071C0F0F2303FA04F20B4B71
:103020008C1053F824309343084C8D1044F825300D
:1030300023468C1053F824308C07240F00FA04F434
:103040002343024C8D1044F8253030BD0838014030
:103050000CB50020019000903448006840F48030A6
:103060003249086000BF3148006800F40030009029
:103070000198401C0190009818B90198B0F5A04F34
:10308000F1D12A48006800F4003010B1012000900E
:1030900001E0002000900098012846D123484030EC
:1030A000006840F0805021494031086020480068A5
:1030B00040F440401E4908601C48083000681B4925
:1030C000083108600846006840F40040086008467F
:1030D000006840F4A05008601648091F0860081FE7
:1030E000006840F08070091F086000BF0F4800684A
:1030F00000F000700028F9D040F205700E49086019
:103100000A480830006820F00300084908310860C8
:103110000846006840F00200086000BF034808301D
:10312000006800F00C000828F8D10CBD00380240FF
:103130000070004008544007003C024010B500F009
:1031400015F910BD30B515480068154AB0FBF2F10D
:10315000481EB0F1807F01D301201BE0481E4FF0D4
:10316000E022506150170F22002807DA13071D0EC6
:103170000C4B00F00F04241F1D5503E013071C0E19
:10318000094B1C5400BF00204FF0E0229061072043
:103190001061002008B100BFFEE730BD0000002034
:1031A000A086010018ED00E000E400E010B515482D
:1031B000006840F47000134908601348006840F04C
:1031C00001001149086000200F49083108600E48CD
:1031D00000680E4908400C4908600D48091D086048
:1031E000081F006820F48020091F0860002006499D
:1031F0000C310860FFF72CFF4FF000600149803967
:10320000086010BD88ED00E000380240FFFFF6FEC8
:103210001030002410B50121054800F04AF808B12B
:1032200001F048FE0121024800F034F810BD000012
:10323000001400407FB505460C4601212020FFF711
:103240007DFB0295A0B2ADF804000020ADF80600A9
:10325000ADF80C0001A90E4800F046F80122114615
:103260000B4800F037F80121094800F016F8372024
:103270008DF8000001208DF8010003208DF8020078
:1032800001208DF803006846FFF7E2FA7FBD0000D9
:1032900000140040CA430282704721B1028842F004
:1032A0000102028004E002884FF6FE731A40028099
:1032B000704730B50246002000230024158A05EA35
:1032C0000103958905EA010413B10CB1012000E066
:1032D000002030BD1AB183890B43838102E08389CA
:1032E0008B4383817047000000220288184B98426C
:1032F0000ED0184B98420BD0B0F1804F08D0164B2F
:10330000984205D0154B984202D0154B984204D1F3
:103310004FF68F731A404B881A43124B984207D0CE
:10332000114B984204D04FF6FF431A400B891A43C1
:1033300002804B68C3620B880385054B984202D01C
:10334000044B984201D18B7A038601238382704714
:10335000000001400004014000040040000800405B
:10336000000C0040001000400014004004480068B9
:1033700020B103480068401E014908607047000002
:103380002800002010B540F22441134800F0F5FD5C
:1033900001280BD1104800F003FF1048FEF704F994
:1033A000C0F16400C4B200F01DF814E040F22661E0
:1033B000094800F0E2FD01280DD140F226610648DF
:1033C00000F039FD064805494039C860002103482E
:1033D0003030FEF727F810BD004C0040406002403E
:1033E0003D00002010B500210848FEF71BF800BF83
:1033F0000648FEF7CFF80028FAD164210348FEF70B
:1034000043F901210148FEF70DF810BD406002406C
:1034100000B58FB01948FEF711F800211748FEF7E4
:1034200001F800BF1548FEF7B5F80028FAD164206E
:10343000049004200B9003200C9000200D90089025
:103440004FF480600690801009900D480190002094
:103450000E90079005904FF480300A90C0020090C3
:10346000002003900748029069460448FEF7E0F800
:1034700001210248FDF7D6FF0FB000BD886402406D
:1034800004100140E002002070B504460D4600BF64
:103490000748FEF77FF80028FAD10548001D0560AF
:1034A00003480C30046001210148FDF7BBFF70BDEB
:1034B000B864024030B58FB004460D461448FDF79D
:1034C000BDFF00BF1248FEF765F80028FAD1049549
:1034D00004200B9003200C9000200D9008904FF4D6
:1034E00080600690002009900A48019000200E900C
:1034F000079005904FF400300A9080020090402021
:103500000390029469460248FEF792F80FB030BD6E
:10351000B86402400410014010B540F224415F48F5
:1035200000F02BFD01287DD15C4800F039FE5C489D
:10353000FEF73AF8C0F16400C4B200F0D7FD082CE1
:1035400071D158480078DD286DD1002008E0554938
:10355000095C554A12681144534A1160411CC8B2B3
:103560000728F4DB4F48C0794F49096888427AD16F
:103570004C4840784B49897840EA012000EE100A17
:10358000B8EEC00A494880ED140A4648C07845495B
:10359000097940EA012000EE100AB8EEC00A43485B
:1035A00080ED150A3F4840793E49897940EA01207B
:1035B00000EE100AB8EEC00A3C4880ED160A90ED05
:1035C000140ADFED3B0A20EE200A9FED3A1AC0EE06
:1035D000010A9FED390AB1EE041A11EE200ADFED5F
:1035E000370A30EE200A80ED040A90ED150ADFED6F
:1035F000300A20EE200A9FED2F1AC0EE010A9FED3F
:10360000300AB2EE041A11EE200ADFED2C0A30EE79
:10361000200A80ED050A90ED160ADFED250A20EE5E
:10362000200A01E023E021E09FED221AC0EE010A0A
:103630009FED210AB1EE041A11EE200ADFED1F0AF8
:1036400030EE200A80ED060A90ED050ABDEEC00AB4
:103650001C4880ED010A154890ED060ABDEEC00A2F
:10366000184880ED020A00200F49086015E040F27A
:1036700026610A4800F081FC01280ED140F2266143
:10368000064800F0D8FB4FF03D5005497C390860F2
:10369000002103483030FDF7C5FE10BD0010014089
:1036A00088640240E002002030000020280800204A
:1036B00000404E450000804500803B4500007042C0
:1036C0000080BB459C08002010B50446204601F050
:1036D0006DFA10BD70B504460D4600BF0848FDF7F1
:1036E00059FF0028FAD10648001D05600448A0389B
:1036F000C0F8AC4001210248FDF794FE70BD000007
:10370000A060024010B52DED068B40F22441A54883
:1037100000F033FC01287DD1A24800F041FDA24811
:10372000FDF742FFC0F57A70C4B200F0F5FC0E2C34
:1037300071D19E480078BB28FAD1002008E09B494F
:10374000095C9B4A12681144994A1160411CC8B235
:103750000D28F4DB9548407B9549096888427DD166
:1037600092494978914A927841EA022108B2FCF7DD
:103770001AFE41EC1A0B9FED8F0B53EC102BFCF74C
:10378000A3FD41EC190B9FED8D0B53EC102BFCF7B7
:1037900029FD41EC180BFCF717FE8A4908608349A4
:1037A000C978824A127941EA022108B2FCF7FBFD8E
:1037B00041EC1A0B9FED7F0B53EC102BFCF784FDB3
:1037C00041EC190B9FED800B53EC102BFCF70AFD1D
:1037D00041EC180BFCF7F8FD7A49486073494979C8
:1037E000724A927941EA022108B2FCF7DCFD41EC11
:1037F0001A0B9FED700B53EC102BFCF765FD41ECA1
:10380000190B9FED730B53EC102BFCF7EBFC41EC09
:10381000180B01E0AEE0ACE0FCF7D6FD694988602A
:103820006249C979614A127A41EA022108B2FCF779
:10383000BAFD41EC1A0B9FED5F0B53EC102BFCF71C
:1038400043FD41EC190B9FED620B53EC102BFCF781
:10385000C9FC41EC180BFCF7B7FD00E086E05949C4
:10386000C8605249497A514A927A41EA022108B223
:10387000FCF799FD41EC1A0B9FED4E0B53EC102B0E
:10388000FCF722FD41EC190B9FED510B53EC102B73
:10389000FCF7A8FC41EC180BFCF796FD49490861C0
:1038A0004248C07A4149097B40EA012000EE100AF3
:1038B000B8EEC00A484880ED100A3C49497B3B4AB3
:1038C000927B41EA0220FCF76EFD41EC190B9FED63
:1038D000430B53EC102BFCF7F7FC41EC180BFCF7F7
:1038E00073FD3D49C865084690ED100ADFED3D0ABD
:1038F00020EE200A9FED3C1AC0EE010A9FED3B0A24
:10390000B1EE041A11EE200A80ED000A90ED170ABC
:10391000DFED340A20EE200A9FED331AC0EE010AD3
:103920009FED320AB1EE041A11EE200ADFED300AE3
:1039300030EE200A80ED070A90ED000ABDEEC00AC5
:103940002C4880ED030A1F4890ED020ABDEEC00A24
:1039500010EE100A00B2274908821A4890ED030AB7
:10396000BDEEC00A10EE100A00B2488200201049D5
:10397000086014E040F226610A4800F0FEFA0128CF
:103980000DD140F22661074800F055FA1A48064961
:103990008839C860002104481830FDF743FDBDECAC
:1039A000068B10BD00440040886002406103002087
:1039B0003400002000000000C0FFDF4000000000D5
:1039C00000003040880800200000000000409F40B8
:1039D0000000000000806640280800200000000071
:1039E0000000F03F00404E450000804500803B4510
:1039F000000016439C08002000003D2010B504463E
:103A0000204601F055F910BD00B58FB01948FDF7FB
:103A100015FD00211748FDF705FD00BF1548FDF70E
:103A2000B9FD0028FAD16420049004200B900320F3
:103A30000C9000200D9008904FF48060069080104C
:103A400009900D48019000200E90079005904FF4CA
:103A500080300A90C0020090002003900748029036
:103A600069460448FDF7E4FD01210248FDF7DAFC50
:103A70000FB000BD28600240044800405E070020EF
:103A800070B505460C4600211048FDF7CBFC00BF81
:103A90000E48FDF77FFD0028FAD100BF03E0295C46
:103AA0000B4A1154401CA042F9D3A1B20748FDF7BC
:103AB000EBFD01210548FDF7B5FC01200549086033
:103AC00000200549C1F8880270BD0000586002401E
:103AD000C2070020840240420000404200B591B07D
:103AE0002548FDF7ABFC00212348FDF79BFC00BFF8
:103AF0002148FDF74FFD0028FAD1642006900420EC
:103B00000D9003200E9000200F900A904FF48060DB
:103B1000089000200B901948039000201090099005
:103B200007904FF400300C908002029040200590E6
:103B30001348049002A91048FDF77AFD0E208DF875
:103B4000040000208DF805008DF8060001208DF896
:103B5000070001A8FEF77CFE0A490748FDF748FC6C
:103B6000012210210448FDF745FD01210248FDF71F
:103B700059FC11B000BD00005860024004480040EC
:103B8000C20700200080001870B59AB0002440F2EF
:103B900024417D4800F0F1F901287DD17A4800F0F8
:103BA000FFFA7A48FDF700FDC0F16400C6B200F0EC
:103BB000CBFA77480078AB286FD1012007E0744931
:103BC0000B5C2146621CD4B201AA5354401C7049BC
:103BD0004978891E8142F2DC6D484078401E6C496C
:103BE000095C6B484078801E694A105C41EA0025F8
:103BF000214601A8FDF740FBA8420DD1644880781A
:103C000000F0070048B96348007D00F0F800614902
:103C100008750846007D087599E05D48807800F0D9
:103C20000700012814D15C4908705C4908705848A5
:103C30008078C0105A4908705648007D00F0F8009E
:103C4000544908750846007D40F0010008757EE083
:103C50004F48807800F00700022835D14C48007B9F
:103C600000044B49497B40EA01204949897B0843CC
:103C70004C4908604648807BC0034549097C40EABE
:103C800001204349497C0843464988604048407DBB
:103C90000121B1EB201F01E05DE05BE002D10120DA
:103CA0004149087001203C49087002203B490870D6
:103CB0003848007D00F0F800364908750846007D58
:103CC00040F00200087542E03148807800F00700BB
:103CD000032829D12E48007B00042D49497B40EA66
:103CE00001202B49897B08432E4908602848807BA6
:103CF000C0032749097C40EA01202549497C084343
:103D0000284988600120244908700320234908704D
:103D10002048007D00F0F8001E4908750846007D27
:103D200040F00300087512E01948807800F00700A1
:103D300004280CD01648807800F00700052806D02B
:103D40001348807800F00700062800D000BF01204B
:103D50001649087015E040F226610B4800F00DF995
:103D600001280ED140F22661074800F064F84FF0B8
:103D7000746006492839C860002104483030FDF7D6
:103D800051FB1AB070BD000000480040286002409E
:103D90005E0700209C080020240000202500002051
:103DA000A7020020C8020020AC020020260000204C
:103DB00010B50446204600F0EDFF10BD10B540F2EE
:103DC0002441144800F0D9F801280CD1114800F022
:103DD000E7F91148FDF7E8FBC0F164000F490870EE
:103DE00000F0C8F914E040F226610A4800F0C5F876
:103DF00001280DD140F22661064800F01CF8084861
:103E000005491C390860002103487830FDF70AFB9A
:103E100010BD00000014014028640240380000205A
:103E200000003D2001F40072B2F5007F00D100BF18
:103E3000CA430280704710B50022002340F66A147E
:103E4000A14200D100BF0A1201249440A3B2DC4376
:103E5000048010BD21B1828942F40052828104E0C5
:103E600082894DF6FF731A40828170471AB1838AA6
:103E70000B43838202E0838A8B4383827047000076
:103E800000B58FB01A48FDF7D9FA00211848FDF7A0
:103E9000C9FA00BF1648FDF77DFB0028FAD14FF4A0
:103EA0007A70049004200B9003200C9000200D9059
:103EB00008904FF480600690801009900D480190A2
:103EC00000200E90079005904FF480300A90C002B9
:103ED0000090002003900848029069460448FDF7CE
:103EE000A7FB01210248FDF79DFA0FB000BD0000BD
:103EF00088600240044400406103002030B58FB068
:103F000004460D461448FDF799FA00BF1248FDF724
:103F100041FB0028FAD1049504200B9003200C905B
:103F200000200D9008904FF48060069000200990CA
:103F30000A48019000200E90079005904FF4003041
:103F40000A90800200904020039002946946024843
:103F5000FDF76EFB0FB030BDA0600240044400408E
:103F600002460020B1F5007F00D100BF13880B404E
:103F70000BB1012000E00020704770B5024600241C
:103F800000230025002040F66A16B14200D100BF90
:103F9000C1F3421501F01F03012606FA03F3012DB8
:103FA00002D19689334006E0022D02D1168A3340B1
:103FB00001E0968A33400C12012606FA04F41688B2
:103FC000344013B10CB1012000E0002070BDF0B509
:103FD0000346002400260025002040F66A17B94257
:103FE00000D100BF1846C1F3421401F01F0601279B
:103FF00007FA06F5012C01D10C3004E0022C01D1A6
:10400000103000E014301AB107682F43076002E057
:104010000768AF430760F0BD2DE9FF4705460E4630
:104020000024A14600BFA046B08900B100BF2C8A81
:1040300024F44054F08804432C82AC8941F20C6093
:104040008443B08831890843718908430443AC81B3
:10405000AC8A24F44074B0890443AC826846FEF70D
:104060009DFC2048854202D01F48854202D1DDF8E0
:104070000C9001E0DDF80890A88900F4004040B100
:1040800009EBC90000EB091031684900B0FBF1F7FA
:1040900007E009EBC90000EB091031688900B0FBAB
:1040A000F1F76420B7FBF0F004012009642101FB63
:1040B0001078A88900F4004040B1322000EBC8001D
:1040C000B0FBF1F000F00700044308E0322000EB01
:1040D00008106421B0FBF1F000F00F0004432C81C4
:1040E000BDE8FF87001001400014014010B5002119
:1040F0000848FDF797F900BF0648FDF74BFA00287E
:10410000FAD164210348FDF7BFFA01210148FDF708
:1041100089F910BD8864024010B500210948FDF7F7
:1041200081F900BF0748FDF735FA0028FAD14FF4AE
:104130007A710448FDF7A8FA01210248FDF772F9E7
:1041400010BD00008860024010B500210848FDF74E
:1041500069F900BF0648FDF71DFA0028FAD164216D
:104160000348FDF791FA01210148FDF75BF910BD05
:104170002860024010B500210848FDF753F900BF40
:104180000648FDF707FA0028FAD164210348FDF735
:104190007BFA01210148FDF745F910BD2864024072
:1041A00001468888C0F308007047000010B52DED67
:1041B000048BB0EE409A9FED5A0AB0EE408A9FED14
:1041C000580AF0EE408A574890ED070AB5EEC00A4B
:1041D000F1EE10FA19D2544800780A280ADA524847
:1041E0000078401C504908704E4890ED0F0A80ED51
:1041F000070A0AE04FF400514C48FDF7E0FE0020AA
:104200004949087002204A490870464890ED070A5B
:1042100030EE490AB0EE408A90ED070A80ED0F0AB1
:10422000B5EEC08AF1EE10FA02D2B1EE480A01E012
:10423000B0EE480ADFED3F0AB4EEE00AF1EE10FA04
:104240001ADD384890ED070AB5EEC00AF1EE10FA13
:1042500012DD3948007D00F0870040F0200036492B
:104260000875B5EEC08AF1EE10FA26DB4FF4005166
:104270002E48FDF7A2FE20E0B5EEC08AF1EE10FA5E
:1042800002D2B1EE480A01E0B0EE480ADFED290A99
:10429000B4EEE00AF1EE10FA0FD2224890ED070AD0
:1042A000B5EEC00AF1EE10FA07DD4FF400511F48D9
:1042B000FDF785FE01201E49087038EE680AB5EE4C
:1042C000C00AF1EE10FA04D2B1EE480A30EE680AE4
:1042D00001E038EE680ADFED190AB4EEE00AF1EE0B
:1042E00010FA14D216480078401C15490870084688
:1042F000007805280EDD4FF400510C48FDF75FFEF5
:1043000000200F49087001200949087002E00020D0
:104310000B490870F0EE488ABDEC048B10BD00001C
:1043200000000000280800209B020020000C024032
:1043300053020020000096439C0800200000C84261
:104340009A02002010B52DED048BB0EE409A9FED3F
:104350006D0AB0EE408A9FED6B0AF0EE408A6A4823
:10436000007801284BD16948007D00F0870040F0BB
:10437000200066490875664890ED000AB5EEC00A4F
:10438000F1EE10FA14DD90ED000ADFED620AB4EEF2
:10439000E00AF1EE10FA0BD290ED070AB5EEC00A72
:1043A000F1EE10FA04D24FF480415B48FDF705FEB0
:1043B000574890ED000AB5EEC00AF1EE10FA1AD295
:1043C00090ED070AB5EEC00AF1EE10FA13DD53487E
:1043D0000078401C5149087008460078052809DD1E
:1043E0000020494908704D490870494890ED070A76
:1043F00080ED0F0A83E00020484908707FE04248C2
:10440000007800287BD1424890ED070AB5EEC00A3B
:10441000F1EE10FA03D290ED0F0A80ED070A3C4846
:1044200090ED070A30EE490AB0EE408A90ED070A97
:1044300080ED0F0AB5EEC08AF1EE10FA02D2B1EEAD
:10444000480A01E0B0EE480ADFED350AB4EEE00AB2
:10445000F1EE10FA0ADDB5EEC08AF1EE10FA1EDBBD
:104460004FF400512C48FDF7A8FD18E0B5EEC08AC6
:10447000F1EE10FA02D2B1EE480A01E0B0EE480ABD
:10448000DFED270AB4EEE00AF1EE10FA07D24FF49E
:1044900000512148FDF793FD01202249087038EEB4
:1044A000680AB5EEC00AF1EE10FA04D2B1EE480A7D
:1044B00030EE680A01E038EE680ADFED1B0AB4EE60
:1044C000E00AF1EE10FA15D214480078401C1349A6
:1044D00008700846007805280FDD4FF400510E489B
:1044E000FDF76DFD00200D49087001200D49087091
:1044F00003E004E0002009490870F0EE488ABDECB2
:10450000048B10BD00000000640200209C08002005
:104510002808002000401C46000C02409E0200209B
:1045200000009643530200200000C84210B52DED54
:10453000048BB0EE409A9FED5A0AB0EE408A9FED90
:10454000580AF0EE408A574890ED000AB5EEC00ACE
:10455000F1EE10FA19D2544800780A280ADA5248C3
:104560000078401C504908704E4890ED080A80EDD4
:10457000000A0AE04FF400514C48FDF720FD0020EE
:104580004949087002204A490870464890ED000ADF
:1045900030EE490AB0EE408A90ED000A80ED080A3C
:1045A000B5EEC08AF1EE10FA02D2B1EE480A01E08F
:1045B000B0EE480ADFED3F0AB4EEE00AF1EE10FA81
:1045C0001ADD384890ED000AB5EEC00AF1EE10FA97
:1045D00012DD3948007D00F0870040F020003649A8
:1045E0000875B5EEC08AF1EE10FA26D84FF40051E6
:1045F0002E48FDF7E2FC20E0B5EEC08AF1EE10FA9D
:1046000002D2B1EE480A01E0B0EE480ADFED290A15
:10461000B4EEE00AF1EE10FA0FD2224890ED000A53
:10462000B5EEC00AF1EE10FA07DD4FF400511F4855
:10463000FDF7C5FC01201E49087038EE680AB5EE8A
:10464000C00AF1EE10FA04D2B1EE480A30EE680A60
:1046500001E038EE680ADFED190AB4EEE00AF1EE87
:1046600010FA14D216480078401C15490870084604
:10467000007805280EDD4FF400510C48FDF79FFC33
:1046800000200F49087001200949087002E000204D
:104690000B490870F0EE488ABDEC048B10BD000099
:1046A00000000000280800209D020020000C0240AD
:1046B00053020020000096439C0800200000C842DE
:1046C0009C02002000BFFEE710B52DED028BB0EE7E
:1046D000408A2048007818B901201E49087036E049
:1046E0001C480078012817D11B4800680A280ADAFC
:1046F000B5EEC08AF1EE10FA29DD4FF4804117487B
:10470000FDF75BFC23E013480078401C114908705A
:104710000020114908601AE00E480078022816D1DE
:104720000D4800680A280ADAB5EEC08AF1EE10FAE0
:104730000DDD4FF480410948FDF741FC07E00548D5
:104740000078401E03490870002003490860BDEC52
:10475000028B10BD5D02002060020020000C0240B0
:1047600010B52DED028BF0EE408A9FED830AB0EE7E
:10477000408A824890ED050AB5EEC00AF1EE10FAC3
:104780001FD27F4800780A280ADA7D480078401C4A
:104790007B490870794890ED0D0A80ED050A13E019
:1047A0004FF400417748FDF70AFC4FF4804175480B
:1047B000FDF705FC0020724908700220724908705C
:1047C00002E000206E4908706C4890ED050A30EE5A
:1047D000680AB0EE408A90ED050A80ED0D0AB5EE4C
:1047E000C08AF1EE10FA02D2B1EE480A01E0B0EE52
:1047F000480ADFED660AB4EEE00AF1EE10FA31DDA8
:104800005E4890ED050AB5EEC00AF1EE10FA29DD1A
:1048100090ED050A30EE680AB0EE408AB5EEC08A27
:10482000F1EE10FA0DD25A48007D00F0870040F0FA
:104830000800574908754FF480415248FDF7BDFB09
:1048400096E0B5EEC08AF1EE10FA0ADD5048007D20
:1048500000F087004E4908754FF400414948FDF7C4
:10486000ACFB85E0B5EEC08AF1EE10FA02D2B1EEF3
:10487000480A01E0B0EE480ADFED440AB4EEE00A6F
:10488000F1EE10FA74D23D4890ED050AB5EEC00A7B
:10489000F1EE10FA6CDDB5EEC08AF1EE10FA31D20D
:1048A0009FED3C0AB4EEC08AF1EE10FA08D23A4805
:1048B0000078022804DAB0EE480AFEF7D3FA57E08F
:1048C0009FED340AB4EEC08AF1EE10FA0AD23248F3
:1048D0000078022806DBDFED280AB0EE480AFDF773
:1048E0007BFB45E04FF480412648FDF768FB002044
:1048F000294908702949087029490860012022497E
:10490000087035E0B5EEC08AF1EE10FA30DB9FEDAD
:10491000250AB4EEC08AF1EE10FA08DD1E480078D0
:10492000022804DAB0EE480AFEF79CFA20E09FED78
:104930001D0AB4EEC08AF1EE10FA0ADD16480078BE
:10494000022806DBDFED0C0AB0EE480AFDF744FB57
:104950000EE04FF400410B48FDF731FB00200E49FB
:1049600008700E4908700E49086001200649087059
:10497000BDEC028B10BD00000000000028080020E4
:104980009802002000040240500200200000FA4477
:104990009C080020000048C35C0200205D0200204B
:1049A000600200200000484310B52DED028BF0EEB0
:1049B000408A9FED6B0AB0EE408A6A4890ED060A85
:1049C000B5EEC00AF1EE10FA1FD2674800780A2847
:1049D0000ADA65480078401C63490870614890ED28
:1049E0000E0A80ED060A13E04FF400515F48FDF710
:1049F000E6FA4FF480515D48FDF7E1FA00205A498C
:104A0000087002205A49087002E0002056490870D8
:104A1000544890ED060A30EE680AB0EE408A90EDF8
:104A2000060A80ED0E0AB5EEC08AF1EE10FA02D247
:104A3000B1EE480A01E0B0EE480ADFED4E0AB4EEEE
:104A4000E00AF1EE10FA2DDD464890ED060AB5EECB
:104A5000C00AF1EE10FA25DDB5EEC08AF1EE10FACB
:104A60000DDD4548007D00F0870040F01000424910
:104A700008754FF480513D48FDF79FFA6CE0B5EEA4
:104A8000C08AF1EE10FA67D23B48007D00F0870043
:104A900040F01800384908754FF400513348FDF7CD
:104AA0008CFA59E0B5EEC08AF1EE10FA02D2B1EEFE
:104AB000480A01E0B0EE480ADFED2E0AB4EEE00A43
:104AC000F1EE10FA48D2274890ED060AB5EEC00A7A
:104AD000F1EE10FA40DDB5EEC08AF1EE10FA1BD20D
:104AE0009FED260AB4EEC08AF1EE10FA06D2F0EE7F
:104AF000480A9FED1B0AFDF76FFA2DE04FF40051B5
:104B00001A48FDF75CFA00201D4908701D4908602D
:104B10000120174908701FE0B5EEC08AF1EE10FAC7
:104B20001ADD9FED190AB4EEC08AF1EE10FA06DD27
:104B3000F0EE480A9FED0A0AFDF74EFA0CE04FF43A
:104B400080510A48FDF73BFA00200D4908700D49D5
:104B50000860012006490870BDEC028B10BD000002
:104B600000000000280800209902002000040240F4
:104B7000510200200000FA449C080020000048C3B5
:104B80005D020020600200200000484302E008C8E7
:104B9000121F08C1002AFAD170477047002001E0B7
:104BA00001C1121F002AFBD17047000010B588B068
:104BB000044601210846FDF7B1FE01211020FDF752
:104BC000CDFE01218805FDF7A9FE07220921354800
:104BD000FDF7D0F907220A213248FDF7CBF9022070
:104BE0008DF80C0003208DF80D0000208DF80E00CC
:104BF00001208DF80F004002029002A92948FDF71C
:104C000071F94FF48060029002A92648FDF76AF915
:104C100004940020ADF81400ADF81600ADF81800AB
:104C2000ADF81C000C20ADF81A0004A91E48FFF7CF
:104C3000F3F9FEF7EDFB0A210020FEF73BFC012211
:104C400040211948FFF712F9012280211648FFF789
:104C50000DF9012210211548FCF7CCFC25208DF818
:104C6000040001208DF805008DF806008DF807007E
:104C700001A8FDF7EDFD012240F224410A48FFF7AB
:104C8000A6F9012240F226610748FFF7A0F90121A9
:104C90000548FFF7DFF840210348FFF7C3F808B0E5
:104CA00010BD00000000024000100140B864024046
:104CB00010B588B0044601210820FDF72FFE012120
:104CC0004804FDF73BFE01214805FDF727FE0722BA
:104CD00006212D48FDF74EF902208DF80C00032027
:104CE0008DF80D0000208DF80E0001208DF80F00CA
:104CF0004020029002A92448FDF7F4F80494002013
:104D0000ADF81400ADF81600ADF81800ADF81C00B1
:104D10000420ADF81A0004A91C48FFF77DF9FFF73D
:104D2000AFF80A210020FFF7E9F8012240211748D7
:104D3000FFF79CF8012210211548FCF75BFC2620A8
:104D40008DF8040001208DF8050002208DF8060082
:104D500001208DF8070001A8FDF77AFD012240F23D
:104D600024410A48FFF733F9012240F2266107483F
:104D7000FFF72DF901210548FFF76CF840210348A2
:104D8000FFF750F808B010BD000C0240004400408E
:104D9000A060024010B588B0044601210220FDF752
:104DA000BDFD01218804FDF7C9FD01214805FDF77E
:104DB000B5FD07220A213D48FDF7DCF807220B214B
:104DC0003A48FDF7D7F802208DF80C0003208DF843
:104DD0000D0000208DF80E0001208DF80F008002DC
:104DE000029002A93148FDF77DF84FF4006002906F
:104DF00002A92E48FDF776F804940020ADF81400BF
:104E0000ADF81600ADF81800ADF81C000C20ADF898
:104E10001A0004A92648FFF7FFF801212448FFF7EC
:104E200019F840212248FEF7FDFF00BF402120482D
:104E3000FFF796F80028F9D040211D48FEF7F2FF51
:104E4000002240F226611A48FFF7C1F8002240F222
:104E500025511748FFF7BBF8002240F2277114488C
:104E6000FFF7B5F8012240F224411148FFF7AFF8EF
:104E700027208DF8040001208DF805008DF806002C
:104E80008DF8070001A8FDF7E3FC01224021084846
:104E9000FEF7ECFF012280210548FEF7E7FFFEF751
:104EA0001DFEFEF7B1FD08B010BD00000004024079
:104EB000004800404348C088401C4249C88008461A
:104EC0000089401C088108464089401C48810846EA
:104ED0008089401C88810846C089401CC8810846DA
:104EE000C08814286CDA08460089322804DB08469A
:104EF00000893238088163E032484089C8284FDB96
:104F000030484089C8382F4948812F480078012807
:104F100003D02D480078022804D12C480068401C9A
:104F20002A4908602A480078012803D028480078D8
:104F3000022804D127480068401C264908602648FA
:104F40000078012804D125480068401C23490860E6
:104F500023480078012804D122480068401C2149D8
:104F60000860214890F90000002805DB1E48007801
:104F7000401C40B21C4908701C4890F900000028F1
:104F800005DB1A480078401C40B2184908701848E0
:104F90000078A8B917480078401C164908700FE03F
:104FA00008488089B0F5C87F0ADA0648C089B0F59C
:104FB000FA6F05DB0348C089A0F5FA600149C88192
:104FC00070470000B408002056020020580200205C
:104FD0005D020020600200206502002068020020BF
:104FE0006C020020700200204E0000204F000020C4
:104FF000260000209102002001B5044900980860B5
:1050000000BF024800680028FBD108BD280000202E
:10501000FEF798F8FBF71EFC012061490860614823
:1050200090ED040A80ED0C0A90ED050A80ED0D0A62
:1050300090ED060A80ED0E0A90ED000A80ED080A58
:1050400090ED070A80ED0F0A07E001210846FCF702
:105050001DFB01210020FCF719FB534800780028B4
:10506000F3D0524800780028EFD05148007D40F03E
:1050700080004F49087591E04E48C08814286BDBCA
:105080004D480078012803D102204B4908705EE0AA
:105090004948007800285AD047480078022856D15D
:1050A00046480078012845D1454800780B283FD272
:1050B000DFE800F03E06101A1F24292E33383B008B
:1050C0004048D0ED000AF8EEE00AB0EE600AFDF7C5
:1050D00003FB2EE03B48D0ED020AF8EEE00AB0EE0A
:1050E000600AFDF755FB24E09FED370AFDF7E2F972
:1050F0001FE09FED350AFDF739FA1AE09FED320AFD
:10510000FDF790FA15E09FED310AFDF741F910E047
:105110009FED2F0AFDF788F80BE09FED2E0AFDF7B3
:10512000DDF806E0FDF748F803E0FDF78BF900E055
:1051300000BF0CE021480078022802D1FBF754FDA3
:1051400005E01E480078032801D1FBF7A3FB1948AE
:10515000C08814381749C88016488089B0F5C87FC0
:105160001CDB1D48406980F008001B494861FDF7C1
:10517000AFFC0020194908701949087019480078D7
:1051800018B119480078012802D101201749086098
:1051900008488089A0F5C870064988816CE700003E
:1051A0008C024042280800205502002054020020B2
:1051B0009C080020B40800202400002025000020C6
:1051C000A7020020C802002000803B450000C84420
:1051D00000409C450080D44400000240260000208E
:1051E0009102002074020020A8020020B0824042F8
:1051F00070B504460D46AA20E07025712079E1784B
:105200000844607106212046FEF73EF970BD70B576
:1052100004460D46AA20E07025712079E178084403
:10522000607106212046FEF755FA70BD4C52000809
:1052300000000020B00200008A0500089453000816
:10524000B0020020180A00009C4B000811847A0369
:105250000A680901020304060708090CA9100115D0
:1052600043060F3A04062A050613FFFF2808C181EA
:105270004001C0804104690C2908E918A91C091AD9
:1052800030091638093660092E70092F6000FF00BA
:10529000C0C101C30302C2C60607C705C5C404CC0A
:1052A0000C0DCD0FCFCE0E0ACACB0BC90908C8D83A
:1052B0001819D91BDBDA1A1EDEDF1FDD1D1CDC14FA
:1052C000D4D515D71716D6D21213D311D1D010F0CA
:1052D0003031F133F3F23236F6F737F53534F43C4A
:1052E000FCFD3DFF3F3EFEFA3A3BFB39F9F838281A
:1052F000E8E929EB2B2AEAEE2E2FEF2DEDEC2CE43A
:105300002425E527E7E62622E2E323E12120E0A0A9
:105310006061A163A3A26266A6A767A56564A46C89
:10532000ACAD6DAF6F6EAEAA6A6BAB69A9A86878B9
:10533000B8B979BB7B7ABABE7E7FBF7DBDBC7CB479
:105340007475B577B7B67672B2B373B17170B05089
:105350009091519353529296565797559594549CC9
:105360005C5D9D5F9F9E5E5A9A9B5B995958988899
:105370004849894B8B8A4A4E8E8F4F8D4D4C8C44B9
:105380008485458747468682424383418180025C0B
:045390004032FF00A8
:040000050800018965
:00000001FF
